{
	"token/Contract_flattened.sol": {
		"UnfetteredEcosystem": {
			"abi": [
				{
					"inputs": [
						{
							"internalType": "string",
							"name": "name",
							"type": "string"
						},
						{
							"internalType": "string",
							"name": "symbol",
							"type": "string"
						},
						{
							"internalType": "uint8",
							"name": "_decimal",
							"type": "uint8"
						},
						{
							"internalType": "uint256",
							"name": "initialSupply",
							"type": "uint256"
						}
					],
					"stateMutability": "nonpayable",
					"type": "constructor"
				},
				{
					"anonymous": false,
					"inputs": [
						{
							"indexed": true,
							"internalType": "address",
							"name": "owner",
							"type": "address"
						},
						{
							"indexed": true,
							"internalType": "address",
							"name": "spender",
							"type": "address"
						},
						{
							"indexed": false,
							"internalType": "uint256",
							"name": "value",
							"type": "uint256"
						}
					],
					"name": "Approval",
					"type": "event"
				},
				{
					"anonymous": false,
					"inputs": [
						{
							"indexed": true,
							"internalType": "address",
							"name": "previousOwner",
							"type": "address"
						},
						{
							"indexed": true,
							"internalType": "address",
							"name": "newOwner",
							"type": "address"
						}
					],
					"name": "OwnershipTransferred",
					"type": "event"
				},
				{
					"anonymous": false,
					"inputs": [
						{
							"indexed": true,
							"internalType": "address",
							"name": "from",
							"type": "address"
						},
						{
							"indexed": true,
							"internalType": "address",
							"name": "to",
							"type": "address"
						},
						{
							"indexed": false,
							"internalType": "uint256",
							"name": "value",
							"type": "uint256"
						}
					],
					"name": "Transfer",
					"type": "event"
				},
				{
					"inputs": [
						{
							"internalType": "address",
							"name": "owner",
							"type": "address"
						},
						{
							"internalType": "address",
							"name": "spender",
							"type": "address"
						}
					],
					"name": "allowance",
					"outputs": [
						{
							"internalType": "uint256",
							"name": "",
							"type": "uint256"
						}
					],
					"stateMutability": "view",
					"type": "function"
				},
				{
					"inputs": [
						{
							"internalType": "address",
							"name": "spender",
							"type": "address"
						},
						{
							"internalType": "uint256",
							"name": "amount",
							"type": "uint256"
						}
					],
					"name": "approve",
					"outputs": [
						{
							"internalType": "bool",
							"name": "",
							"type": "bool"
						}
					],
					"stateMutability": "nonpayable",
					"type": "function"
				},
				{
					"inputs": [
						{
							"internalType": "address",
							"name": "account",
							"type": "address"
						}
					],
					"name": "balanceOf",
					"outputs": [
						{
							"internalType": "uint256",
							"name": "",
							"type": "uint256"
						}
					],
					"stateMutability": "view",
					"type": "function"
				},
				{
					"inputs": [
						{
							"internalType": "uint256",
							"name": "amount",
							"type": "uint256"
						}
					],
					"name": "burn",
					"outputs": [],
					"stateMutability": "nonpayable",
					"type": "function"
				},
				{
					"inputs": [
						{
							"internalType": "address",
							"name": "account",
							"type": "address"
						},
						{
							"internalType": "uint256",
							"name": "amount",
							"type": "uint256"
						}
					],
					"name": "burnFrom",
					"outputs": [],
					"stateMutability": "nonpayable",
					"type": "function"
				},
				{
					"inputs": [],
					"name": "decimals",
					"outputs": [
						{
							"internalType": "uint8",
							"name": "",
							"type": "uint8"
						}
					],
					"stateMutability": "view",
					"type": "function"
				},
				{
					"inputs": [
						{
							"internalType": "address",
							"name": "spender",
							"type": "address"
						},
						{
							"internalType": "uint256",
							"name": "subtractedValue",
							"type": "uint256"
						}
					],
					"name": "decreaseAllowance",
					"outputs": [
						{
							"internalType": "bool",
							"name": "",
							"type": "bool"
						}
					],
					"stateMutability": "nonpayable",
					"type": "function"
				},
				{
					"inputs": [
						{
							"internalType": "address",
							"name": "spender",
							"type": "address"
						},
						{
							"internalType": "uint256",
							"name": "addedValue",
							"type": "uint256"
						}
					],
					"name": "increaseAllowance",
					"outputs": [
						{
							"internalType": "bool",
							"name": "",
							"type": "bool"
						}
					],
					"stateMutability": "nonpayable",
					"type": "function"
				},
				{
					"inputs": [],
					"name": "name",
					"outputs": [
						{
							"internalType": "string",
							"name": "",
							"type": "string"
						}
					],
					"stateMutability": "view",
					"type": "function"
				},
				{
					"inputs": [],
					"name": "owner",
					"outputs": [
						{
							"internalType": "address",
							"name": "",
							"type": "address"
						}
					],
					"stateMutability": "view",
					"type": "function"
				},
				{
					"inputs": [],
					"name": "renounceOwnership",
					"outputs": [],
					"stateMutability": "nonpayable",
					"type": "function"
				},
				{
					"inputs": [],
					"name": "symbol",
					"outputs": [
						{
							"internalType": "string",
							"name": "",
							"type": "string"
						}
					],
					"stateMutability": "view",
					"type": "function"
				},
				{
					"inputs": [],
					"name": "totalSupply",
					"outputs": [
						{
							"internalType": "uint256",
							"name": "",
							"type": "uint256"
						}
					],
					"stateMutability": "view",
					"type": "function"
				},
				{
					"inputs": [
						{
							"internalType": "address",
							"name": "to",
							"type": "address"
						},
						{
							"internalType": "uint256",
							"name": "amount",
							"type": "uint256"
						}
					],
					"name": "transfer",
					"outputs": [
						{
							"internalType": "bool",
							"name": "",
							"type": "bool"
						}
					],
					"stateMutability": "nonpayable",
					"type": "function"
				},
				{
					"inputs": [
						{
							"internalType": "address",
							"name": "from",
							"type": "address"
						},
						{
							"internalType": "address",
							"name": "to",
							"type": "address"
						},
						{
							"internalType": "uint256",
							"name": "amount",
							"type": "uint256"
						}
					],
					"name": "transferFrom",
					"outputs": [
						{
							"internalType": "bool",
							"name": "",
							"type": "bool"
						}
					],
					"stateMutability": "nonpayable",
					"type": "function"
				},
				{
					"inputs": [
						{
							"internalType": "address",
							"name": "newOwner",
							"type": "address"
						}
					],
					"name": "transferOwnership",
					"outputs": [],
					"stateMutability": "nonpayable",
					"type": "function"
				}
			],
			"devdoc": {
				"kind": "dev",
				"methods": {},
				"version": 1
			},
			"evm": {
				"assembly": "    /* \"token/Contract_flattened.sol\":8520:8814  contract UnfetteredEcosystem is ERC20Burnable, Ownable {... */\n  mstore(0x40, 0x80)\n    /* \"token/Contract_flattened.sol\":8584:8811  constructor(string memory name, string memory symbol, uint8 _decimal, uint256 initialSupply) ERC20(name, symbol, _decimal) {... */\n  callvalue\n  dup1\n  iszero\n  tag_1\n  jumpi\n  0x00\n  dup1\n  revert\ntag_1:\n  pop\n  mload(0x40)\n  sub(codesize, bytecodeSize)\n  dup1\n  bytecodeSize\n  dup4\n  codecopy\n  dup2\n  dup2\n  add\n  0x40\n  mstore\n  dup2\n  add\n  swap1\n  tag_2\n  swap2\n  swap1\n  tag_3\n  jump\t// in\ntag_2:\n    /* \"token/Contract_flattened.sol\":8683:8687  name */\n  dup4\n    /* \"token/Contract_flattened.sol\":8689:8695  symbol */\n  dup4\n    /* \"token/Contract_flattened.sol\":8697:8705  _decimal */\n  dup4\n    /* \"token/Contract_flattened.sol\":1829:1834  name_ */\n  dup3\n    /* \"token/Contract_flattened.sol\":1821:1826  _name */\n  0x03\n    /* \"token/Contract_flattened.sol\":1821:1834  _name = name_ */\n  swap1\n  dup2\n  tag_8\n  swap2\n  swap1\n  tag_9\n  jump\t// in\ntag_8:\n  pop\n    /* \"token/Contract_flattened.sol\":1855:1862  symbol_ */\n  dup2\n    /* \"token/Contract_flattened.sol\":1845:1852  _symbol */\n  0x04\n    /* \"token/Contract_flattened.sol\":1845:1862  _symbol = symbol_ */\n  swap1\n  dup2\n  tag_10\n  swap2\n  swap1\n  tag_9\n  jump\t// in\ntag_10:\n  pop\n    /* \"token/Contract_flattened.sol\":1884:1892  decimal_ */\n  dup1\n    /* \"token/Contract_flattened.sol\":1873:1881  _decimal */\n  0x05\n  0x00\n    /* \"token/Contract_flattened.sol\":1873:1892  _decimal = decimal_ */\n  0x0100\n  exp\n  dup2\n  sload\n  dup2\n  0xff\n  mul\n  not\n  and\n  swap1\n  dup4\n  0xff\n  and\n  mul\n  or\n  swap1\n  sstore\n  pop\n    /* \"token/Contract_flattened.sol\":1738:1900  constructor(string memory name_, string memory symbol_, uint8 decimal_) {... */\n  pop\n  pop\n  pop\n    /* \"token/Contract_flattened.sol\":7582:7614  _transferOwnership(_msgSender()) */\n  tag_12\n    /* \"token/Contract_flattened.sol\":7601:7613  _msgSender() */\n  tag_13\n    /* \"token/Contract_flattened.sol\":7601:7611  _msgSender */\n  shl(0x20, tag_14)\n    /* \"token/Contract_flattened.sol\":7601:7613  _msgSender() */\n  0x20\n  shr\n  jump\t// in\ntag_13:\n    /* \"token/Contract_flattened.sol\":7582:7600  _transferOwnership */\n  shl(0x20, tag_15)\n    /* \"token/Contract_flattened.sol\":7582:7614  _transferOwnership(_msgSender()) */\n  0x20\n  shr\n  jump\t// in\ntag_12:\n    /* \"token/Contract_flattened.sol\":8718:8732  uint256 amount */\n  0x00\n    /* \"token/Contract_flattened.sol\":8757:8767  decimals() */\n  tag_17\n    /* \"token/Contract_flattened.sol\":8757:8765  decimals */\n  shl(0x20, tag_18)\n    /* \"token/Contract_flattened.sol\":8757:8767  decimals() */\n  0x20\n  shr\n  jump\t// in\ntag_17:\n    /* \"token/Contract_flattened.sol\":8751:8753  10 */\n  0x0a\n    /* \"token/Contract_flattened.sol\":8751:8767  10 ** decimals() */\n  tag_19\n  swap2\n  swap1\n  tag_20\n  jump\t// in\ntag_19:\n    /* \"token/Contract_flattened.sol\":8735:8748  initialSupply */\n  dup3\n    /* \"token/Contract_flattened.sol\":8735:8767  initialSupply * 10 ** decimals() */\n  tag_21\n  swap2\n  swap1\n  tag_22\n  jump\t// in\ntag_21:\n    /* \"token/Contract_flattened.sol\":8718:8767  uint256 amount = initialSupply * 10 ** decimals() */\n  swap1\n  pop\n    /* \"token/Contract_flattened.sol\":8778:8803  _mint(msg.sender, amount) */\n  tag_23\n    /* \"token/Contract_flattened.sol\":8784:8794  msg.sender */\n  caller\n    /* \"token/Contract_flattened.sol\":8796:8802  amount */\n  dup3\n    /* \"token/Contract_flattened.sol\":8778:8783  _mint */\n  shl(0x20, tag_24)\n    /* \"token/Contract_flattened.sol\":8778:8803  _mint(msg.sender, amount) */\n  0x20\n  shr\n  jump\t// in\ntag_23:\n    /* \"token/Contract_flattened.sol\":8707:8811  {... */\n  pop\n    /* \"token/Contract_flattened.sol\":8584:8811  constructor(string memory name, string memory symbol, uint8 _decimal, uint256 initialSupply) ERC20(name, symbol, _decimal) {... */\n  pop\n  pop\n  pop\n  pop\n    /* \"token/Contract_flattened.sol\":8520:8814  contract UnfetteredEcosystem is ERC20Burnable, Ownable {... */\n  jump(tag_25)\n    /* \"token/Contract_flattened.sol\":96:194  function _msgSender() internal view virtual returns (address) {... */\ntag_14:\n    /* \"token/Contract_flattened.sol\":149:156  address */\n  0x00\n    /* \"token/Contract_flattened.sol\":176:186  msg.sender */\n  caller\n    /* \"token/Contract_flattened.sol\":169:186  return msg.sender */\n  swap1\n  pop\n    /* \"token/Contract_flattened.sol\":96:194  function _msgSender() internal view virtual returns (address) {... */\n  swap1\n  jump\t// out\n    /* \"token/Contract_flattened.sol\":8258:8449  function _transferOwnership(address newOwner) internal virtual {... */\ntag_15:\n    /* \"token/Contract_flattened.sol\":8332:8348  address oldOwner */\n  0x00\n    /* \"token/Contract_flattened.sol\":8351:8357  _owner */\n  0x05\n  0x01\n  swap1\n  sload\n  swap1\n  0x0100\n  exp\n  swap1\n  div\n  0xffffffffffffffffffffffffffffffffffffffff\n  and\n    /* \"token/Contract_flattened.sol\":8332:8357  address oldOwner = _owner */\n  swap1\n  pop\n    /* \"token/Contract_flattened.sol\":8377:8385  newOwner */\n  dup2\n    /* \"token/Contract_flattened.sol\":8368:8374  _owner */\n  0x05\n  0x01\n    /* \"token/Contract_flattened.sol\":8368:8385  _owner = newOwner */\n  0x0100\n  exp\n  dup2\n  sload\n  dup2\n  0xffffffffffffffffffffffffffffffffffffffff\n  mul\n  not\n  and\n  swap1\n  dup4\n  0xffffffffffffffffffffffffffffffffffffffff\n  and\n  mul\n  or\n  swap1\n  sstore\n  pop\n    /* \"token/Contract_flattened.sol\":8432:8440  newOwner */\n  dup2\n    /* \"token/Contract_flattened.sol\":8401:8441  OwnershipTransferred(oldOwner, newOwner) */\n  0xffffffffffffffffffffffffffffffffffffffff\n  and\n    /* \"token/Contract_flattened.sol\":8422:8430  oldOwner */\n  dup2\n    /* \"token/Contract_flattened.sol\":8401:8441  OwnershipTransferred(oldOwner, newOwner) */\n  0xffffffffffffffffffffffffffffffffffffffff\n  and\n  0x8be0079c531659141344cd1fd0a4f28419497f9722a3daafe3b4186f6b6457e0\n  mload(0x40)\n  mload(0x40)\n  dup1\n  swap2\n  sub\n  swap1\n  log3\n    /* \"token/Contract_flattened.sol\":8321:8449  {... */\n  pop\n    /* \"token/Contract_flattened.sol\":8258:8449  function _transferOwnership(address newOwner) internal virtual {... */\n  pop\n  jump\t// out\n    /* \"token/Contract_flattened.sol\":2128:2227  function decimals() public view virtual override returns (uint8) {... */\ntag_18:\n    /* \"token/Contract_flattened.sol\":2186:2191  uint8 */\n  0x00\n    /* \"token/Contract_flattened.sol\":2211:2219  _decimal */\n  0x05\n  0x00\n  swap1\n  sload\n  swap1\n  0x0100\n  exp\n  swap1\n  div\n  0xff\n  and\n    /* \"token/Contract_flattened.sol\":2204:2219  return _decimal */\n  swap1\n  pop\n    /* \"token/Contract_flattened.sol\":2128:2227  function decimals() public view virtual override returns (uint8) {... */\n  swap1\n  jump\t// out\n    /* \"token/Contract_flattened.sol\":4828:5263  function _mint(address account, uint256 amount) internal virtual {... */\ntag_24:\n    /* \"token/Contract_flattened.sol\":4931:4932  0 */\n  0x00\n    /* \"token/Contract_flattened.sol\":4912:4933  account != address(0) */\n  0xffffffffffffffffffffffffffffffffffffffff\n  and\n    /* \"token/Contract_flattened.sol\":4912:4919  account */\n  dup3\n    /* \"token/Contract_flattened.sol\":4912:4933  account != address(0) */\n  0xffffffffffffffffffffffffffffffffffffffff\n  and\n  sub\n    /* \"token/Contract_flattened.sol\":4904:4969  require(account != address(0), \"ERC20: mint to the zero address\") */\n  tag_30\n  jumpi\n  mload(0x40)\n  0x08c379a000000000000000000000000000000000000000000000000000000000\n  dup2\n  mstore\n  0x04\n  add\n  tag_31\n  swap1\n  tag_32\n  jump\t// in\ntag_31:\n  mload(0x40)\n  dup1\n  swap2\n  sub\n  swap1\n  revert\ntag_30:\n    /* \"token/Contract_flattened.sol\":4982:5031  _beforeTokenTransfer(address(0), account, amount) */\n  tag_33\n    /* \"token/Contract_flattened.sol\":5011:5012  0 */\n  0x00\n    /* \"token/Contract_flattened.sol\":5015:5022  account */\n  dup4\n    /* \"token/Contract_flattened.sol\":5024:5030  amount */\n  dup4\n    /* \"token/Contract_flattened.sol\":4982:5002  _beforeTokenTransfer */\n  shl(0x20, tag_34)\n    /* \"token/Contract_flattened.sol\":4982:5031  _beforeTokenTransfer(address(0), account, amount) */\n  0x20\n  shr\n  jump\t// in\ntag_33:\n    /* \"token/Contract_flattened.sol\":5060:5066  amount */\n  dup1\n    /* \"token/Contract_flattened.sol\":5044:5056  _totalSupply */\n  0x02\n  0x00\n    /* \"token/Contract_flattened.sol\":5044:5066  _totalSupply += amount */\n  dup3\n  dup3\n  sload\n  tag_35\n  swap2\n  swap1\n  tag_36\n  jump\t// in\ntag_35:\n  swap3\n  pop\n  pop\n  dup2\n  swap1\n  sstore\n  pop\n    /* \"token/Contract_flattened.sol\":5124:5130  amount */\n  dup1\n    /* \"token/Contract_flattened.sol\":5102:5111  _balances */\n  0x00\n    /* \"token/Contract_flattened.sol\":5102:5120  _balances[account] */\n  dup1\n    /* \"token/Contract_flattened.sol\":5112:5119  account */\n  dup5\n    /* \"token/Contract_flattened.sol\":5102:5120  _balances[account] */\n  0xffffffffffffffffffffffffffffffffffffffff\n  and\n  0xffffffffffffffffffffffffffffffffffffffff\n  and\n  dup2\n  mstore\n  0x20\n  add\n  swap1\n  dup2\n  mstore\n  0x20\n  add\n  0x00\n  keccak256\n  0x00\n    /* \"token/Contract_flattened.sol\":5102:5130  _balances[account] += amount */\n  dup3\n  dup3\n  sload\n  add\n  swap3\n  pop\n  pop\n  dup2\n  swap1\n  sstore\n  pop\n    /* \"token/Contract_flattened.sol\":5178:5185  account */\n  dup2\n    /* \"token/Contract_flattened.sol\":5157:5194  Transfer(address(0), account, amount) */\n  0xffffffffffffffffffffffffffffffffffffffff\n  and\n    /* \"token/Contract_flattened.sol\":5174:5175  0 */\n  0x00\n    /* \"token/Contract_flattened.sol\":5157:5194  Transfer(address(0), account, amount) */\n  0xffffffffffffffffffffffffffffffffffffffff\n  and\n  0xddf252ad1be2c89b69c2b068fc378daa952ba7f163c4a11628f55a4df523b3ef\n    /* \"token/Contract_flattened.sol\":5187:5193  amount */\n  dup4\n    /* \"token/Contract_flattened.sol\":5157:5194  Transfer(address(0), account, amount) */\n  mload(0x40)\n  tag_37\n  swap2\n  swap1\n  tag_38\n  jump\t// in\ntag_37:\n  mload(0x40)\n  dup1\n  swap2\n  sub\n  swap1\n  log3\n    /* \"token/Contract_flattened.sol\":5207:5255  _afterTokenTransfer(address(0), account, amount) */\n  tag_39\n    /* \"token/Contract_flattened.sol\":5235:5236  0 */\n  0x00\n    /* \"token/Contract_flattened.sol\":5239:5246  account */\n  dup4\n    /* \"token/Contract_flattened.sol\":5248:5254  amount */\n  dup4\n    /* \"token/Contract_flattened.sol\":5207:5226  _afterTokenTransfer */\n  shl(0x20, tag_40)\n    /* \"token/Contract_flattened.sol\":5207:5255  _afterTokenTransfer(address(0), account, amount) */\n  0x20\n  shr\n  jump\t// in\ntag_39:\n    /* \"token/Contract_flattened.sol\":4828:5263  function _mint(address account, uint256 amount) internal virtual {... */\n  pop\n  pop\n  jump\t// out\n    /* \"token/Contract_flattened.sol\":6735:6826  function _beforeTokenTransfer(address from, address to, uint256 amount) internal virtual {} */\ntag_34:\n  pop\n  pop\n  pop\n  jump\t// out\n    /* \"token/Contract_flattened.sol\":6834:6924  function _afterTokenTransfer(address from, address to, uint256 amount) internal virtual {} */\ntag_40:\n  pop\n  pop\n  pop\n  jump\t// out\n    /* \"#utility.yul\":7:82   */\ntag_43:\n    /* \"#utility.yul\":40:46   */\n  0x00\n    /* \"#utility.yul\":73:75   */\n  0x40\n    /* \"#utility.yul\":67:76   */\n  mload\n    /* \"#utility.yul\":57:76   */\n  swap1\n  pop\n    /* \"#utility.yul\":7:82   */\n  swap1\n  jump\t// out\n    /* \"#utility.yul\":88:205   */\ntag_44:\n    /* \"#utility.yul\":197:198   */\n  0x00\n    /* \"#utility.yul\":194:195   */\n  dup1\n    /* \"#utility.yul\":187:199   */\n  revert\n    /* \"#utility.yul\":211:328   */\ntag_45:\n    /* \"#utility.yul\":320:321   */\n  0x00\n    /* \"#utility.yul\":317:318   */\n  dup1\n    /* \"#utility.yul\":310:322   */\n  revert\n    /* \"#utility.yul\":334:451   */\ntag_46:\n    /* \"#utility.yul\":443:444   */\n  0x00\n    /* \"#utility.yul\":440:441   */\n  dup1\n    /* \"#utility.yul\":433:445   */\n  revert\n    /* \"#utility.yul\":457:574   */\ntag_47:\n    /* \"#utility.yul\":566:567   */\n  0x00\n    /* \"#utility.yul\":563:564   */\n  dup1\n    /* \"#utility.yul\":556:568   */\n  revert\n    /* \"#utility.yul\":580:682   */\ntag_48:\n    /* \"#utility.yul\":621:627   */\n  0x00\n    /* \"#utility.yul\":672:674   */\n  0x1f\n    /* \"#utility.yul\":668:675   */\n  not\n    /* \"#utility.yul\":663:665   */\n  0x1f\n    /* \"#utility.yul\":656:661   */\n  dup4\n    /* \"#utility.yul\":652:666   */\n  add\n    /* \"#utility.yul\":648:676   */\n  and\n    /* \"#utility.yul\":638:676   */\n  swap1\n  pop\n    /* \"#utility.yul\":580:682   */\n  swap2\n  swap1\n  pop\n  jump\t// out\n    /* \"#utility.yul\":688:868   */\ntag_49:\n    /* \"#utility.yul\":736:813   */\n  0x4e487b7100000000000000000000000000000000000000000000000000000000\n    /* \"#utility.yul\":733:734   */\n  0x00\n    /* \"#utility.yul\":726:814   */\n  mstore\n    /* \"#utility.yul\":833:837   */\n  0x41\n    /* \"#utility.yul\":830:831   */\n  0x04\n    /* \"#utility.yul\":823:838   */\n  mstore\n    /* \"#utility.yul\":857:861   */\n  0x24\n    /* \"#utility.yul\":854:855   */\n  0x00\n    /* \"#utility.yul\":847:862   */\n  revert\n    /* \"#utility.yul\":874:1155   */\ntag_50:\n    /* \"#utility.yul\":957:984   */\n  tag_97\n    /* \"#utility.yul\":979:983   */\n  dup3\n    /* \"#utility.yul\":957:984   */\n  tag_48\n  jump\t// in\ntag_97:\n    /* \"#utility.yul\":949:955   */\n  dup2\n    /* \"#utility.yul\":945:985   */\n  add\n    /* \"#utility.yul\":1087:1093   */\n  dup2\n    /* \"#utility.yul\":1075:1085   */\n  dup2\n    /* \"#utility.yul\":1072:1094   */\n  lt\n    /* \"#utility.yul\":1051:1069   */\n  0xffffffffffffffff\n    /* \"#utility.yul\":1039:1049   */\n  dup3\n    /* \"#utility.yul\":1036:1070   */\n  gt\n    /* \"#utility.yul\":1033:1095   */\n  or\n    /* \"#utility.yul\":1030:1118   */\n  iszero\n  tag_98\n  jumpi\n    /* \"#utility.yul\":1098:1116   */\n  tag_99\n  tag_49\n  jump\t// in\ntag_99:\n    /* \"#utility.yul\":1030:1118   */\ntag_98:\n    /* \"#utility.yul\":1138:1148   */\n  dup1\n    /* \"#utility.yul\":1134:1136   */\n  0x40\n    /* \"#utility.yul\":1127:1149   */\n  mstore\n    /* \"#utility.yul\":917:1155   */\n  pop\n    /* \"#utility.yul\":874:1155   */\n  pop\n  pop\n  jump\t// out\n    /* \"#utility.yul\":1161:1290   */\ntag_51:\n    /* \"#utility.yul\":1195:1201   */\n  0x00\n    /* \"#utility.yul\":1222:1242   */\n  tag_101\n  tag_43\n  jump\t// in\ntag_101:\n    /* \"#utility.yul\":1212:1242   */\n  swap1\n  pop\n    /* \"#utility.yul\":1251:1284   */\n  tag_102\n    /* \"#utility.yul\":1279:1283   */\n  dup3\n    /* \"#utility.yul\":1271:1277   */\n  dup3\n    /* \"#utility.yul\":1251:1284   */\n  tag_50\n  jump\t// in\ntag_102:\n    /* \"#utility.yul\":1161:1290   */\n  swap2\n  swap1\n  pop\n  jump\t// out\n    /* \"#utility.yul\":1296:1604   */\ntag_52:\n    /* \"#utility.yul\":1358:1362   */\n  0x00\n    /* \"#utility.yul\":1448:1466   */\n  0xffffffffffffffff\n    /* \"#utility.yul\":1440:1446   */\n  dup3\n    /* \"#utility.yul\":1437:1467   */\n  gt\n    /* \"#utility.yul\":1434:1490   */\n  iszero\n  tag_104\n  jumpi\n    /* \"#utility.yul\":1470:1488   */\n  tag_105\n  tag_49\n  jump\t// in\ntag_105:\n    /* \"#utility.yul\":1434:1490   */\ntag_104:\n    /* \"#utility.yul\":1508:1537   */\n  tag_106\n    /* \"#utility.yul\":1530:1536   */\n  dup3\n    /* \"#utility.yul\":1508:1537   */\n  tag_48\n  jump\t// in\ntag_106:\n    /* \"#utility.yul\":1500:1537   */\n  swap1\n  pop\n    /* \"#utility.yul\":1592:1596   */\n  0x20\n    /* \"#utility.yul\":1586:1590   */\n  dup2\n    /* \"#utility.yul\":1582:1597   */\n  add\n    /* \"#utility.yul\":1574:1597   */\n  swap1\n  pop\n    /* \"#utility.yul\":1296:1604   */\n  swap2\n  swap1\n  pop\n  jump\t// out\n    /* \"#utility.yul\":1610:1856   */\ntag_53:\n    /* \"#utility.yul\":1691:1692   */\n  0x00\n    /* \"#utility.yul\":1701:1814   */\ntag_108:\n    /* \"#utility.yul\":1715:1721   */\n  dup4\n    /* \"#utility.yul\":1712:1713   */\n  dup2\n    /* \"#utility.yul\":1709:1722   */\n  lt\n    /* \"#utility.yul\":1701:1814   */\n  iszero\n  tag_110\n  jumpi\n    /* \"#utility.yul\":1800:1801   */\n  dup1\n    /* \"#utility.yul\":1795:1798   */\n  dup3\n    /* \"#utility.yul\":1791:1802   */\n  add\n    /* \"#utility.yul\":1785:1803   */\n  mload\n    /* \"#utility.yul\":1781:1782   */\n  dup2\n    /* \"#utility.yul\":1776:1779   */\n  dup5\n    /* \"#utility.yul\":1772:1783   */\n  add\n    /* \"#utility.yul\":1765:1804   */\n  mstore\n    /* \"#utility.yul\":1737:1739   */\n  0x20\n    /* \"#utility.yul\":1734:1735   */\n  dup2\n    /* \"#utility.yul\":1730:1740   */\n  add\n    /* \"#utility.yul\":1725:1740   */\n  swap1\n  pop\n    /* \"#utility.yul\":1701:1814   */\n  jump(tag_108)\ntag_110:\n    /* \"#utility.yul\":1848:1849   */\n  0x00\n    /* \"#utility.yul\":1839:1845   */\n  dup5\n    /* \"#utility.yul\":1834:1837   */\n  dup5\n    /* \"#utility.yul\":1830:1846   */\n  add\n    /* \"#utility.yul\":1823:1850   */\n  mstore\n    /* \"#utility.yul\":1672:1856   */\n  pop\n    /* \"#utility.yul\":1610:1856   */\n  pop\n  pop\n  pop\n  jump\t// out\n    /* \"#utility.yul\":1862:2296   */\ntag_54:\n    /* \"#utility.yul\":1951:1956   */\n  0x00\n    /* \"#utility.yul\":1976:2042   */\n  tag_112\n    /* \"#utility.yul\":1992:2041   */\n  tag_113\n    /* \"#utility.yul\":2034:2040   */\n  dup5\n    /* \"#utility.yul\":1992:2041   */\n  tag_52\n  jump\t// in\ntag_113:\n    /* \"#utility.yul\":1976:2042   */\n  tag_51\n  jump\t// in\ntag_112:\n    /* \"#utility.yul\":1967:2042   */\n  swap1\n  pop\n    /* \"#utility.yul\":2065:2071   */\n  dup3\n    /* \"#utility.yul\":2058:2063   */\n  dup2\n    /* \"#utility.yul\":2051:2072   */\n  mstore\n    /* \"#utility.yul\":2103:2107   */\n  0x20\n    /* \"#utility.yul\":2096:2101   */\n  dup2\n    /* \"#utility.yul\":2092:2108   */\n  add\n    /* \"#utility.yul\":2141:2144   */\n  dup5\n    /* \"#utility.yul\":2132:2138   */\n  dup5\n    /* \"#utility.yul\":2127:2130   */\n  dup5\n    /* \"#utility.yul\":2123:2139   */\n  add\n    /* \"#utility.yul\":2120:2145   */\n  gt\n    /* \"#utility.yul\":2117:2229   */\n  iszero\n  tag_114\n  jumpi\n    /* \"#utility.yul\":2148:2227   */\n  tag_115\n  tag_47\n  jump\t// in\ntag_115:\n    /* \"#utility.yul\":2117:2229   */\ntag_114:\n    /* \"#utility.yul\":2238:2290   */\n  tag_116\n    /* \"#utility.yul\":2283:2289   */\n  dup5\n    /* \"#utility.yul\":2278:2281   */\n  dup3\n    /* \"#utility.yul\":2273:2276   */\n  dup6\n    /* \"#utility.yul\":2238:2290   */\n  tag_53\n  jump\t// in\ntag_116:\n    /* \"#utility.yul\":1957:2296   */\n  pop\n    /* \"#utility.yul\":1862:2296   */\n  swap4\n  swap3\n  pop\n  pop\n  pop\n  jump\t// out\n    /* \"#utility.yul\":2316:2671   */\ntag_55:\n    /* \"#utility.yul\":2383:2388   */\n  0x00\n    /* \"#utility.yul\":2432:2435   */\n  dup3\n    /* \"#utility.yul\":2425:2429   */\n  0x1f\n    /* \"#utility.yul\":2417:2423   */\n  dup4\n    /* \"#utility.yul\":2413:2430   */\n  add\n    /* \"#utility.yul\":2409:2436   */\n  slt\n    /* \"#utility.yul\":2399:2521   */\n  tag_118\n  jumpi\n    /* \"#utility.yul\":2440:2519   */\n  tag_119\n  tag_46\n  jump\t// in\ntag_119:\n    /* \"#utility.yul\":2399:2521   */\ntag_118:\n    /* \"#utility.yul\":2550:2556   */\n  dup2\n    /* \"#utility.yul\":2544:2557   */\n  mload\n    /* \"#utility.yul\":2575:2665   */\n  tag_120\n    /* \"#utility.yul\":2661:2664   */\n  dup5\n    /* \"#utility.yul\":2653:2659   */\n  dup3\n    /* \"#utility.yul\":2646:2650   */\n  0x20\n    /* \"#utility.yul\":2638:2644   */\n  dup7\n    /* \"#utility.yul\":2634:2651   */\n  add\n    /* \"#utility.yul\":2575:2665   */\n  tag_54\n  jump\t// in\ntag_120:\n    /* \"#utility.yul\":2566:2665   */\n  swap2\n  pop\n    /* \"#utility.yul\":2389:2671   */\n  pop\n    /* \"#utility.yul\":2316:2671   */\n  swap3\n  swap2\n  pop\n  pop\n  jump\t// out\n    /* \"#utility.yul\":2677:2763   */\ntag_56:\n    /* \"#utility.yul\":2712:2719   */\n  0x00\n    /* \"#utility.yul\":2752:2756   */\n  0xff\n    /* \"#utility.yul\":2745:2750   */\n  dup3\n    /* \"#utility.yul\":2741:2757   */\n  and\n    /* \"#utility.yul\":2730:2757   */\n  swap1\n  pop\n    /* \"#utility.yul\":2677:2763   */\n  swap2\n  swap1\n  pop\n  jump\t// out\n    /* \"#utility.yul\":2769:2887   */\ntag_57:\n    /* \"#utility.yul\":2840:2862   */\n  tag_123\n    /* \"#utility.yul\":2856:2861   */\n  dup2\n    /* \"#utility.yul\":2840:2862   */\n  tag_56\n  jump\t// in\ntag_123:\n    /* \"#utility.yul\":2833:2838   */\n  dup2\n    /* \"#utility.yul\":2830:2863   */\n  eq\n    /* \"#utility.yul\":2820:2881   */\n  tag_124\n  jumpi\n    /* \"#utility.yul\":2877:2878   */\n  0x00\n    /* \"#utility.yul\":2874:2875   */\n  dup1\n    /* \"#utility.yul\":2867:2879   */\n  revert\n    /* \"#utility.yul\":2820:2881   */\ntag_124:\n    /* \"#utility.yul\":2769:2887   */\n  pop\n  jump\t// out\n    /* \"#utility.yul\":2893:3032   */\ntag_58:\n    /* \"#utility.yul\":2948:2953   */\n  0x00\n    /* \"#utility.yul\":2979:2985   */\n  dup2\n    /* \"#utility.yul\":2973:2986   */\n  mload\n    /* \"#utility.yul\":2964:2986   */\n  swap1\n  pop\n    /* \"#utility.yul\":2995:3026   */\n  tag_126\n    /* \"#utility.yul\":3020:3025   */\n  dup2\n    /* \"#utility.yul\":2995:3026   */\n  tag_57\n  jump\t// in\ntag_126:\n    /* \"#utility.yul\":2893:3032   */\n  swap3\n  swap2\n  pop\n  pop\n  jump\t// out\n    /* \"#utility.yul\":3038:3115   */\ntag_59:\n    /* \"#utility.yul\":3075:3082   */\n  0x00\n    /* \"#utility.yul\":3104:3109   */\n  dup2\n    /* \"#utility.yul\":3093:3109   */\n  swap1\n  pop\n    /* \"#utility.yul\":3038:3115   */\n  swap2\n  swap1\n  pop\n  jump\t// out\n    /* \"#utility.yul\":3121:3243   */\ntag_60:\n    /* \"#utility.yul\":3194:3218   */\n  tag_129\n    /* \"#utility.yul\":3212:3217   */\n  dup2\n    /* \"#utility.yul\":3194:3218   */\n  tag_59\n  jump\t// in\ntag_129:\n    /* \"#utility.yul\":3187:3192   */\n  dup2\n    /* \"#utility.yul\":3184:3219   */\n  eq\n    /* \"#utility.yul\":3174:3237   */\n  tag_130\n  jumpi\n    /* \"#utility.yul\":3233:3234   */\n  0x00\n    /* \"#utility.yul\":3230:3231   */\n  dup1\n    /* \"#utility.yul\":3223:3235   */\n  revert\n    /* \"#utility.yul\":3174:3237   */\ntag_130:\n    /* \"#utility.yul\":3121:3243   */\n  pop\n  jump\t// out\n    /* \"#utility.yul\":3249:3392   */\ntag_61:\n    /* \"#utility.yul\":3306:3311   */\n  0x00\n    /* \"#utility.yul\":3337:3343   */\n  dup2\n    /* \"#utility.yul\":3331:3344   */\n  mload\n    /* \"#utility.yul\":3322:3344   */\n  swap1\n  pop\n    /* \"#utility.yul\":3353:3386   */\n  tag_132\n    /* \"#utility.yul\":3380:3385   */\n  dup2\n    /* \"#utility.yul\":3353:3386   */\n  tag_60\n  jump\t// in\ntag_132:\n    /* \"#utility.yul\":3249:3392   */\n  swap3\n  swap2\n  pop\n  pop\n  jump\t// out\n    /* \"#utility.yul\":3398:4560   */\ntag_3:\n    /* \"#utility.yul\":3513:3519   */\n  0x00\n    /* \"#utility.yul\":3521:3527   */\n  dup1\n    /* \"#utility.yul\":3529:3535   */\n  0x00\n    /* \"#utility.yul\":3537:3543   */\n  dup1\n    /* \"#utility.yul\":3586:3589   */\n  0x80\n    /* \"#utility.yul\":3574:3583   */\n  dup6\n    /* \"#utility.yul\":3565:3572   */\n  dup8\n    /* \"#utility.yul\":3561:3584   */\n  sub\n    /* \"#utility.yul\":3557:3590   */\n  slt\n    /* \"#utility.yul\":3554:3674   */\n  iszero\n  tag_134\n  jumpi\n    /* \"#utility.yul\":3593:3672   */\n  tag_135\n  tag_44\n  jump\t// in\ntag_135:\n    /* \"#utility.yul\":3554:3674   */\ntag_134:\n    /* \"#utility.yul\":3734:3735   */\n  0x00\n    /* \"#utility.yul\":3723:3732   */\n  dup6\n    /* \"#utility.yul\":3719:3736   */\n  add\n    /* \"#utility.yul\":3713:3737   */\n  mload\n    /* \"#utility.yul\":3764:3782   */\n  0xffffffffffffffff\n    /* \"#utility.yul\":3756:3762   */\n  dup2\n    /* \"#utility.yul\":3753:3783   */\n  gt\n    /* \"#utility.yul\":3750:3867   */\n  iszero\n  tag_136\n  jumpi\n    /* \"#utility.yul\":3786:3865   */\n  tag_137\n  tag_45\n  jump\t// in\ntag_137:\n    /* \"#utility.yul\":3750:3867   */\ntag_136:\n    /* \"#utility.yul\":3891:3965   */\n  tag_138\n    /* \"#utility.yul\":3957:3964   */\n  dup8\n    /* \"#utility.yul\":3948:3954   */\n  dup3\n    /* \"#utility.yul\":3937:3946   */\n  dup9\n    /* \"#utility.yul\":3933:3955   */\n  add\n    /* \"#utility.yul\":3891:3965   */\n  tag_55\n  jump\t// in\ntag_138:\n    /* \"#utility.yul\":3881:3965   */\n  swap5\n  pop\n    /* \"#utility.yul\":3684:3975   */\n  pop\n    /* \"#utility.yul\":4035:4037   */\n  0x20\n    /* \"#utility.yul\":4024:4033   */\n  dup6\n    /* \"#utility.yul\":4020:4038   */\n  add\n    /* \"#utility.yul\":4014:4039   */\n  mload\n    /* \"#utility.yul\":4066:4084   */\n  0xffffffffffffffff\n    /* \"#utility.yul\":4058:4064   */\n  dup2\n    /* \"#utility.yul\":4055:4085   */\n  gt\n    /* \"#utility.yul\":4052:4169   */\n  iszero\n  tag_139\n  jumpi\n    /* \"#utility.yul\":4088:4167   */\n  tag_140\n  tag_45\n  jump\t// in\ntag_140:\n    /* \"#utility.yul\":4052:4169   */\ntag_139:\n    /* \"#utility.yul\":4193:4267   */\n  tag_141\n    /* \"#utility.yul\":4259:4266   */\n  dup8\n    /* \"#utility.yul\":4250:4256   */\n  dup3\n    /* \"#utility.yul\":4239:4248   */\n  dup9\n    /* \"#utility.yul\":4235:4257   */\n  add\n    /* \"#utility.yul\":4193:4267   */\n  tag_55\n  jump\t// in\ntag_141:\n    /* \"#utility.yul\":4183:4267   */\n  swap4\n  pop\n    /* \"#utility.yul\":3985:4277   */\n  pop\n    /* \"#utility.yul\":4316:4318   */\n  0x40\n    /* \"#utility.yul\":4342:4404   */\n  tag_142\n    /* \"#utility.yul\":4396:4403   */\n  dup8\n    /* \"#utility.yul\":4387:4393   */\n  dup3\n    /* \"#utility.yul\":4376:4385   */\n  dup9\n    /* \"#utility.yul\":4372:4394   */\n  add\n    /* \"#utility.yul\":4342:4404   */\n  tag_58\n  jump\t// in\ntag_142:\n    /* \"#utility.yul\":4332:4404   */\n  swap3\n  pop\n    /* \"#utility.yul\":4287:4414   */\n  pop\n    /* \"#utility.yul\":4453:4455   */\n  0x60\n    /* \"#utility.yul\":4479:4543   */\n  tag_143\n    /* \"#utility.yul\":4535:4542   */\n  dup8\n    /* \"#utility.yul\":4526:4532   */\n  dup3\n    /* \"#utility.yul\":4515:4524   */\n  dup9\n    /* \"#utility.yul\":4511:4533   */\n  add\n    /* \"#utility.yul\":4479:4543   */\n  tag_61\n  jump\t// in\ntag_143:\n    /* \"#utility.yul\":4469:4543   */\n  swap2\n  pop\n    /* \"#utility.yul\":4424:4553   */\n  pop\n    /* \"#utility.yul\":3398:4560   */\n  swap3\n  swap6\n  swap2\n  swap5\n  pop\n  swap3\n  pop\n  jump\t// out\n    /* \"#utility.yul\":4566:4665   */\ntag_62:\n    /* \"#utility.yul\":4618:4624   */\n  0x00\n    /* \"#utility.yul\":4652:4657   */\n  dup2\n    /* \"#utility.yul\":4646:4658   */\n  mload\n    /* \"#utility.yul\":4636:4658   */\n  swap1\n  pop\n    /* \"#utility.yul\":4566:4665   */\n  swap2\n  swap1\n  pop\n  jump\t// out\n    /* \"#utility.yul\":4671:4851   */\ntag_63:\n    /* \"#utility.yul\":4719:4796   */\n  0x4e487b7100000000000000000000000000000000000000000000000000000000\n    /* \"#utility.yul\":4716:4717   */\n  0x00\n    /* \"#utility.yul\":4709:4797   */\n  mstore\n    /* \"#utility.yul\":4816:4820   */\n  0x22\n    /* \"#utility.yul\":4813:4814   */\n  0x04\n    /* \"#utility.yul\":4806:4821   */\n  mstore\n    /* \"#utility.yul\":4840:4844   */\n  0x24\n    /* \"#utility.yul\":4837:4838   */\n  0x00\n    /* \"#utility.yul\":4830:4845   */\n  revert\n    /* \"#utility.yul\":4857:5177   */\ntag_64:\n    /* \"#utility.yul\":4901:4907   */\n  0x00\n    /* \"#utility.yul\":4938:4939   */\n  0x02\n    /* \"#utility.yul\":4932:4936   */\n  dup3\n    /* \"#utility.yul\":4928:4940   */\n  div\n    /* \"#utility.yul\":4918:4940   */\n  swap1\n  pop\n    /* \"#utility.yul\":4985:4986   */\n  0x01\n    /* \"#utility.yul\":4979:4983   */\n  dup3\n    /* \"#utility.yul\":4975:4987   */\n  and\n    /* \"#utility.yul\":5006:5024   */\n  dup1\n    /* \"#utility.yul\":4996:5077   */\n  tag_147\n  jumpi\n    /* \"#utility.yul\":5062:5066   */\n  0x7f\n    /* \"#utility.yul\":5054:5060   */\n  dup3\n    /* \"#utility.yul\":5050:5067   */\n  and\n    /* \"#utility.yul\":5040:5067   */\n  swap2\n  pop\n    /* \"#utility.yul\":4996:5077   */\ntag_147:\n    /* \"#utility.yul\":5124:5126   */\n  0x20\n    /* \"#utility.yul\":5116:5122   */\n  dup3\n    /* \"#utility.yul\":5113:5127   */\n  lt\n    /* \"#utility.yul\":5093:5111   */\n  dup2\n    /* \"#utility.yul\":5090:5128   */\n  sub\n    /* \"#utility.yul\":5087:5171   */\n  tag_148\n  jumpi\n    /* \"#utility.yul\":5143:5161   */\n  tag_149\n  tag_63\n  jump\t// in\ntag_149:\n    /* \"#utility.yul\":5087:5171   */\ntag_148:\n    /* \"#utility.yul\":4908:5177   */\n  pop\n    /* \"#utility.yul\":4857:5177   */\n  swap2\n  swap1\n  pop\n  jump\t// out\n    /* \"#utility.yul\":5183:5324   */\ntag_65:\n    /* \"#utility.yul\":5232:5236   */\n  0x00\n    /* \"#utility.yul\":5255:5258   */\n  dup2\n    /* \"#utility.yul\":5247:5258   */\n  swap1\n  pop\n    /* \"#utility.yul\":5278:5281   */\n  dup2\n    /* \"#utility.yul\":5275:5276   */\n  0x00\n    /* \"#utility.yul\":5268:5282   */\n  mstore\n    /* \"#utility.yul\":5312:5316   */\n  0x20\n    /* \"#utility.yul\":5309:5310   */\n  0x00\n    /* \"#utility.yul\":5299:5317   */\n  keccak256\n    /* \"#utility.yul\":5291:5317   */\n  swap1\n  pop\n    /* \"#utility.yul\":5183:5324   */\n  swap2\n  swap1\n  pop\n  jump\t// out\n    /* \"#utility.yul\":5330:5423   */\ntag_66:\n    /* \"#utility.yul\":5367:5373   */\n  0x00\n    /* \"#utility.yul\":5414:5416   */\n  0x20\n    /* \"#utility.yul\":5409:5411   */\n  0x1f\n    /* \"#utility.yul\":5402:5407   */\n  dup4\n    /* \"#utility.yul\":5398:5412   */\n  add\n    /* \"#utility.yul\":5394:5417   */\n  div\n    /* \"#utility.yul\":5384:5417   */\n  swap1\n  pop\n    /* \"#utility.yul\":5330:5423   */\n  swap2\n  swap1\n  pop\n  jump\t// out\n    /* \"#utility.yul\":5429:5536   */\ntag_67:\n    /* \"#utility.yul\":5473:5481   */\n  0x00\n    /* \"#utility.yul\":5523:5528   */\n  dup3\n    /* \"#utility.yul\":5517:5521   */\n  dup3\n    /* \"#utility.yul\":5513:5529   */\n  shl\n    /* \"#utility.yul\":5492:5529   */\n  swap1\n  pop\n    /* \"#utility.yul\":5429:5536   */\n  swap3\n  swap2\n  pop\n  pop\n  jump\t// out\n    /* \"#utility.yul\":5542:5935   */\ntag_68:\n    /* \"#utility.yul\":5611:5617   */\n  0x00\n    /* \"#utility.yul\":5661:5662   */\n  0x08\n    /* \"#utility.yul\":5649:5659   */\n  dup4\n    /* \"#utility.yul\":5645:5663   */\n  mul\n    /* \"#utility.yul\":5684:5781   */\n  tag_154\n    /* \"#utility.yul\":5714:5780   */\n  0xffffffffffffffffffffffffffffffffffffffffffffffffffffffffffffffff\n    /* \"#utility.yul\":5703:5712   */\n  dup3\n    /* \"#utility.yul\":5684:5781   */\n  tag_67\n  jump\t// in\ntag_154:\n    /* \"#utility.yul\":5802:5841   */\n  tag_155\n    /* \"#utility.yul\":5832:5840   */\n  dup7\n    /* \"#utility.yul\":5821:5830   */\n  dup4\n    /* \"#utility.yul\":5802:5841   */\n  tag_67\n  jump\t// in\ntag_155:\n    /* \"#utility.yul\":5790:5841   */\n  swap6\n  pop\n    /* \"#utility.yul\":5874:5878   */\n  dup1\n    /* \"#utility.yul\":5870:5879   */\n  not\n    /* \"#utility.yul\":5863:5868   */\n  dup5\n    /* \"#utility.yul\":5859:5880   */\n  and\n    /* \"#utility.yul\":5850:5880   */\n  swap4\n  pop\n    /* \"#utility.yul\":5923:5927   */\n  dup1\n    /* \"#utility.yul\":5913:5921   */\n  dup7\n    /* \"#utility.yul\":5909:5928   */\n  and\n    /* \"#utility.yul\":5902:5907   */\n  dup5\n    /* \"#utility.yul\":5899:5929   */\n  or\n    /* \"#utility.yul\":5889:5929   */\n  swap3\n  pop\n    /* \"#utility.yul\":5618:5935   */\n  pop\n  pop\n    /* \"#utility.yul\":5542:5935   */\n  swap4\n  swap3\n  pop\n  pop\n  pop\n  jump\t// out\n    /* \"#utility.yul\":5941:6001   */\ntag_69:\n    /* \"#utility.yul\":5969:5972   */\n  0x00\n    /* \"#utility.yul\":5990:5995   */\n  dup2\n    /* \"#utility.yul\":5983:5995   */\n  swap1\n  pop\n    /* \"#utility.yul\":5941:6001   */\n  swap2\n  swap1\n  pop\n  jump\t// out\n    /* \"#utility.yul\":6007:6149   */\ntag_70:\n    /* \"#utility.yul\":6057:6066   */\n  0x00\n    /* \"#utility.yul\":6090:6143   */\n  tag_158\n    /* \"#utility.yul\":6108:6142   */\n  tag_159\n    /* \"#utility.yul\":6117:6141   */\n  tag_160\n    /* \"#utility.yul\":6135:6140   */\n  dup5\n    /* \"#utility.yul\":6117:6141   */\n  tag_59\n  jump\t// in\ntag_160:\n    /* \"#utility.yul\":6108:6142   */\n  tag_69\n  jump\t// in\ntag_159:\n    /* \"#utility.yul\":6090:6143   */\n  tag_59\n  jump\t// in\ntag_158:\n    /* \"#utility.yul\":6077:6143   */\n  swap1\n  pop\n    /* \"#utility.yul\":6007:6149   */\n  swap2\n  swap1\n  pop\n  jump\t// out\n    /* \"#utility.yul\":6155:6230   */\ntag_71:\n    /* \"#utility.yul\":6198:6201   */\n  0x00\n    /* \"#utility.yul\":6219:6224   */\n  dup2\n    /* \"#utility.yul\":6212:6224   */\n  swap1\n  pop\n    /* \"#utility.yul\":6155:6230   */\n  swap2\n  swap1\n  pop\n  jump\t// out\n    /* \"#utility.yul\":6236:6505   */\ntag_72:\n    /* \"#utility.yul\":6346:6385   */\n  tag_163\n    /* \"#utility.yul\":6377:6384   */\n  dup4\n    /* \"#utility.yul\":6346:6385   */\n  tag_70\n  jump\t// in\ntag_163:\n    /* \"#utility.yul\":6407:6498   */\n  tag_164\n    /* \"#utility.yul\":6456:6497   */\n  tag_165\n    /* \"#utility.yul\":6480:6496   */\n  dup3\n    /* \"#utility.yul\":6456:6497   */\n  tag_71\n  jump\t// in\ntag_165:\n    /* \"#utility.yul\":6448:6454   */\n  dup5\n    /* \"#utility.yul\":6441:6445   */\n  dup5\n    /* \"#utility.yul\":6435:6446   */\n  sload\n    /* \"#utility.yul\":6407:6498   */\n  tag_68\n  jump\t// in\ntag_164:\n    /* \"#utility.yul\":6401:6405   */\n  dup3\n    /* \"#utility.yul\":6394:6499   */\n  sstore\n    /* \"#utility.yul\":6312:6505   */\n  pop\n    /* \"#utility.yul\":6236:6505   */\n  pop\n  pop\n  pop\n  jump\t// out\n    /* \"#utility.yul\":6511:6584   */\ntag_73:\n    /* \"#utility.yul\":6556:6559   */\n  0x00\n    /* \"#utility.yul\":6511:6584   */\n  swap1\n  jump\t// out\n    /* \"#utility.yul\":6590:6779   */\ntag_74:\n    /* \"#utility.yul\":6667:6699   */\n  tag_168\n  tag_73\n  jump\t// in\ntag_168:\n    /* \"#utility.yul\":6708:6773   */\n  tag_169\n    /* \"#utility.yul\":6766:6772   */\n  dup2\n    /* \"#utility.yul\":6758:6764   */\n  dup5\n    /* \"#utility.yul\":6752:6756   */\n  dup5\n    /* \"#utility.yul\":6708:6773   */\n  tag_72\n  jump\t// in\ntag_169:\n    /* \"#utility.yul\":6643:6779   */\n  pop\n    /* \"#utility.yul\":6590:6779   */\n  pop\n  pop\n  jump\t// out\n    /* \"#utility.yul\":6785:6971   */\ntag_75:\n    /* \"#utility.yul\":6845:6965   */\ntag_171:\n    /* \"#utility.yul\":6862:6865   */\n  dup2\n    /* \"#utility.yul\":6855:6860   */\n  dup2\n    /* \"#utility.yul\":6852:6866   */\n  lt\n    /* \"#utility.yul\":6845:6965   */\n  iszero\n  tag_173\n  jumpi\n    /* \"#utility.yul\":6916:6955   */\n  tag_174\n    /* \"#utility.yul\":6953:6954   */\n  0x00\n    /* \"#utility.yul\":6946:6951   */\n  dup3\n    /* \"#utility.yul\":6916:6955   */\n  tag_74\n  jump\t// in\ntag_174:\n    /* \"#utility.yul\":6889:6890   */\n  0x01\n    /* \"#utility.yul\":6882:6887   */\n  dup2\n    /* \"#utility.yul\":6878:6891   */\n  add\n    /* \"#utility.yul\":6869:6891   */\n  swap1\n  pop\n    /* \"#utility.yul\":6845:6965   */\n  jump(tag_171)\ntag_173:\n    /* \"#utility.yul\":6785:6971   */\n  pop\n  pop\n  jump\t// out\n    /* \"#utility.yul\":6977:7520   */\ntag_76:\n    /* \"#utility.yul\":7078:7080   */\n  0x1f\n    /* \"#utility.yul\":7073:7076   */\n  dup3\n    /* \"#utility.yul\":7070:7081   */\n  gt\n    /* \"#utility.yul\":7067:7513   */\n  iszero\n  tag_176\n  jumpi\n    /* \"#utility.yul\":7112:7150   */\n  tag_177\n    /* \"#utility.yul\":7144:7149   */\n  dup2\n    /* \"#utility.yul\":7112:7150   */\n  tag_65\n  jump\t// in\ntag_177:\n    /* \"#utility.yul\":7196:7225   */\n  tag_178\n    /* \"#utility.yul\":7214:7224   */\n  dup5\n    /* \"#utility.yul\":7196:7225   */\n  tag_66\n  jump\t// in\ntag_178:\n    /* \"#utility.yul\":7186:7194   */\n  dup2\n    /* \"#utility.yul\":7182:7226   */\n  add\n    /* \"#utility.yul\":7379:7381   */\n  0x20\n    /* \"#utility.yul\":7367:7377   */\n  dup6\n    /* \"#utility.yul\":7364:7382   */\n  lt\n    /* \"#utility.yul\":7361:7410   */\n  iszero\n  tag_179\n  jumpi\n    /* \"#utility.yul\":7400:7408   */\n  dup2\n    /* \"#utility.yul\":7385:7408   */\n  swap1\n  pop\n    /* \"#utility.yul\":7361:7410   */\ntag_179:\n    /* \"#utility.yul\":7423:7503   */\n  tag_180\n    /* \"#utility.yul\":7479:7501   */\n  tag_181\n    /* \"#utility.yul\":7497:7500   */\n  dup6\n    /* \"#utility.yul\":7479:7501   */\n  tag_66\n  jump\t// in\ntag_181:\n    /* \"#utility.yul\":7469:7477   */\n  dup4\n    /* \"#utility.yul\":7465:7502   */\n  add\n    /* \"#utility.yul\":7452:7463   */\n  dup3\n    /* \"#utility.yul\":7423:7503   */\n  tag_75\n  jump\t// in\ntag_180:\n    /* \"#utility.yul\":7082:7513   */\n  pop\n  pop\n    /* \"#utility.yul\":7067:7513   */\ntag_176:\n    /* \"#utility.yul\":6977:7520   */\n  pop\n  pop\n  pop\n  jump\t// out\n    /* \"#utility.yul\":7526:7643   */\ntag_77:\n    /* \"#utility.yul\":7580:7588   */\n  0x00\n    /* \"#utility.yul\":7630:7635   */\n  dup3\n    /* \"#utility.yul\":7624:7628   */\n  dup3\n    /* \"#utility.yul\":7620:7636   */\n  shr\n    /* \"#utility.yul\":7599:7636   */\n  swap1\n  pop\n    /* \"#utility.yul\":7526:7643   */\n  swap3\n  swap2\n  pop\n  pop\n  jump\t// out\n    /* \"#utility.yul\":7649:7818   */\ntag_78:\n    /* \"#utility.yul\":7693:7699   */\n  0x00\n    /* \"#utility.yul\":7726:7777   */\n  tag_184\n    /* \"#utility.yul\":7774:7775   */\n  0x00\n    /* \"#utility.yul\":7770:7776   */\n  not\n    /* \"#utility.yul\":7762:7767   */\n  dup5\n    /* \"#utility.yul\":7759:7760   */\n  0x08\n    /* \"#utility.yul\":7755:7768   */\n  mul\n    /* \"#utility.yul\":7726:7777   */\n  tag_77\n  jump\t// in\ntag_184:\n    /* \"#utility.yul\":7722:7778   */\n  not\n    /* \"#utility.yul\":7807:7811   */\n  dup1\n    /* \"#utility.yul\":7801:7805   */\n  dup4\n    /* \"#utility.yul\":7797:7812   */\n  and\n    /* \"#utility.yul\":7787:7812   */\n  swap2\n  pop\n    /* \"#utility.yul\":7700:7818   */\n  pop\n    /* \"#utility.yul\":7649:7818   */\n  swap3\n  swap2\n  pop\n  pop\n  jump\t// out\n    /* \"#utility.yul\":7823:8118   */\ntag_79:\n    /* \"#utility.yul\":7899:7903   */\n  0x00\n    /* \"#utility.yul\":8045:8074   */\n  tag_186\n    /* \"#utility.yul\":8070:8073   */\n  dup4\n    /* \"#utility.yul\":8064:8068   */\n  dup4\n    /* \"#utility.yul\":8045:8074   */\n  tag_78\n  jump\t// in\ntag_186:\n    /* \"#utility.yul\":8037:8074   */\n  swap2\n  pop\n    /* \"#utility.yul\":8107:8110   */\n  dup3\n    /* \"#utility.yul\":8104:8105   */\n  0x02\n    /* \"#utility.yul\":8100:8111   */\n  mul\n    /* \"#utility.yul\":8094:8098   */\n  dup3\n    /* \"#utility.yul\":8091:8112   */\n  or\n    /* \"#utility.yul\":8083:8112   */\n  swap1\n  pop\n    /* \"#utility.yul\":7823:8118   */\n  swap3\n  swap2\n  pop\n  pop\n  jump\t// out\n    /* \"#utility.yul\":8123:9518   */\ntag_9:\n    /* \"#utility.yul\":8240:8277   */\n  tag_188\n    /* \"#utility.yul\":8273:8276   */\n  dup3\n    /* \"#utility.yul\":8240:8277   */\n  tag_62\n  jump\t// in\ntag_188:\n    /* \"#utility.yul\":8342:8360   */\n  0xffffffffffffffff\n    /* \"#utility.yul\":8334:8340   */\n  dup2\n    /* \"#utility.yul\":8331:8361   */\n  gt\n    /* \"#utility.yul\":8328:8384   */\n  iszero\n  tag_189\n  jumpi\n    /* \"#utility.yul\":8364:8382   */\n  tag_190\n  tag_49\n  jump\t// in\ntag_190:\n    /* \"#utility.yul\":8328:8384   */\ntag_189:\n    /* \"#utility.yul\":8408:8446   */\n  tag_191\n    /* \"#utility.yul\":8440:8444   */\n  dup3\n    /* \"#utility.yul\":8434:8445   */\n  sload\n    /* \"#utility.yul\":8408:8446   */\n  tag_64\n  jump\t// in\ntag_191:\n    /* \"#utility.yul\":8493:8560   */\n  tag_192\n    /* \"#utility.yul\":8553:8559   */\n  dup3\n    /* \"#utility.yul\":8545:8551   */\n  dup3\n    /* \"#utility.yul\":8539:8543   */\n  dup6\n    /* \"#utility.yul\":8493:8560   */\n  tag_76\n  jump\t// in\ntag_192:\n    /* \"#utility.yul\":8587:8588   */\n  0x00\n    /* \"#utility.yul\":8611:8615   */\n  0x20\n    /* \"#utility.yul\":8598:8615   */\n  swap1\n  pop\n    /* \"#utility.yul\":8643:8645   */\n  0x1f\n    /* \"#utility.yul\":8635:8641   */\n  dup4\n    /* \"#utility.yul\":8632:8646   */\n  gt\n    /* \"#utility.yul\":8660:8661   */\n  0x01\n    /* \"#utility.yul\":8655:9273   */\n  dup2\n  eq\n  tag_194\n  jumpi\n    /* \"#utility.yul\":9317:9318   */\n  0x00\n    /* \"#utility.yul\":9334:9340   */\n  dup5\n    /* \"#utility.yul\":9331:9408   */\n  iszero\n  tag_195\n  jumpi\n    /* \"#utility.yul\":9383:9392   */\n  dup3\n    /* \"#utility.yul\":9378:9381   */\n  dup8\n    /* \"#utility.yul\":9374:9393   */\n  add\n    /* \"#utility.yul\":9368:9394   */\n  mload\n    /* \"#utility.yul\":9359:9394   */\n  swap1\n  pop\n    /* \"#utility.yul\":9331:9408   */\ntag_195:\n    /* \"#utility.yul\":9434:9501   */\n  tag_196\n    /* \"#utility.yul\":9494:9500   */\n  dup6\n    /* \"#utility.yul\":9487:9492   */\n  dup3\n    /* \"#utility.yul\":9434:9501   */\n  tag_79\n  jump\t// in\ntag_196:\n    /* \"#utility.yul\":9428:9432   */\n  dup7\n    /* \"#utility.yul\":9421:9502   */\n  sstore\n    /* \"#utility.yul\":9290:9512   */\n  pop\n    /* \"#utility.yul\":8625:9512   */\n  jump(tag_193)\n    /* \"#utility.yul\":8655:9273   */\ntag_194:\n    /* \"#utility.yul\":8707:8711   */\n  0x1f\n    /* \"#utility.yul\":8703:8712   */\n  not\n    /* \"#utility.yul\":8695:8701   */\n  dup5\n    /* \"#utility.yul\":8691:8713   */\n  and\n    /* \"#utility.yul\":8741:8778   */\n  tag_197\n    /* \"#utility.yul\":8773:8777   */\n  dup7\n    /* \"#utility.yul\":8741:8778   */\n  tag_65\n  jump\t// in\ntag_197:\n    /* \"#utility.yul\":8800:8801   */\n  0x00\n    /* \"#utility.yul\":8814:9022   */\ntag_198:\n    /* \"#utility.yul\":8828:8835   */\n  dup3\n    /* \"#utility.yul\":8825:8826   */\n  dup2\n    /* \"#utility.yul\":8822:8836   */\n  lt\n    /* \"#utility.yul\":8814:9022   */\n  iszero\n  tag_200\n  jumpi\n    /* \"#utility.yul\":8907:8916   */\n  dup5\n    /* \"#utility.yul\":8902:8905   */\n  dup10\n    /* \"#utility.yul\":8898:8917   */\n  add\n    /* \"#utility.yul\":8892:8918   */\n  mload\n    /* \"#utility.yul\":8884:8890   */\n  dup3\n    /* \"#utility.yul\":8877:8919   */\n  sstore\n    /* \"#utility.yul\":8958:8959   */\n  0x01\n    /* \"#utility.yul\":8950:8956   */\n  dup3\n    /* \"#utility.yul\":8946:8960   */\n  add\n    /* \"#utility.yul\":8936:8960   */\n  swap2\n  pop\n    /* \"#utility.yul\":9005:9007   */\n  0x20\n    /* \"#utility.yul\":8994:9003   */\n  dup6\n    /* \"#utility.yul\":8990:9008   */\n  add\n    /* \"#utility.yul\":8977:9008   */\n  swap5\n  pop\n    /* \"#utility.yul\":8851:8855   */\n  0x20\n    /* \"#utility.yul\":8848:8849   */\n  dup2\n    /* \"#utility.yul\":8844:8856   */\n  add\n    /* \"#utility.yul\":8839:8856   */\n  swap1\n  pop\n    /* \"#utility.yul\":8814:9022   */\n  jump(tag_198)\ntag_200:\n    /* \"#utility.yul\":9050:9056   */\n  dup7\n    /* \"#utility.yul\":9041:9048   */\n  dup4\n    /* \"#utility.yul\":9038:9057   */\n  lt\n    /* \"#utility.yul\":9035:9214   */\n  iszero\n  tag_201\n  jumpi\n    /* \"#utility.yul\":9108:9117   */\n  dup5\n    /* \"#utility.yul\":9103:9106   */\n  dup10\n    /* \"#utility.yul\":9099:9118   */\n  add\n    /* \"#utility.yul\":9093:9119   */\n  mload\n    /* \"#utility.yul\":9151:9199   */\n  tag_202\n    /* \"#utility.yul\":9193:9197   */\n  0x1f\n    /* \"#utility.yul\":9185:9191   */\n  dup10\n    /* \"#utility.yul\":9181:9198   */\n  and\n    /* \"#utility.yul\":9170:9179   */\n  dup3\n    /* \"#utility.yul\":9151:9199   */\n  tag_78\n  jump\t// in\ntag_202:\n    /* \"#utility.yul\":9143:9149   */\n  dup4\n    /* \"#utility.yul\":9136:9200   */\n  sstore\n    /* \"#utility.yul\":9058:9214   */\n  pop\n    /* \"#utility.yul\":9035:9214   */\ntag_201:\n    /* \"#utility.yul\":9260:9261   */\n  0x01\n    /* \"#utility.yul\":9256:9257   */\n  0x02\n    /* \"#utility.yul\":9248:9254   */\n  dup9\n    /* \"#utility.yul\":9244:9258   */\n  mul\n    /* \"#utility.yul\":9240:9262   */\n  add\n    /* \"#utility.yul\":9234:9238   */\n  dup9\n    /* \"#utility.yul\":9227:9263   */\n  sstore\n    /* \"#utility.yul\":8662:9273   */\n  pop\n  pop\n  pop\n    /* \"#utility.yul\":8625:9512   */\ntag_193:\n  pop\n    /* \"#utility.yul\":8215:9518   */\n  pop\n  pop\n  pop\n    /* \"#utility.yul\":8123:9518   */\n  pop\n  pop\n  jump\t// out\n    /* \"#utility.yul\":9524:9704   */\ntag_80:\n    /* \"#utility.yul\":9572:9649   */\n  0x4e487b7100000000000000000000000000000000000000000000000000000000\n    /* \"#utility.yul\":9569:9570   */\n  0x00\n    /* \"#utility.yul\":9562:9650   */\n  mstore\n    /* \"#utility.yul\":9669:9673   */\n  0x11\n    /* \"#utility.yul\":9666:9667   */\n  0x04\n    /* \"#utility.yul\":9659:9674   */\n  mstore\n    /* \"#utility.yul\":9693:9697   */\n  0x24\n    /* \"#utility.yul\":9690:9691   */\n  0x00\n    /* \"#utility.yul\":9683:9698   */\n  revert\n    /* \"#utility.yul\":9710:9812   */\ntag_81:\n    /* \"#utility.yul\":9752:9760   */\n  0x00\n    /* \"#utility.yul\":9799:9804   */\n  dup2\n    /* \"#utility.yul\":9796:9797   */\n  0x01\n    /* \"#utility.yul\":9792:9805   */\n  shr\n    /* \"#utility.yul\":9771:9805   */\n  swap1\n  pop\n    /* \"#utility.yul\":9710:9812   */\n  swap2\n  swap1\n  pop\n  jump\t// out\n    /* \"#utility.yul\":9818:10666   */\ntag_82:\n    /* \"#utility.yul\":9879:9884   */\n  0x00\n    /* \"#utility.yul\":9886:9890   */\n  dup1\n    /* \"#utility.yul\":9910:9916   */\n  dup3\n    /* \"#utility.yul\":9901:9916   */\n  swap2\n  pop\n    /* \"#utility.yul\":9934:9939   */\n  dup4\n    /* \"#utility.yul\":9925:9939   */\n  swap1\n  pop\n    /* \"#utility.yul\":9948:10660   */\ntag_206:\n    /* \"#utility.yul\":9969:9970   */\n  0x01\n    /* \"#utility.yul\":9959:9967   */\n  dup6\n    /* \"#utility.yul\":9956:9971   */\n  gt\n    /* \"#utility.yul\":9948:10660   */\n  iszero\n  tag_208\n  jumpi\n    /* \"#utility.yul\":10064:10068   */\n  dup1\n    /* \"#utility.yul\":10059:10062   */\n  dup7\n    /* \"#utility.yul\":10055:10069   */\n  div\n    /* \"#utility.yul\":10049:10053   */\n  dup2\n    /* \"#utility.yul\":10046:10070   */\n  gt\n    /* \"#utility.yul\":10043:10093   */\n  iszero\n  tag_209\n  jumpi\n    /* \"#utility.yul\":10073:10091   */\n  tag_210\n  tag_80\n  jump\t// in\ntag_210:\n    /* \"#utility.yul\":10043:10093   */\ntag_209:\n    /* \"#utility.yul\":10123:10124   */\n  0x01\n    /* \"#utility.yul\":10113:10121   */\n  dup6\n    /* \"#utility.yul\":10109:10125   */\n  and\n    /* \"#utility.yul\":10106:10557   */\n  iszero\n  tag_211\n  jumpi\n    /* \"#utility.yul\":10538:10542   */\n  dup1\n    /* \"#utility.yul\":10531:10536   */\n  dup3\n    /* \"#utility.yul\":10527:10543   */\n  mul\n    /* \"#utility.yul\":10518:10543   */\n  swap2\n  pop\n    /* \"#utility.yul\":10106:10557   */\ntag_211:\n    /* \"#utility.yul\":10588:10592   */\n  dup1\n    /* \"#utility.yul\":10582:10586   */\n  dup2\n    /* \"#utility.yul\":10578:10593   */\n  mul\n    /* \"#utility.yul\":10570:10593   */\n  swap1\n  pop\n    /* \"#utility.yul\":10618:10650   */\n  tag_212\n    /* \"#utility.yul\":10641:10649   */\n  dup6\n    /* \"#utility.yul\":10618:10650   */\n  tag_81\n  jump\t// in\ntag_212:\n    /* \"#utility.yul\":10606:10650   */\n  swap5\n  pop\n    /* \"#utility.yul\":9948:10660   */\n  jump(tag_206)\ntag_208:\n    /* \"#utility.yul\":9818:10666   */\n  swap5\n  pop\n  swap5\n  swap3\n  pop\n  pop\n  pop\n  jump\t// out\n    /* \"#utility.yul\":10672:11745   */\ntag_83:\n    /* \"#utility.yul\":10726:10731   */\n  0x00\n    /* \"#utility.yul\":10917:10925   */\n  dup3\n    /* \"#utility.yul\":10907:10947   */\n  tag_214\n  jumpi\n    /* \"#utility.yul\":10938:10939   */\n  0x01\n    /* \"#utility.yul\":10929:10939   */\n  swap1\n  pop\n    /* \"#utility.yul\":10940:10945   */\n  jump(tag_213)\n    /* \"#utility.yul\":10907:10947   */\ntag_214:\n    /* \"#utility.yul\":10966:10970   */\n  dup2\n    /* \"#utility.yul\":10956:10992   */\n  tag_215\n  jumpi\n    /* \"#utility.yul\":10983:10984   */\n  0x00\n    /* \"#utility.yul\":10974:10984   */\n  swap1\n  pop\n    /* \"#utility.yul\":10985:10990   */\n  jump(tag_213)\n    /* \"#utility.yul\":10956:10992   */\ntag_215:\n    /* \"#utility.yul\":11052:11056   */\n  dup2\n    /* \"#utility.yul\":11100:11101   */\n  0x01\n    /* \"#utility.yul\":11095:11122   */\n  dup2\n  eq\n  tag_217\n  jumpi\n    /* \"#utility.yul\":11136:11137   */\n  0x02\n    /* \"#utility.yul\":11131:11322   */\n  dup2\n  eq\n  tag_218\n  jumpi\n    /* \"#utility.yul\":11045:11322   */\n  jump(tag_216)\n    /* \"#utility.yul\":11095:11122   */\ntag_217:\n    /* \"#utility.yul\":11113:11114   */\n  0x01\n    /* \"#utility.yul\":11104:11114   */\n  swap2\n  pop\n    /* \"#utility.yul\":11115:11120   */\n  pop\n  jump(tag_213)\n    /* \"#utility.yul\":11131:11322   */\ntag_218:\n    /* \"#utility.yul\":11176:11179   */\n  0xff\n    /* \"#utility.yul\":11166:11174   */\n  dup5\n    /* \"#utility.yul\":11163:11180   */\n  gt\n    /* \"#utility.yul\":11160:11203   */\n  iszero\n  tag_219\n  jumpi\n    /* \"#utility.yul\":11183:11201   */\n  tag_220\n  tag_80\n  jump\t// in\ntag_220:\n    /* \"#utility.yul\":11160:11203   */\ntag_219:\n    /* \"#utility.yul\":11232:11240   */\n  dup4\n    /* \"#utility.yul\":11229:11230   */\n  0x02\n    /* \"#utility.yul\":11225:11241   */\n  exp\n    /* \"#utility.yul\":11216:11241   */\n  swap2\n  pop\n    /* \"#utility.yul\":11267:11270   */\n  dup5\n    /* \"#utility.yul\":11260:11265   */\n  dup3\n    /* \"#utility.yul\":11257:11271   */\n  gt\n    /* \"#utility.yul\":11254:11294   */\n  iszero\n  tag_221\n  jumpi\n    /* \"#utility.yul\":11274:11292   */\n  tag_222\n  tag_80\n  jump\t// in\ntag_222:\n    /* \"#utility.yul\":11254:11294   */\ntag_221:\n    /* \"#utility.yul\":11307:11312   */\n  pop\n  jump(tag_213)\n    /* \"#utility.yul\":11045:11322   */\ntag_216:\n  pop\n    /* \"#utility.yul\":11431:11433   */\n  0x20\n    /* \"#utility.yul\":11421:11429   */\n  dup4\n    /* \"#utility.yul\":11418:11434   */\n  lt\n    /* \"#utility.yul\":11412:11415   */\n  0x0133\n    /* \"#utility.yul\":11406:11410   */\n  dup4\n    /* \"#utility.yul\":11403:11416   */\n  lt\n    /* \"#utility.yul\":11399:11435   */\n  and\n    /* \"#utility.yul\":11381:11383   */\n  0x4e\n    /* \"#utility.yul\":11371:11379   */\n  dup5\n    /* \"#utility.yul\":11368:11384   */\n  lt\n    /* \"#utility.yul\":11363:11365   */\n  0x0b\n    /* \"#utility.yul\":11357:11361   */\n  dup5\n    /* \"#utility.yul\":11354:11366   */\n  lt\n    /* \"#utility.yul\":11350:11385   */\n  and\n    /* \"#utility.yul\":11334:11445   */\n  or\n    /* \"#utility.yul\":11331:11577   */\n  iszero\n  tag_223\n  jumpi\n    /* \"#utility.yul\":11487:11495   */\n  dup3\n    /* \"#utility.yul\":11481:11485   */\n  dup3\n    /* \"#utility.yul\":11477:11496   */\n  exp\n    /* \"#utility.yul\":11468:11496   */\n  swap1\n  pop\n    /* \"#utility.yul\":11522:11525   */\n  dup4\n    /* \"#utility.yul\":11515:11520   */\n  dup2\n    /* \"#utility.yul\":11512:11526   */\n  gt\n    /* \"#utility.yul\":11509:11549   */\n  iszero\n  tag_224\n  jumpi\n    /* \"#utility.yul\":11529:11547   */\n  tag_225\n  tag_80\n  jump\t// in\ntag_225:\n    /* \"#utility.yul\":11509:11549   */\ntag_224:\n    /* \"#utility.yul\":11562:11567   */\n  jump(tag_213)\n    /* \"#utility.yul\":11331:11577   */\ntag_223:\n    /* \"#utility.yul\":11602:11644   */\n  tag_226\n    /* \"#utility.yul\":11640:11643   */\n  dup5\n    /* \"#utility.yul\":11630:11638   */\n  dup5\n    /* \"#utility.yul\":11624:11628   */\n  dup5\n    /* \"#utility.yul\":11621:11622   */\n  0x01\n    /* \"#utility.yul\":11602:11644   */\n  tag_82\n  jump\t// in\ntag_226:\n    /* \"#utility.yul\":11587:11644   */\n  swap3\n  pop\n  swap1\n  pop\n    /* \"#utility.yul\":11676:11680   */\n  dup2\n    /* \"#utility.yul\":11671:11674   */\n  dup5\n    /* \"#utility.yul\":11667:11681   */\n  div\n    /* \"#utility.yul\":11660:11665   */\n  dup2\n    /* \"#utility.yul\":11657:11682   */\n  gt\n    /* \"#utility.yul\":11654:11705   */\n  iszero\n  tag_227\n  jumpi\n    /* \"#utility.yul\":11685:11703   */\n  tag_228\n  tag_80\n  jump\t// in\ntag_228:\n    /* \"#utility.yul\":11654:11705   */\ntag_227:\n    /* \"#utility.yul\":11734:11738   */\n  dup2\n    /* \"#utility.yul\":11727:11732   */\n  dup2\n    /* \"#utility.yul\":11723:11739   */\n  mul\n    /* \"#utility.yul\":11714:11739   */\n  swap1\n  pop\n    /* \"#utility.yul\":10672:11745   */\ntag_213:\n  swap4\n  swap3\n  pop\n  pop\n  pop\n  jump\t// out\n    /* \"#utility.yul\":11751:12032   */\ntag_20:\n    /* \"#utility.yul\":11809:11814   */\n  0x00\n    /* \"#utility.yul\":11833:11856   */\n  tag_230\n    /* \"#utility.yul\":11851:11855   */\n  dup3\n    /* \"#utility.yul\":11833:11856   */\n  tag_59\n  jump\t// in\ntag_230:\n    /* \"#utility.yul\":11825:11856   */\n  swap2\n  pop\n    /* \"#utility.yul\":11877:11902   */\n  tag_231\n    /* \"#utility.yul\":11893:11901   */\n  dup4\n    /* \"#utility.yul\":11877:11902   */\n  tag_56\n  jump\t// in\ntag_231:\n    /* \"#utility.yul\":11865:11902   */\n  swap3\n  pop\n    /* \"#utility.yul\":11921:12025   */\n  tag_232\n    /* \"#utility.yul\":11958:12024   */\n  0xffffffffffffffffffffffffffffffffffffffffffffffffffffffffffffffff\n    /* \"#utility.yul\":11948:11956   */\n  dup5\n    /* \"#utility.yul\":11942:11946   */\n  dup5\n    /* \"#utility.yul\":11921:12025   */\n  tag_83\n  jump\t// in\ntag_232:\n    /* \"#utility.yul\":11912:12025   */\n  swap1\n  pop\n    /* \"#utility.yul\":11751:12032   */\n  swap3\n  swap2\n  pop\n  pop\n  jump\t// out\n    /* \"#utility.yul\":12038:12448   */\ntag_22:\n    /* \"#utility.yul\":12078:12085   */\n  0x00\n    /* \"#utility.yul\":12101:12121   */\n  tag_234\n    /* \"#utility.yul\":12119:12120   */\n  dup3\n    /* \"#utility.yul\":12101:12121   */\n  tag_59\n  jump\t// in\ntag_234:\n    /* \"#utility.yul\":12096:12121   */\n  swap2\n  pop\n    /* \"#utility.yul\":12135:12155   */\n  tag_235\n    /* \"#utility.yul\":12153:12154   */\n  dup4\n    /* \"#utility.yul\":12135:12155   */\n  tag_59\n  jump\t// in\ntag_235:\n    /* \"#utility.yul\":12130:12155   */\n  swap3\n  pop\n    /* \"#utility.yul\":12190:12191   */\n  dup3\n    /* \"#utility.yul\":12187:12188   */\n  dup3\n    /* \"#utility.yul\":12183:12192   */\n  mul\n    /* \"#utility.yul\":12212:12242   */\n  tag_236\n    /* \"#utility.yul\":12230:12241   */\n  dup2\n    /* \"#utility.yul\":12212:12242   */\n  tag_59\n  jump\t// in\ntag_236:\n    /* \"#utility.yul\":12201:12242   */\n  swap2\n  pop\n    /* \"#utility.yul\":12391:12392   */\n  dup3\n    /* \"#utility.yul\":12382:12389   */\n  dup3\n    /* \"#utility.yul\":12378:12393   */\n  div\n    /* \"#utility.yul\":12375:12376   */\n  dup5\n    /* \"#utility.yul\":12372:12394   */\n  eq\n    /* \"#utility.yul\":12352:12353   */\n  dup4\n    /* \"#utility.yul\":12345:12354   */\n  iszero\n    /* \"#utility.yul\":12325:12408   */\n  or\n    /* \"#utility.yul\":12302:12441   */\n  tag_237\n  jumpi\n    /* \"#utility.yul\":12421:12439   */\n  tag_238\n  tag_80\n  jump\t// in\ntag_238:\n    /* \"#utility.yul\":12302:12441   */\ntag_237:\n    /* \"#utility.yul\":12086:12448   */\n  pop\n    /* \"#utility.yul\":12038:12448   */\n  swap3\n  swap2\n  pop\n  pop\n  jump\t// out\n    /* \"#utility.yul\":12454:12623   */\ntag_84:\n    /* \"#utility.yul\":12538:12549   */\n  0x00\n    /* \"#utility.yul\":12572:12578   */\n  dup3\n    /* \"#utility.yul\":12567:12570   */\n  dup3\n    /* \"#utility.yul\":12560:12579   */\n  mstore\n    /* \"#utility.yul\":12612:12616   */\n  0x20\n    /* \"#utility.yul\":12607:12610   */\n  dup3\n    /* \"#utility.yul\":12603:12617   */\n  add\n    /* \"#utility.yul\":12588:12617   */\n  swap1\n  pop\n    /* \"#utility.yul\":12454:12623   */\n  swap3\n  swap2\n  pop\n  pop\n  jump\t// out\n    /* \"#utility.yul\":12629:12810   */\ntag_85:\n    /* \"#utility.yul\":12769:12802   */\n  0x45524332303a206d696e7420746f20746865207a65726f206164647265737300\n    /* \"#utility.yul\":12765:12766   */\n  0x00\n    /* \"#utility.yul\":12757:12763   */\n  dup3\n    /* \"#utility.yul\":12753:12767   */\n  add\n    /* \"#utility.yul\":12746:12803   */\n  mstore\n    /* \"#utility.yul\":12629:12810   */\n  pop\n  jump\t// out\n    /* \"#utility.yul\":12816:13182   */\ntag_86:\n    /* \"#utility.yul\":12958:12961   */\n  0x00\n    /* \"#utility.yul\":12979:13046   */\n  tag_242\n    /* \"#utility.yul\":13043:13045   */\n  0x1f\n    /* \"#utility.yul\":13038:13041   */\n  dup4\n    /* \"#utility.yul\":12979:13046   */\n  tag_84\n  jump\t// in\ntag_242:\n    /* \"#utility.yul\":12972:13046   */\n  swap2\n  pop\n    /* \"#utility.yul\":13055:13148   */\n  tag_243\n    /* \"#utility.yul\":13144:13147   */\n  dup3\n    /* \"#utility.yul\":13055:13148   */\n  tag_85\n  jump\t// in\ntag_243:\n    /* \"#utility.yul\":13173:13175   */\n  0x20\n    /* \"#utility.yul\":13168:13171   */\n  dup3\n    /* \"#utility.yul\":13164:13176   */\n  add\n    /* \"#utility.yul\":13157:13176   */\n  swap1\n  pop\n    /* \"#utility.yul\":12816:13182   */\n  swap2\n  swap1\n  pop\n  jump\t// out\n    /* \"#utility.yul\":13188:13607   */\ntag_32:\n    /* \"#utility.yul\":13354:13358   */\n  0x00\n    /* \"#utility.yul\":13392:13394   */\n  0x20\n    /* \"#utility.yul\":13381:13390   */\n  dup3\n    /* \"#utility.yul\":13377:13395   */\n  add\n    /* \"#utility.yul\":13369:13395   */\n  swap1\n  pop\n    /* \"#utility.yul\":13441:13450   */\n  dup2\n    /* \"#utility.yul\":13435:13439   */\n  dup2\n    /* \"#utility.yul\":13431:13451   */\n  sub\n    /* \"#utility.yul\":13427:13428   */\n  0x00\n    /* \"#utility.yul\":13416:13425   */\n  dup4\n    /* \"#utility.yul\":13412:13429   */\n  add\n    /* \"#utility.yul\":13405:13452   */\n  mstore\n    /* \"#utility.yul\":13469:13600   */\n  tag_245\n    /* \"#utility.yul\":13595:13599   */\n  dup2\n    /* \"#utility.yul\":13469:13600   */\n  tag_86\n  jump\t// in\ntag_245:\n    /* \"#utility.yul\":13461:13600   */\n  swap1\n  pop\n    /* \"#utility.yul\":13188:13607   */\n  swap2\n  swap1\n  pop\n  jump\t// out\n    /* \"#utility.yul\":13613:13804   */\ntag_36:\n    /* \"#utility.yul\":13653:13656   */\n  0x00\n    /* \"#utility.yul\":13672:13692   */\n  tag_247\n    /* \"#utility.yul\":13690:13691   */\n  dup3\n    /* \"#utility.yul\":13672:13692   */\n  tag_59\n  jump\t// in\ntag_247:\n    /* \"#utility.yul\":13667:13692   */\n  swap2\n  pop\n    /* \"#utility.yul\":13706:13726   */\n  tag_248\n    /* \"#utility.yul\":13724:13725   */\n  dup4\n    /* \"#utility.yul\":13706:13726   */\n  tag_59\n  jump\t// in\ntag_248:\n    /* \"#utility.yul\":13701:13726   */\n  swap3\n  pop\n    /* \"#utility.yul\":13749:13750   */\n  dup3\n    /* \"#utility.yul\":13746:13747   */\n  dup3\n    /* \"#utility.yul\":13742:13751   */\n  add\n    /* \"#utility.yul\":13735:13751   */\n  swap1\n  pop\n    /* \"#utility.yul\":13770:13773   */\n  dup1\n    /* \"#utility.yul\":13767:13768   */\n  dup3\n    /* \"#utility.yul\":13764:13774   */\n  gt\n    /* \"#utility.yul\":13761:13797   */\n  iszero\n  tag_249\n  jumpi\n    /* \"#utility.yul\":13777:13795   */\n  tag_250\n  tag_80\n  jump\t// in\ntag_250:\n    /* \"#utility.yul\":13761:13797   */\ntag_249:\n    /* \"#utility.yul\":13613:13804   */\n  swap3\n  swap2\n  pop\n  pop\n  jump\t// out\n    /* \"#utility.yul\":13810:13928   */\ntag_87:\n    /* \"#utility.yul\":13897:13921   */\n  tag_252\n    /* \"#utility.yul\":13915:13920   */\n  dup2\n    /* \"#utility.yul\":13897:13921   */\n  tag_59\n  jump\t// in\ntag_252:\n    /* \"#utility.yul\":13892:13895   */\n  dup3\n    /* \"#utility.yul\":13885:13922   */\n  mstore\n    /* \"#utility.yul\":13810:13928   */\n  pop\n  pop\n  jump\t// out\n    /* \"#utility.yul\":13934:14156   */\ntag_38:\n    /* \"#utility.yul\":14027:14031   */\n  0x00\n    /* \"#utility.yul\":14065:14067   */\n  0x20\n    /* \"#utility.yul\":14054:14063   */\n  dup3\n    /* \"#utility.yul\":14050:14068   */\n  add\n    /* \"#utility.yul\":14042:14068   */\n  swap1\n  pop\n    /* \"#utility.yul\":14078:14149   */\n  tag_254\n    /* \"#utility.yul\":14146:14147   */\n  0x00\n    /* \"#utility.yul\":14135:14144   */\n  dup4\n    /* \"#utility.yul\":14131:14148   */\n  add\n    /* \"#utility.yul\":14122:14128   */\n  dup5\n    /* \"#utility.yul\":14078:14149   */\n  tag_87\n  jump\t// in\ntag_254:\n    /* \"#utility.yul\":13934:14156   */\n  swap3\n  swap2\n  pop\n  pop\n  jump\t// out\n    /* \"token/Contract_flattened.sol\":8520:8814  contract UnfetteredEcosystem is ERC20Burnable, Ownable {... */\ntag_25:\n  dataSize(sub_0)\n  dup1\n  dataOffset(sub_0)\n  0x00\n  codecopy\n  0x00\n  return\nstop\n\nsub_0: assembly {\n        /* \"token/Contract_flattened.sol\":8520:8814  contract UnfetteredEcosystem is ERC20Burnable, Ownable {... */\n      mstore(0x40, 0x80)\n      callvalue\n      dup1\n      iszero\n      tag_1\n      jumpi\n      0x00\n      dup1\n      revert\n    tag_1:\n      pop\n      jumpi(tag_2, lt(calldatasize, 0x04))\n      shr(0xe0, calldataload(0x00))\n      dup1\n      0x715018a6\n      gt\n      tag_19\n      jumpi\n      dup1\n      0xa457c2d7\n      gt\n      tag_20\n      jumpi\n      dup1\n      0xa457c2d7\n      eq\n      tag_15\n      jumpi\n      dup1\n      0xa9059cbb\n      eq\n      tag_16\n      jumpi\n      dup1\n      0xdd62ed3e\n      eq\n      tag_17\n      jumpi\n      dup1\n      0xf2fde38b\n      eq\n      tag_18\n      jumpi\n      jump(tag_2)\n    tag_20:\n      dup1\n      0x715018a6\n      eq\n      tag_11\n      jumpi\n      dup1\n      0x79cc6790\n      eq\n      tag_12\n      jumpi\n      dup1\n      0x8da5cb5b\n      eq\n      tag_13\n      jumpi\n      dup1\n      0x95d89b41\n      eq\n      tag_14\n      jumpi\n      jump(tag_2)\n    tag_19:\n      dup1\n      0x313ce567\n      gt\n      tag_21\n      jumpi\n      dup1\n      0x313ce567\n      eq\n      tag_7\n      jumpi\n      dup1\n      0x39509351\n      eq\n      tag_8\n      jumpi\n      dup1\n      0x42966c68\n      eq\n      tag_9\n      jumpi\n      dup1\n      0x70a08231\n      eq\n      tag_10\n      jumpi\n      jump(tag_2)\n    tag_21:\n      dup1\n      0x06fdde03\n      eq\n      tag_3\n      jumpi\n      dup1\n      0x095ea7b3\n      eq\n      tag_4\n      jumpi\n      dup1\n      0x18160ddd\n      eq\n      tag_5\n      jumpi\n      dup1\n      0x23b872dd\n      eq\n      tag_6\n      jumpi\n    tag_2:\n      0x00\n      dup1\n      revert\n        /* \"token/Contract_flattened.sol\":1908:2008  function name() public view virtual override returns (string memory) {... */\n    tag_3:\n      tag_22\n      tag_23\n      jump\t// in\n    tag_22:\n      mload(0x40)\n      tag_24\n      swap2\n      swap1\n      tag_25\n      jump\t// in\n    tag_24:\n      mload(0x40)\n      dup1\n      swap2\n      sub\n      swap1\n      return\n        /* \"token/Contract_flattened.sol\":2846:3047  function approve(address spender, uint256 amount) public virtual override returns (bool) {... */\n    tag_4:\n      tag_26\n      0x04\n      dup1\n      calldatasize\n      sub\n      dup2\n      add\n      swap1\n      tag_27\n      swap2\n      swap1\n      tag_28\n      jump\t// in\n    tag_27:\n      tag_29\n      jump\t// in\n    tag_26:\n      mload(0x40)\n      tag_30\n      swap2\n      swap1\n      tag_31\n      jump\t// in\n    tag_30:\n      mload(0x40)\n      dup1\n      swap2\n      sub\n      swap1\n      return\n        /* \"token/Contract_flattened.sol\":2235:2343  function totalSupply() public view virtual override returns (uint256) {... */\n    tag_5:\n      tag_32\n      tag_33\n      jump\t// in\n    tag_32:\n      mload(0x40)\n      tag_34\n      swap2\n      swap1\n      tag_35\n      jump\t// in\n    tag_34:\n      mload(0x40)\n      dup1\n      swap2\n      sub\n      swap1\n      return\n        /* \"token/Contract_flattened.sol\":3055:3316  function transferFrom(address from, address to, uint256 amount) public virtual override returns (bool) {... */\n    tag_6:\n      tag_36\n      0x04\n      dup1\n      calldatasize\n      sub\n      dup2\n      add\n      swap1\n      tag_37\n      swap2\n      swap1\n      tag_38\n      jump\t// in\n    tag_37:\n      tag_39\n      jump\t// in\n    tag_36:\n      mload(0x40)\n      tag_40\n      swap2\n      swap1\n      tag_31\n      jump\t// in\n    tag_40:\n      mload(0x40)\n      dup1\n      swap2\n      sub\n      swap1\n      return\n        /* \"token/Contract_flattened.sol\":2128:2227  function decimals() public view virtual override returns (uint8) {... */\n    tag_7:\n      tag_41\n      tag_42\n      jump\t// in\n    tag_41:\n      mload(0x40)\n      tag_43\n      swap2\n      swap1\n      tag_44\n      jump\t// in\n    tag_43:\n      mload(0x40)\n      dup1\n      swap2\n      sub\n      swap1\n      return\n        /* \"token/Contract_flattened.sol\":3324:3562  function increaseAllowance(address spender, uint256 addedValue) public virtual returns (bool) {... */\n    tag_8:\n      tag_45\n      0x04\n      dup1\n      calldatasize\n      sub\n      dup2\n      add\n      swap1\n      tag_46\n      swap2\n      swap1\n      tag_28\n      jump\t// in\n    tag_46:\n      tag_47\n      jump\t// in\n    tag_45:\n      mload(0x40)\n      tag_48\n      swap2\n      swap1\n      tag_31\n      jump\t// in\n    tag_48:\n      mload(0x40)\n      dup1\n      swap2\n      sub\n      swap1\n      return\n        /* \"token/Contract_flattened.sol\":7057:7148  function burn(uint256 amount) public virtual {... */\n    tag_9:\n      tag_49\n      0x04\n      dup1\n      calldatasize\n      sub\n      dup2\n      add\n      swap1\n      tag_50\n      swap2\n      swap1\n      tag_51\n      jump\t// in\n    tag_50:\n      tag_52\n      jump\t// in\n    tag_49:\n      stop\n        /* \"token/Contract_flattened.sol\":2351:2478  function balanceOf(address account) public view virtual override returns (uint256) {... */\n    tag_10:\n      tag_53\n      0x04\n      dup1\n      calldatasize\n      sub\n      dup2\n      add\n      swap1\n      tag_54\n      swap2\n      swap1\n      tag_55\n      jump\t// in\n    tag_54:\n      tag_56\n      jump\t// in\n    tag_53:\n      mload(0x40)\n      tag_57\n      swap2\n      swap1\n      tag_35\n      jump\t// in\n    tag_57:\n      mload(0x40)\n      dup1\n      swap2\n      sub\n      swap1\n      return\n        /* \"token/Contract_flattened.sol\":7938:8041  function renounceOwnership() public virtual onlyOwner {... */\n    tag_11:\n      tag_58\n      tag_59\n      jump\t// in\n    tag_58:\n      stop\n        /* \"token/Contract_flattened.sol\":7156:7320  function burnFrom(address account, uint256 amount) public virtual {... */\n    tag_12:\n      tag_60\n      0x04\n      dup1\n      calldatasize\n      sub\n      dup2\n      add\n      swap1\n      tag_61\n      swap2\n      swap1\n      tag_28\n      jump\t// in\n    tag_61:\n      tag_62\n      jump\t// in\n    tag_60:\n      stop\n        /* \"token/Contract_flattened.sol\":7703:7790  function owner() public view virtual returns (address) {... */\n    tag_13:\n      tag_63\n      tag_64\n      jump\t// in\n    tag_63:\n      mload(0x40)\n      tag_65\n      swap2\n      swap1\n      tag_66\n      jump\t// in\n    tag_65:\n      mload(0x40)\n      dup1\n      swap2\n      sub\n      swap1\n      return\n        /* \"token/Contract_flattened.sol\":2016:2120  function symbol() public view virtual override returns (string memory) {... */\n    tag_14:\n      tag_67\n      tag_68\n      jump\t// in\n    tag_67:\n      mload(0x40)\n      tag_69\n      swap2\n      swap1\n      tag_25\n      jump\t// in\n    tag_69:\n      mload(0x40)\n      dup1\n      swap2\n      sub\n      swap1\n      return\n        /* \"token/Contract_flattened.sol\":3570:4006  function decreaseAllowance(address spender, uint256 subtractedValue) public virtual returns (bool) {... */\n    tag_15:\n      tag_70\n      0x04\n      dup1\n      calldatasize\n      sub\n      dup2\n      add\n      swap1\n      tag_71\n      swap2\n      swap1\n      tag_28\n      jump\t// in\n    tag_71:\n      tag_72\n      jump\t// in\n    tag_70:\n      mload(0x40)\n      tag_73\n      swap2\n      swap1\n      tag_31\n      jump\t// in\n    tag_73:\n      mload(0x40)\n      dup1\n      swap2\n      sub\n      swap1\n      return\n        /* \"token/Contract_flattened.sol\":2486:2679  function transfer(address to, uint256 amount) public virtual override returns (bool) {... */\n    tag_16:\n      tag_74\n      0x04\n      dup1\n      calldatasize\n      sub\n      dup2\n      add\n      swap1\n      tag_75\n      swap2\n      swap1\n      tag_28\n      jump\t// in\n    tag_75:\n      tag_76\n      jump\t// in\n    tag_74:\n      mload(0x40)\n      tag_77\n      swap2\n      swap1\n      tag_31\n      jump\t// in\n    tag_77:\n      mload(0x40)\n      dup1\n      swap2\n      sub\n      swap1\n      return\n        /* \"token/Contract_flattened.sol\":2687:2838  function allowance(address owner, address spender) public view virtual override returns (uint256) {... */\n    tag_17:\n      tag_78\n      0x04\n      dup1\n      calldatasize\n      sub\n      dup2\n      add\n      swap1\n      tag_79\n      swap2\n      swap1\n      tag_80\n      jump\t// in\n    tag_79:\n      tag_81\n      jump\t// in\n    tag_78:\n      mload(0x40)\n      tag_82\n      swap2\n      swap1\n      tag_35\n      jump\t// in\n    tag_82:\n      mload(0x40)\n      dup1\n      swap2\n      sub\n      swap1\n      return\n        /* \"token/Contract_flattened.sol\":8049:8250  function transferOwnership(address newOwner) public virtual onlyOwner {... */\n    tag_18:\n      tag_83\n      0x04\n      dup1\n      calldatasize\n      sub\n      dup2\n      add\n      swap1\n      tag_84\n      swap2\n      swap1\n      tag_55\n      jump\t// in\n    tag_84:\n      tag_85\n      jump\t// in\n    tag_83:\n      stop\n        /* \"token/Contract_flattened.sol\":1908:2008  function name() public view virtual override returns (string memory) {... */\n    tag_23:\n        /* \"token/Contract_flattened.sol\":1962:1975  string memory */\n      0x60\n        /* \"token/Contract_flattened.sol\":1995:2000  _name */\n      0x03\n        /* \"token/Contract_flattened.sol\":1988:2000  return _name */\n      dup1\n      sload\n      tag_87\n      swap1\n      tag_88\n      jump\t// in\n    tag_87:\n      dup1\n      0x1f\n      add\n      0x20\n      dup1\n      swap2\n      div\n      mul\n      0x20\n      add\n      mload(0x40)\n      swap1\n      dup2\n      add\n      0x40\n      mstore\n      dup1\n      swap3\n      swap2\n      swap1\n      dup2\n      dup2\n      mstore\n      0x20\n      add\n      dup3\n      dup1\n      sload\n      tag_89\n      swap1\n      tag_88\n      jump\t// in\n    tag_89:\n      dup1\n      iszero\n      tag_90\n      jumpi\n      dup1\n      0x1f\n      lt\n      tag_91\n      jumpi\n      0x0100\n      dup1\n      dup4\n      sload\n      div\n      mul\n      dup4\n      mstore\n      swap2\n      0x20\n      add\n      swap2\n      jump(tag_90)\n    tag_91:\n      dup3\n      add\n      swap2\n      swap1\n      0x00\n      mstore\n      keccak256(0x00, 0x20)\n      swap1\n    tag_92:\n      dup2\n      sload\n      dup2\n      mstore\n      swap1\n      0x01\n      add\n      swap1\n      0x20\n      add\n      dup1\n      dup4\n      gt\n      tag_92\n      jumpi\n      dup3\n      swap1\n      sub\n      0x1f\n      and\n      dup3\n      add\n      swap2\n    tag_90:\n      pop\n      pop\n      pop\n      pop\n      pop\n      swap1\n      pop\n        /* \"token/Contract_flattened.sol\":1908:2008  function name() public view virtual override returns (string memory) {... */\n      swap1\n      jump\t// out\n        /* \"token/Contract_flattened.sol\":2846:3047  function approve(address spender, uint256 amount) public virtual override returns (bool) {... */\n    tag_29:\n        /* \"token/Contract_flattened.sol\":2929:2933  bool */\n      0x00\n        /* \"token/Contract_flattened.sol\":2946:2959  address owner */\n      dup1\n        /* \"token/Contract_flattened.sol\":2962:2974  _msgSender() */\n      tag_94\n        /* \"token/Contract_flattened.sol\":2962:2972  _msgSender */\n      tag_95\n        /* \"token/Contract_flattened.sol\":2962:2974  _msgSender() */\n      jump\t// in\n    tag_94:\n        /* \"token/Contract_flattened.sol\":2946:2974  address owner = _msgSender() */\n      swap1\n      pop\n        /* \"token/Contract_flattened.sol\":2985:3017  _approve(owner, spender, amount) */\n      tag_96\n        /* \"token/Contract_flattened.sol\":2994:2999  owner */\n      dup2\n        /* \"token/Contract_flattened.sol\":3001:3008  spender */\n      dup6\n        /* \"token/Contract_flattened.sol\":3010:3016  amount */\n      dup6\n        /* \"token/Contract_flattened.sol\":2985:2993  _approve */\n      tag_97\n        /* \"token/Contract_flattened.sol\":2985:3017  _approve(owner, spender, amount) */\n      jump\t// in\n    tag_96:\n        /* \"token/Contract_flattened.sol\":3035:3039  true */\n      0x01\n        /* \"token/Contract_flattened.sol\":3028:3039  return true */\n      swap2\n      pop\n      pop\n        /* \"token/Contract_flattened.sol\":2846:3047  function approve(address spender, uint256 amount) public virtual override returns (bool) {... */\n      swap3\n      swap2\n      pop\n      pop\n      jump\t// out\n        /* \"token/Contract_flattened.sol\":2235:2343  function totalSupply() public view virtual override returns (uint256) {... */\n    tag_33:\n        /* \"token/Contract_flattened.sol\":2296:2303  uint256 */\n      0x00\n        /* \"token/Contract_flattened.sol\":2323:2335  _totalSupply */\n      sload(0x02)\n        /* \"token/Contract_flattened.sol\":2316:2335  return _totalSupply */\n      swap1\n      pop\n        /* \"token/Contract_flattened.sol\":2235:2343  function totalSupply() public view virtual override returns (uint256) {... */\n      swap1\n      jump\t// out\n        /* \"token/Contract_flattened.sol\":3055:3316  function transferFrom(address from, address to, uint256 amount) public virtual override returns (bool) {... */\n    tag_39:\n        /* \"token/Contract_flattened.sol\":3152:3156  bool */\n      0x00\n        /* \"token/Contract_flattened.sol\":3169:3184  address spender */\n      dup1\n        /* \"token/Contract_flattened.sol\":3187:3199  _msgSender() */\n      tag_100\n        /* \"token/Contract_flattened.sol\":3187:3197  _msgSender */\n      tag_95\n        /* \"token/Contract_flattened.sol\":3187:3199  _msgSender() */\n      jump\t// in\n    tag_100:\n        /* \"token/Contract_flattened.sol\":3169:3199  address spender = _msgSender() */\n      swap1\n      pop\n        /* \"token/Contract_flattened.sol\":3210:3248  _spendAllowance(from, spender, amount) */\n      tag_101\n        /* \"token/Contract_flattened.sol\":3226:3230  from */\n      dup6\n        /* \"token/Contract_flattened.sol\":3232:3239  spender */\n      dup3\n        /* \"token/Contract_flattened.sol\":3241:3247  amount */\n      dup6\n        /* \"token/Contract_flattened.sol\":3210:3225  _spendAllowance */\n      tag_102\n        /* \"token/Contract_flattened.sol\":3210:3248  _spendAllowance(from, spender, amount) */\n      jump\t// in\n    tag_101:\n        /* \"token/Contract_flattened.sol\":3259:3286  _transfer(from, to, amount) */\n      tag_103\n        /* \"token/Contract_flattened.sol\":3269:3273  from */\n      dup6\n        /* \"token/Contract_flattened.sol\":3275:3277  to */\n      dup6\n        /* \"token/Contract_flattened.sol\":3279:3285  amount */\n      dup6\n        /* \"token/Contract_flattened.sol\":3259:3268  _transfer */\n      tag_104\n        /* \"token/Contract_flattened.sol\":3259:3286  _transfer(from, to, amount) */\n      jump\t// in\n    tag_103:\n        /* \"token/Contract_flattened.sol\":3304:3308  true */\n      0x01\n        /* \"token/Contract_flattened.sol\":3297:3308  return true */\n      swap2\n      pop\n      pop\n        /* \"token/Contract_flattened.sol\":3055:3316  function transferFrom(address from, address to, uint256 amount) public virtual override returns (bool) {... */\n      swap4\n      swap3\n      pop\n      pop\n      pop\n      jump\t// out\n        /* \"token/Contract_flattened.sol\":2128:2227  function decimals() public view virtual override returns (uint8) {... */\n    tag_42:\n        /* \"token/Contract_flattened.sol\":2186:2191  uint8 */\n      0x00\n        /* \"token/Contract_flattened.sol\":2211:2219  _decimal */\n      0x05\n      0x00\n      swap1\n      sload\n      swap1\n      0x0100\n      exp\n      swap1\n      div\n      0xff\n      and\n        /* \"token/Contract_flattened.sol\":2204:2219  return _decimal */\n      swap1\n      pop\n        /* \"token/Contract_flattened.sol\":2128:2227  function decimals() public view virtual override returns (uint8) {... */\n      swap1\n      jump\t// out\n        /* \"token/Contract_flattened.sol\":3324:3562  function increaseAllowance(address spender, uint256 addedValue) public virtual returns (bool) {... */\n    tag_47:\n        /* \"token/Contract_flattened.sol\":3412:3416  bool */\n      0x00\n        /* \"token/Contract_flattened.sol\":3429:3442  address owner */\n      dup1\n        /* \"token/Contract_flattened.sol\":3445:3457  _msgSender() */\n      tag_107\n        /* \"token/Contract_flattened.sol\":3445:3455  _msgSender */\n      tag_95\n        /* \"token/Contract_flattened.sol\":3445:3457  _msgSender() */\n      jump\t// in\n    tag_107:\n        /* \"token/Contract_flattened.sol\":3429:3457  address owner = _msgSender() */\n      swap1\n      pop\n        /* \"token/Contract_flattened.sol\":3468:3532  _approve(owner, spender, allowance(owner, spender) + addedValue) */\n      tag_108\n        /* \"token/Contract_flattened.sol\":3477:3482  owner */\n      dup2\n        /* \"token/Contract_flattened.sol\":3484:3491  spender */\n      dup6\n        /* \"token/Contract_flattened.sol\":3521:3531  addedValue */\n      dup6\n        /* \"token/Contract_flattened.sol\":3493:3518  allowance(owner, spender) */\n      tag_109\n        /* \"token/Contract_flattened.sol\":3503:3508  owner */\n      dup6\n        /* \"token/Contract_flattened.sol\":3510:3517  spender */\n      dup10\n        /* \"token/Contract_flattened.sol\":3493:3502  allowance */\n      tag_81\n        /* \"token/Contract_flattened.sol\":3493:3518  allowance(owner, spender) */\n      jump\t// in\n    tag_109:\n        /* \"token/Contract_flattened.sol\":3493:3531  allowance(owner, spender) + addedValue */\n      tag_110\n      swap2\n      swap1\n      tag_111\n      jump\t// in\n    tag_110:\n        /* \"token/Contract_flattened.sol\":3468:3476  _approve */\n      tag_97\n        /* \"token/Contract_flattened.sol\":3468:3532  _approve(owner, spender, allowance(owner, spender) + addedValue) */\n      jump\t// in\n    tag_108:\n        /* \"token/Contract_flattened.sol\":3550:3554  true */\n      0x01\n        /* \"token/Contract_flattened.sol\":3543:3554  return true */\n      swap2\n      pop\n      pop\n        /* \"token/Contract_flattened.sol\":3324:3562  function increaseAllowance(address spender, uint256 addedValue) public virtual returns (bool) {... */\n      swap3\n      swap2\n      pop\n      pop\n      jump\t// out\n        /* \"token/Contract_flattened.sol\":7057:7148  function burn(uint256 amount) public virtual {... */\n    tag_52:\n        /* \"token/Contract_flattened.sol\":7113:7140  _burn(_msgSender(), amount) */\n      tag_113\n        /* \"token/Contract_flattened.sol\":7119:7131  _msgSender() */\n      tag_114\n        /* \"token/Contract_flattened.sol\":7119:7129  _msgSender */\n      tag_95\n        /* \"token/Contract_flattened.sol\":7119:7131  _msgSender() */\n      jump\t// in\n    tag_114:\n        /* \"token/Contract_flattened.sol\":7133:7139  amount */\n      dup3\n        /* \"token/Contract_flattened.sol\":7113:7118  _burn */\n      tag_115\n        /* \"token/Contract_flattened.sol\":7113:7140  _burn(_msgSender(), amount) */\n      jump\t// in\n    tag_113:\n        /* \"token/Contract_flattened.sol\":7057:7148  function burn(uint256 amount) public virtual {... */\n      pop\n      jump\t// out\n        /* \"token/Contract_flattened.sol\":2351:2478  function balanceOf(address account) public view virtual override returns (uint256) {... */\n    tag_56:\n        /* \"token/Contract_flattened.sol\":2425:2432  uint256 */\n      0x00\n        /* \"token/Contract_flattened.sol\":2452:2461  _balances */\n      dup1\n        /* \"token/Contract_flattened.sol\":2452:2470  _balances[account] */\n      0x00\n        /* \"token/Contract_flattened.sol\":2462:2469  account */\n      dup4\n        /* \"token/Contract_flattened.sol\":2452:2470  _balances[account] */\n      0xffffffffffffffffffffffffffffffffffffffff\n      and\n      0xffffffffffffffffffffffffffffffffffffffff\n      and\n      dup2\n      mstore\n      0x20\n      add\n      swap1\n      dup2\n      mstore\n      0x20\n      add\n      0x00\n      keccak256\n      sload\n        /* \"token/Contract_flattened.sol\":2445:2470  return _balances[account] */\n      swap1\n      pop\n        /* \"token/Contract_flattened.sol\":2351:2478  function balanceOf(address account) public view virtual override returns (uint256) {... */\n      swap2\n      swap1\n      pop\n      jump\t// out\n        /* \"token/Contract_flattened.sol\":7938:8041  function renounceOwnership() public virtual onlyOwner {... */\n    tag_59:\n        /* \"token/Contract_flattened.sol\":7662:7675  _checkOwner() */\n      tag_118\n        /* \"token/Contract_flattened.sol\":7662:7673  _checkOwner */\n      tag_119\n        /* \"token/Contract_flattened.sol\":7662:7675  _checkOwner() */\n      jump\t// in\n    tag_118:\n        /* \"token/Contract_flattened.sol\":8003:8033  _transferOwnership(address(0)) */\n      tag_121\n        /* \"token/Contract_flattened.sol\":8030:8031  0 */\n      0x00\n        /* \"token/Contract_flattened.sol\":8003:8021  _transferOwnership */\n      tag_122\n        /* \"token/Contract_flattened.sol\":8003:8033  _transferOwnership(address(0)) */\n      jump\t// in\n    tag_121:\n        /* \"token/Contract_flattened.sol\":7938:8041  function renounceOwnership() public virtual onlyOwner {... */\n      jump\t// out\n        /* \"token/Contract_flattened.sol\":7156:7320  function burnFrom(address account, uint256 amount) public virtual {... */\n    tag_62:\n        /* \"token/Contract_flattened.sol\":7233:7279  _spendAllowance(account, _msgSender(), amount) */\n      tag_124\n        /* \"token/Contract_flattened.sol\":7249:7256  account */\n      dup3\n        /* \"token/Contract_flattened.sol\":7258:7270  _msgSender() */\n      tag_125\n        /* \"token/Contract_flattened.sol\":7258:7268  _msgSender */\n      tag_95\n        /* \"token/Contract_flattened.sol\":7258:7270  _msgSender() */\n      jump\t// in\n    tag_125:\n        /* \"token/Contract_flattened.sol\":7272:7278  amount */\n      dup4\n        /* \"token/Contract_flattened.sol\":7233:7248  _spendAllowance */\n      tag_102\n        /* \"token/Contract_flattened.sol\":7233:7279  _spendAllowance(account, _msgSender(), amount) */\n      jump\t// in\n    tag_124:\n        /* \"token/Contract_flattened.sol\":7290:7312  _burn(account, amount) */\n      tag_126\n        /* \"token/Contract_flattened.sol\":7296:7303  account */\n      dup3\n        /* \"token/Contract_flattened.sol\":7305:7311  amount */\n      dup3\n        /* \"token/Contract_flattened.sol\":7290:7295  _burn */\n      tag_115\n        /* \"token/Contract_flattened.sol\":7290:7312  _burn(account, amount) */\n      jump\t// in\n    tag_126:\n        /* \"token/Contract_flattened.sol\":7156:7320  function burnFrom(address account, uint256 amount) public virtual {... */\n      pop\n      pop\n      jump\t// out\n        /* \"token/Contract_flattened.sol\":7703:7790  function owner() public view virtual returns (address) {... */\n    tag_64:\n        /* \"token/Contract_flattened.sol\":7749:7756  address */\n      0x00\n        /* \"token/Contract_flattened.sol\":7776:7782  _owner */\n      0x05\n      0x01\n      swap1\n      sload\n      swap1\n      0x0100\n      exp\n      swap1\n      div\n      0xffffffffffffffffffffffffffffffffffffffff\n      and\n        /* \"token/Contract_flattened.sol\":7769:7782  return _owner */\n      swap1\n      pop\n        /* \"token/Contract_flattened.sol\":7703:7790  function owner() public view virtual returns (address) {... */\n      swap1\n      jump\t// out\n        /* \"token/Contract_flattened.sol\":2016:2120  function symbol() public view virtual override returns (string memory) {... */\n    tag_68:\n        /* \"token/Contract_flattened.sol\":2072:2085  string memory */\n      0x60\n        /* \"token/Contract_flattened.sol\":2105:2112  _symbol */\n      0x04\n        /* \"token/Contract_flattened.sol\":2098:2112  return _symbol */\n      dup1\n      sload\n      tag_129\n      swap1\n      tag_88\n      jump\t// in\n    tag_129:\n      dup1\n      0x1f\n      add\n      0x20\n      dup1\n      swap2\n      div\n      mul\n      0x20\n      add\n      mload(0x40)\n      swap1\n      dup2\n      add\n      0x40\n      mstore\n      dup1\n      swap3\n      swap2\n      swap1\n      dup2\n      dup2\n      mstore\n      0x20\n      add\n      dup3\n      dup1\n      sload\n      tag_130\n      swap1\n      tag_88\n      jump\t// in\n    tag_130:\n      dup1\n      iszero\n      tag_131\n      jumpi\n      dup1\n      0x1f\n      lt\n      tag_132\n      jumpi\n      0x0100\n      dup1\n      dup4\n      sload\n      div\n      mul\n      dup4\n      mstore\n      swap2\n      0x20\n      add\n      swap2\n      jump(tag_131)\n    tag_132:\n      dup3\n      add\n      swap2\n      swap1\n      0x00\n      mstore\n      keccak256(0x00, 0x20)\n      swap1\n    tag_133:\n      dup2\n      sload\n      dup2\n      mstore\n      swap1\n      0x01\n      add\n      swap1\n      0x20\n      add\n      dup1\n      dup4\n      gt\n      tag_133\n      jumpi\n      dup3\n      swap1\n      sub\n      0x1f\n      and\n      dup3\n      add\n      swap2\n    tag_131:\n      pop\n      pop\n      pop\n      pop\n      pop\n      swap1\n      pop\n        /* \"token/Contract_flattened.sol\":2016:2120  function symbol() public view virtual override returns (string memory) {... */\n      swap1\n      jump\t// out\n        /* \"token/Contract_flattened.sol\":3570:4006  function decreaseAllowance(address spender, uint256 subtractedValue) public virtual returns (bool) {... */\n    tag_72:\n        /* \"token/Contract_flattened.sol\":3663:3667  bool */\n      0x00\n        /* \"token/Contract_flattened.sol\":3680:3693  address owner */\n      dup1\n        /* \"token/Contract_flattened.sol\":3696:3708  _msgSender() */\n      tag_135\n        /* \"token/Contract_flattened.sol\":3696:3706  _msgSender */\n      tag_95\n        /* \"token/Contract_flattened.sol\":3696:3708  _msgSender() */\n      jump\t// in\n    tag_135:\n        /* \"token/Contract_flattened.sol\":3680:3708  address owner = _msgSender() */\n      swap1\n      pop\n        /* \"token/Contract_flattened.sol\":3719:3743  uint256 currentAllowance */\n      0x00\n        /* \"token/Contract_flattened.sol\":3746:3771  allowance(owner, spender) */\n      tag_136\n        /* \"token/Contract_flattened.sol\":3756:3761  owner */\n      dup3\n        /* \"token/Contract_flattened.sol\":3763:3770  spender */\n      dup7\n        /* \"token/Contract_flattened.sol\":3746:3755  allowance */\n      tag_81\n        /* \"token/Contract_flattened.sol\":3746:3771  allowance(owner, spender) */\n      jump\t// in\n    tag_136:\n        /* \"token/Contract_flattened.sol\":3719:3771  uint256 currentAllowance = allowance(owner, spender) */\n      swap1\n      pop\n        /* \"token/Contract_flattened.sol\":3810:3825  subtractedValue */\n      dup4\n        /* \"token/Contract_flattened.sol\":3790:3806  currentAllowance */\n      dup2\n        /* \"token/Contract_flattened.sol\":3790:3825  currentAllowance >= subtractedValue */\n      lt\n      iszero\n        /* \"token/Contract_flattened.sol\":3782:3867  require(currentAllowance >= subtractedValue, \"ERC20: decreased allowance below zero\") */\n      tag_137\n      jumpi\n      mload(0x40)\n      0x08c379a000000000000000000000000000000000000000000000000000000000\n      dup2\n      mstore\n      0x04\n      add\n      tag_138\n      swap1\n      tag_139\n      jump\t// in\n    tag_138:\n      mload(0x40)\n      dup1\n      swap2\n      sub\n      swap1\n      revert\n    tag_137:\n        /* \"token/Contract_flattened.sol\":3903:3963  _approve(owner, spender, currentAllowance - subtractedValue) */\n      tag_140\n        /* \"token/Contract_flattened.sol\":3912:3917  owner */\n      dup3\n        /* \"token/Contract_flattened.sol\":3919:3926  spender */\n      dup7\n        /* \"token/Contract_flattened.sol\":3947:3962  subtractedValue */\n      dup7\n        /* \"token/Contract_flattened.sol\":3928:3944  currentAllowance */\n      dup5\n        /* \"token/Contract_flattened.sol\":3928:3962  currentAllowance - subtractedValue */\n      sub\n        /* \"token/Contract_flattened.sol\":3903:3911  _approve */\n      tag_97\n        /* \"token/Contract_flattened.sol\":3903:3963  _approve(owner, spender, currentAllowance - subtractedValue) */\n      jump\t// in\n    tag_140:\n        /* \"token/Contract_flattened.sol\":3994:3998  true */\n      0x01\n        /* \"token/Contract_flattened.sol\":3987:3998  return true */\n      swap3\n      pop\n      pop\n      pop\n        /* \"token/Contract_flattened.sol\":3570:4006  function decreaseAllowance(address spender, uint256 subtractedValue) public virtual returns (bool) {... */\n      swap3\n      swap2\n      pop\n      pop\n      jump\t// out\n        /* \"token/Contract_flattened.sol\":2486:2679  function transfer(address to, uint256 amount) public virtual override returns (bool) {... */\n    tag_76:\n        /* \"token/Contract_flattened.sol\":2565:2569  bool */\n      0x00\n        /* \"token/Contract_flattened.sol\":2582:2595  address owner */\n      dup1\n        /* \"token/Contract_flattened.sol\":2598:2610  _msgSender() */\n      tag_142\n        /* \"token/Contract_flattened.sol\":2598:2608  _msgSender */\n      tag_95\n        /* \"token/Contract_flattened.sol\":2598:2610  _msgSender() */\n      jump\t// in\n    tag_142:\n        /* \"token/Contract_flattened.sol\":2582:2610  address owner = _msgSender() */\n      swap1\n      pop\n        /* \"token/Contract_flattened.sol\":2621:2649  _transfer(owner, to, amount) */\n      tag_143\n        /* \"token/Contract_flattened.sol\":2631:2636  owner */\n      dup2\n        /* \"token/Contract_flattened.sol\":2638:2640  to */\n      dup6\n        /* \"token/Contract_flattened.sol\":2642:2648  amount */\n      dup6\n        /* \"token/Contract_flattened.sol\":2621:2630  _transfer */\n      tag_104\n        /* \"token/Contract_flattened.sol\":2621:2649  _transfer(owner, to, amount) */\n      jump\t// in\n    tag_143:\n        /* \"token/Contract_flattened.sol\":2667:2671  true */\n      0x01\n        /* \"token/Contract_flattened.sol\":2660:2671  return true */\n      swap2\n      pop\n      pop\n        /* \"token/Contract_flattened.sol\":2486:2679  function transfer(address to, uint256 amount) public virtual override returns (bool) {... */\n      swap3\n      swap2\n      pop\n      pop\n      jump\t// out\n        /* \"token/Contract_flattened.sol\":2687:2838  function allowance(address owner, address spender) public view virtual override returns (uint256) {... */\n    tag_81:\n        /* \"token/Contract_flattened.sol\":2776:2783  uint256 */\n      0x00\n        /* \"token/Contract_flattened.sol\":2803:2814  _allowances */\n      0x01\n        /* \"token/Contract_flattened.sol\":2803:2821  _allowances[owner] */\n      0x00\n        /* \"token/Contract_flattened.sol\":2815:2820  owner */\n      dup5\n        /* \"token/Contract_flattened.sol\":2803:2821  _allowances[owner] */\n      0xffffffffffffffffffffffffffffffffffffffff\n      and\n      0xffffffffffffffffffffffffffffffffffffffff\n      and\n      dup2\n      mstore\n      0x20\n      add\n      swap1\n      dup2\n      mstore\n      0x20\n      add\n      0x00\n      keccak256\n        /* \"token/Contract_flattened.sol\":2803:2830  _allowances[owner][spender] */\n      0x00\n        /* \"token/Contract_flattened.sol\":2822:2829  spender */\n      dup4\n        /* \"token/Contract_flattened.sol\":2803:2830  _allowances[owner][spender] */\n      0xffffffffffffffffffffffffffffffffffffffff\n      and\n      0xffffffffffffffffffffffffffffffffffffffff\n      and\n      dup2\n      mstore\n      0x20\n      add\n      swap1\n      dup2\n      mstore\n      0x20\n      add\n      0x00\n      keccak256\n      sload\n        /* \"token/Contract_flattened.sol\":2796:2830  return _allowances[owner][spender] */\n      swap1\n      pop\n        /* \"token/Contract_flattened.sol\":2687:2838  function allowance(address owner, address spender) public view virtual override returns (uint256) {... */\n      swap3\n      swap2\n      pop\n      pop\n      jump\t// out\n        /* \"token/Contract_flattened.sol\":8049:8250  function transferOwnership(address newOwner) public virtual onlyOwner {... */\n    tag_85:\n        /* \"token/Contract_flattened.sol\":7662:7675  _checkOwner() */\n      tag_146\n        /* \"token/Contract_flattened.sol\":7662:7673  _checkOwner */\n      tag_119\n        /* \"token/Contract_flattened.sol\":7662:7675  _checkOwner() */\n      jump\t// in\n    tag_146:\n        /* \"token/Contract_flattened.sol\":8158:8159  0 */\n      0x00\n        /* \"token/Contract_flattened.sol\":8138:8160  newOwner != address(0) */\n      0xffffffffffffffffffffffffffffffffffffffff\n      and\n        /* \"token/Contract_flattened.sol\":8138:8146  newOwner */\n      dup2\n        /* \"token/Contract_flattened.sol\":8138:8160  newOwner != address(0) */\n      0xffffffffffffffffffffffffffffffffffffffff\n      and\n      sub\n        /* \"token/Contract_flattened.sol\":8130:8203  require(newOwner != address(0), \"Ownable: new owner is the zero address\") */\n      tag_148\n      jumpi\n      mload(0x40)\n      0x08c379a000000000000000000000000000000000000000000000000000000000\n      dup2\n      mstore\n      0x04\n      add\n      tag_149\n      swap1\n      tag_150\n      jump\t// in\n    tag_149:\n      mload(0x40)\n      dup1\n      swap2\n      sub\n      swap1\n      revert\n    tag_148:\n        /* \"token/Contract_flattened.sol\":8214:8242  _transferOwnership(newOwner) */\n      tag_151\n        /* \"token/Contract_flattened.sol\":8233:8241  newOwner */\n      dup2\n        /* \"token/Contract_flattened.sol\":8214:8232  _transferOwnership */\n      tag_122\n        /* \"token/Contract_flattened.sol\":8214:8242  _transferOwnership(newOwner) */\n      jump\t// in\n    tag_151:\n        /* \"token/Contract_flattened.sol\":8049:8250  function transferOwnership(address newOwner) public virtual onlyOwner {... */\n      pop\n      jump\t// out\n        /* \"token/Contract_flattened.sol\":96:194  function _msgSender() internal view virtual returns (address) {... */\n    tag_95:\n        /* \"token/Contract_flattened.sol\":149:156  address */\n      0x00\n        /* \"token/Contract_flattened.sol\":176:186  msg.sender */\n      caller\n        /* \"token/Contract_flattened.sol\":169:186  return msg.sender */\n      swap1\n      pop\n        /* \"token/Contract_flattened.sol\":96:194  function _msgSender() internal view virtual returns (address) {... */\n      swap1\n      jump\t// out\n        /* \"token/Contract_flattened.sol\":5954:6300  function _approve(address owner, address spender, uint256 amount) internal virtual {... */\n    tag_97:\n        /* \"token/Contract_flattened.sol\":6073:6074  0 */\n      0x00\n        /* \"token/Contract_flattened.sol\":6056:6075  owner != address(0) */\n      0xffffffffffffffffffffffffffffffffffffffff\n      and\n        /* \"token/Contract_flattened.sol\":6056:6061  owner */\n      dup4\n        /* \"token/Contract_flattened.sol\":6056:6075  owner != address(0) */\n      0xffffffffffffffffffffffffffffffffffffffff\n      and\n      sub\n        /* \"token/Contract_flattened.sol\":6048:6116  require(owner != address(0), \"ERC20: approve from the zero address\") */\n      tag_154\n      jumpi\n      mload(0x40)\n      0x08c379a000000000000000000000000000000000000000000000000000000000\n      dup2\n      mstore\n      0x04\n      add\n      tag_155\n      swap1\n      tag_156\n      jump\t// in\n    tag_155:\n      mload(0x40)\n      dup1\n      swap2\n      sub\n      swap1\n      revert\n    tag_154:\n        /* \"token/Contract_flattened.sol\":6154:6155  0 */\n      0x00\n        /* \"token/Contract_flattened.sol\":6135:6156  spender != address(0) */\n      0xffffffffffffffffffffffffffffffffffffffff\n      and\n        /* \"token/Contract_flattened.sol\":6135:6142  spender */\n      dup3\n        /* \"token/Contract_flattened.sol\":6135:6156  spender != address(0) */\n      0xffffffffffffffffffffffffffffffffffffffff\n      and\n      sub\n        /* \"token/Contract_flattened.sol\":6127:6195  require(spender != address(0), \"ERC20: approve to the zero address\") */\n      tag_157\n      jumpi\n      mload(0x40)\n      0x08c379a000000000000000000000000000000000000000000000000000000000\n      dup2\n      mstore\n      0x04\n      add\n      tag_158\n      swap1\n      tag_159\n      jump\t// in\n    tag_158:\n      mload(0x40)\n      dup1\n      swap2\n      sub\n      swap1\n      revert\n    tag_157:\n        /* \"token/Contract_flattened.sol\":6238:6244  amount */\n      dup1\n        /* \"token/Contract_flattened.sol\":6208:6219  _allowances */\n      0x01\n        /* \"token/Contract_flattened.sol\":6208:6226  _allowances[owner] */\n      0x00\n        /* \"token/Contract_flattened.sol\":6220:6225  owner */\n      dup6\n        /* \"token/Contract_flattened.sol\":6208:6226  _allowances[owner] */\n      0xffffffffffffffffffffffffffffffffffffffff\n      and\n      0xffffffffffffffffffffffffffffffffffffffff\n      and\n      dup2\n      mstore\n      0x20\n      add\n      swap1\n      dup2\n      mstore\n      0x20\n      add\n      0x00\n      keccak256\n        /* \"token/Contract_flattened.sol\":6208:6235  _allowances[owner][spender] */\n      0x00\n        /* \"token/Contract_flattened.sol\":6227:6234  spender */\n      dup5\n        /* \"token/Contract_flattened.sol\":6208:6235  _allowances[owner][spender] */\n      0xffffffffffffffffffffffffffffffffffffffff\n      and\n      0xffffffffffffffffffffffffffffffffffffffff\n      and\n      dup2\n      mstore\n      0x20\n      add\n      swap1\n      dup2\n      mstore\n      0x20\n      add\n      0x00\n      keccak256\n        /* \"token/Contract_flattened.sol\":6208:6244  _allowances[owner][spender] = amount */\n      dup2\n      swap1\n      sstore\n      pop\n        /* \"token/Contract_flattened.sol\":6276:6283  spender */\n      dup2\n        /* \"token/Contract_flattened.sol\":6260:6292  Approval(owner, spender, amount) */\n      0xffffffffffffffffffffffffffffffffffffffff\n      and\n        /* \"token/Contract_flattened.sol\":6269:6274  owner */\n      dup4\n        /* \"token/Contract_flattened.sol\":6260:6292  Approval(owner, spender, amount) */\n      0xffffffffffffffffffffffffffffffffffffffff\n      and\n      0x8c5be1e5ebec7d5bd14f71427d1e84f3dd0314c0f7b2291e5b200ac8c7c3b925\n        /* \"token/Contract_flattened.sol\":6285:6291  amount */\n      dup4\n        /* \"token/Contract_flattened.sol\":6260:6292  Approval(owner, spender, amount) */\n      mload(0x40)\n      tag_160\n      swap2\n      swap1\n      tag_35\n      jump\t// in\n    tag_160:\n      mload(0x40)\n      dup1\n      swap2\n      sub\n      swap1\n      log3\n        /* \"token/Contract_flattened.sol\":5954:6300  function _approve(address owner, address spender, uint256 amount) internal virtual {... */\n      pop\n      pop\n      pop\n      jump\t// out\n        /* \"token/Contract_flattened.sol\":6308:6727  function _spendAllowance(address owner, address spender, uint256 amount) internal virtual {... */\n    tag_102:\n        /* \"token/Contract_flattened.sol\":6409:6433  uint256 currentAllowance */\n      0x00\n        /* \"token/Contract_flattened.sol\":6436:6461  allowance(owner, spender) */\n      tag_162\n        /* \"token/Contract_flattened.sol\":6446:6451  owner */\n      dup5\n        /* \"token/Contract_flattened.sol\":6453:6460  spender */\n      dup5\n        /* \"token/Contract_flattened.sol\":6436:6445  allowance */\n      tag_81\n        /* \"token/Contract_flattened.sol\":6436:6461  allowance(owner, spender) */\n      jump\t// in\n    tag_162:\n        /* \"token/Contract_flattened.sol\":6409:6461  uint256 currentAllowance = allowance(owner, spender) */\n      swap1\n      pop\n        /* \"token/Contract_flattened.sol\":6496:6513  type(uint256).max */\n      0xffffffffffffffffffffffffffffffffffffffffffffffffffffffffffffffff\n        /* \"token/Contract_flattened.sol\":6476:6492  currentAllowance */\n      dup2\n        /* \"token/Contract_flattened.sol\":6476:6513  currentAllowance != type(uint256).max */\n      eq\n        /* \"token/Contract_flattened.sol\":6472:6720  if (currentAllowance != type(uint256).max) {... */\n      tag_163\n      jumpi\n        /* \"token/Contract_flattened.sol\":6558:6564  amount */\n      dup2\n        /* \"token/Contract_flattened.sol\":6538:6554  currentAllowance */\n      dup2\n        /* \"token/Contract_flattened.sol\":6538:6564  currentAllowance >= amount */\n      lt\n      iszero\n        /* \"token/Contract_flattened.sol\":6530:6598  require(currentAllowance >= amount, \"ERC20: insufficient allowance\") */\n      tag_164\n      jumpi\n      mload(0x40)\n      0x08c379a000000000000000000000000000000000000000000000000000000000\n      dup2\n      mstore\n      0x04\n      add\n      tag_165\n      swap1\n      tag_166\n      jump\t// in\n    tag_165:\n      mload(0x40)\n      dup1\n      swap2\n      sub\n      swap1\n      revert\n    tag_164:\n        /* \"token/Contract_flattened.sol\":6642:6693  _approve(owner, spender, currentAllowance - amount) */\n      tag_167\n        /* \"token/Contract_flattened.sol\":6651:6656  owner */\n      dup5\n        /* \"token/Contract_flattened.sol\":6658:6665  spender */\n      dup5\n        /* \"token/Contract_flattened.sol\":6686:6692  amount */\n      dup5\n        /* \"token/Contract_flattened.sol\":6667:6683  currentAllowance */\n      dup5\n        /* \"token/Contract_flattened.sol\":6667:6692  currentAllowance - amount */\n      sub\n        /* \"token/Contract_flattened.sol\":6642:6650  _approve */\n      tag_97\n        /* \"token/Contract_flattened.sol\":6642:6693  _approve(owner, spender, currentAllowance - amount) */\n      jump\t// in\n    tag_167:\n        /* \"token/Contract_flattened.sol\":6472:6720  if (currentAllowance != type(uint256).max) {... */\n    tag_163:\n        /* \"token/Contract_flattened.sol\":6398:6727  {... */\n      pop\n        /* \"token/Contract_flattened.sol\":6308:6727  function _spendAllowance(address owner, address spender, uint256 amount) internal virtual {... */\n      pop\n      pop\n      pop\n      jump\t// out\n        /* \"token/Contract_flattened.sol\":4014:4820  function _transfer(address from, address to, uint256 amount) internal virtual {... */\n    tag_104:\n        /* \"token/Contract_flattened.sol\":4127:4128  0 */\n      0x00\n        /* \"token/Contract_flattened.sol\":4111:4129  from != address(0) */\n      0xffffffffffffffffffffffffffffffffffffffff\n      and\n        /* \"token/Contract_flattened.sol\":4111:4115  from */\n      dup4\n        /* \"token/Contract_flattened.sol\":4111:4129  from != address(0) */\n      0xffffffffffffffffffffffffffffffffffffffff\n      and\n      sub\n        /* \"token/Contract_flattened.sol\":4103:4171  require(from != address(0), \"ERC20: transfer from the zero address\") */\n      tag_169\n      jumpi\n      mload(0x40)\n      0x08c379a000000000000000000000000000000000000000000000000000000000\n      dup2\n      mstore\n      0x04\n      add\n      tag_170\n      swap1\n      tag_171\n      jump\t// in\n    tag_170:\n      mload(0x40)\n      dup1\n      swap2\n      sub\n      swap1\n      revert\n    tag_169:\n        /* \"token/Contract_flattened.sol\":4204:4205  0 */\n      0x00\n        /* \"token/Contract_flattened.sol\":4190:4206  to != address(0) */\n      0xffffffffffffffffffffffffffffffffffffffff\n      and\n        /* \"token/Contract_flattened.sol\":4190:4192  to */\n      dup3\n        /* \"token/Contract_flattened.sol\":4190:4206  to != address(0) */\n      0xffffffffffffffffffffffffffffffffffffffff\n      and\n      sub\n        /* \"token/Contract_flattened.sol\":4182:4246  require(to != address(0), \"ERC20: transfer to the zero address\") */\n      tag_172\n      jumpi\n      mload(0x40)\n      0x08c379a000000000000000000000000000000000000000000000000000000000\n      dup2\n      mstore\n      0x04\n      add\n      tag_173\n      swap1\n      tag_174\n      jump\t// in\n    tag_173:\n      mload(0x40)\n      dup1\n      swap2\n      sub\n      swap1\n      revert\n    tag_172:\n        /* \"token/Contract_flattened.sol\":4259:4297  _beforeTokenTransfer(from, to, amount) */\n      tag_175\n        /* \"token/Contract_flattened.sol\":4280:4284  from */\n      dup4\n        /* \"token/Contract_flattened.sol\":4286:4288  to */\n      dup4\n        /* \"token/Contract_flattened.sol\":4290:4296  amount */\n      dup4\n        /* \"token/Contract_flattened.sol\":4259:4279  _beforeTokenTransfer */\n      tag_176\n        /* \"token/Contract_flattened.sol\":4259:4297  _beforeTokenTransfer(from, to, amount) */\n      jump\t// in\n    tag_175:\n        /* \"token/Contract_flattened.sol\":4310:4329  uint256 fromBalance */\n      0x00\n        /* \"token/Contract_flattened.sol\":4332:4341  _balances */\n      dup1\n        /* \"token/Contract_flattened.sol\":4332:4347  _balances[from] */\n      0x00\n        /* \"token/Contract_flattened.sol\":4342:4346  from */\n      dup6\n        /* \"token/Contract_flattened.sol\":4332:4347  _balances[from] */\n      0xffffffffffffffffffffffffffffffffffffffff\n      and\n      0xffffffffffffffffffffffffffffffffffffffff\n      and\n      dup2\n      mstore\n      0x20\n      add\n      swap1\n      dup2\n      mstore\n      0x20\n      add\n      0x00\n      keccak256\n      sload\n        /* \"token/Contract_flattened.sol\":4310:4347  uint256 fromBalance = _balances[from] */\n      swap1\n      pop\n        /* \"token/Contract_flattened.sol\":4381:4387  amount */\n      dup2\n        /* \"token/Contract_flattened.sol\":4366:4377  fromBalance */\n      dup2\n        /* \"token/Contract_flattened.sol\":4366:4387  fromBalance >= amount */\n      lt\n      iszero\n        /* \"token/Contract_flattened.sol\":4358:4430  require(fromBalance >= amount, \"ERC20: transfer amount exceeds balance\") */\n      tag_177\n      jumpi\n      mload(0x40)\n      0x08c379a000000000000000000000000000000000000000000000000000000000\n      dup2\n      mstore\n      0x04\n      add\n      tag_178\n      swap1\n      tag_179\n      jump\t// in\n    tag_178:\n      mload(0x40)\n      dup1\n      swap2\n      sub\n      swap1\n      revert\n    tag_177:\n        /* \"token/Contract_flattened.sol\":4498:4504  amount */\n      dup2\n        /* \"token/Contract_flattened.sol\":4484:4495  fromBalance */\n      dup2\n        /* \"token/Contract_flattened.sol\":4484:4504  fromBalance - amount */\n      sub\n        /* \"token/Contract_flattened.sol\":4466:4475  _balances */\n      0x00\n        /* \"token/Contract_flattened.sol\":4466:4481  _balances[from] */\n      dup1\n        /* \"token/Contract_flattened.sol\":4476:4480  from */\n      dup7\n        /* \"token/Contract_flattened.sol\":4466:4481  _balances[from] */\n      0xffffffffffffffffffffffffffffffffffffffff\n      and\n      0xffffffffffffffffffffffffffffffffffffffff\n      and\n      dup2\n      mstore\n      0x20\n      add\n      swap1\n      dup2\n      mstore\n      0x20\n      add\n      0x00\n      keccak256\n        /* \"token/Contract_flattened.sol\":4466:4504  _balances[from] = fromBalance - amount */\n      dup2\n      swap1\n      sstore\n      pop\n        /* \"token/Contract_flattened.sol\":4701:4707  amount */\n      dup2\n        /* \"token/Contract_flattened.sol\":4684:4693  _balances */\n      0x00\n        /* \"token/Contract_flattened.sol\":4684:4697  _balances[to] */\n      dup1\n        /* \"token/Contract_flattened.sol\":4694:4696  to */\n      dup6\n        /* \"token/Contract_flattened.sol\":4684:4697  _balances[to] */\n      0xffffffffffffffffffffffffffffffffffffffff\n      and\n      0xffffffffffffffffffffffffffffffffffffffff\n      and\n      dup2\n      mstore\n      0x20\n      add\n      swap1\n      dup2\n      mstore\n      0x20\n      add\n      0x00\n      keccak256\n      0x00\n        /* \"token/Contract_flattened.sol\":4684:4707  _balances[to] += amount */\n      dup3\n      dup3\n      sload\n      add\n      swap3\n      pop\n      pop\n      dup2\n      swap1\n      sstore\n      pop\n        /* \"token/Contract_flattened.sol\":4751:4753  to */\n      dup3\n        /* \"token/Contract_flattened.sol\":4736:4762  Transfer(from, to, amount) */\n      0xffffffffffffffffffffffffffffffffffffffff\n      and\n        /* \"token/Contract_flattened.sol\":4745:4749  from */\n      dup5\n        /* \"token/Contract_flattened.sol\":4736:4762  Transfer(from, to, amount) */\n      0xffffffffffffffffffffffffffffffffffffffff\n      and\n      0xddf252ad1be2c89b69c2b068fc378daa952ba7f163c4a11628f55a4df523b3ef\n        /* \"token/Contract_flattened.sol\":4755:4761  amount */\n      dup5\n        /* \"token/Contract_flattened.sol\":4736:4762  Transfer(from, to, amount) */\n      mload(0x40)\n      tag_180\n      swap2\n      swap1\n      tag_35\n      jump\t// in\n    tag_180:\n      mload(0x40)\n      dup1\n      swap2\n      sub\n      swap1\n      log3\n        /* \"token/Contract_flattened.sol\":4775:4812  _afterTokenTransfer(from, to, amount) */\n      tag_181\n        /* \"token/Contract_flattened.sol\":4795:4799  from */\n      dup5\n        /* \"token/Contract_flattened.sol\":4801:4803  to */\n      dup5\n        /* \"token/Contract_flattened.sol\":4805:4811  amount */\n      dup5\n        /* \"token/Contract_flattened.sol\":4775:4794  _afterTokenTransfer */\n      tag_182\n        /* \"token/Contract_flattened.sol\":4775:4812  _afterTokenTransfer(from, to, amount) */\n      jump\t// in\n    tag_181:\n        /* \"token/Contract_flattened.sol\":4092:4820  {... */\n      pop\n        /* \"token/Contract_flattened.sol\":4014:4820  function _transfer(address from, address to, uint256 amount) internal virtual {... */\n      pop\n      pop\n      pop\n      jump\t// out\n        /* \"token/Contract_flattened.sol\":5271:5946  function _burn(address account, uint256 amount) internal virtual {... */\n    tag_115:\n        /* \"token/Contract_flattened.sol\":5374:5375  0 */\n      0x00\n        /* \"token/Contract_flattened.sol\":5355:5376  account != address(0) */\n      0xffffffffffffffffffffffffffffffffffffffff\n      and\n        /* \"token/Contract_flattened.sol\":5355:5362  account */\n      dup3\n        /* \"token/Contract_flattened.sol\":5355:5376  account != address(0) */\n      0xffffffffffffffffffffffffffffffffffffffff\n      and\n      sub\n        /* \"token/Contract_flattened.sol\":5347:5414  require(account != address(0), \"ERC20: burn from the zero address\") */\n      tag_184\n      jumpi\n      mload(0x40)\n      0x08c379a000000000000000000000000000000000000000000000000000000000\n      dup2\n      mstore\n      0x04\n      add\n      tag_185\n      swap1\n      tag_186\n      jump\t// in\n    tag_185:\n      mload(0x40)\n      dup1\n      swap2\n      sub\n      swap1\n      revert\n    tag_184:\n        /* \"token/Contract_flattened.sol\":5427:5476  _beforeTokenTransfer(account, address(0), amount) */\n      tag_187\n        /* \"token/Contract_flattened.sol\":5448:5455  account */\n      dup3\n        /* \"token/Contract_flattened.sol\":5465:5466  0 */\n      0x00\n        /* \"token/Contract_flattened.sol\":5469:5475  amount */\n      dup4\n        /* \"token/Contract_flattened.sol\":5427:5447  _beforeTokenTransfer */\n      tag_176\n        /* \"token/Contract_flattened.sol\":5427:5476  _beforeTokenTransfer(account, address(0), amount) */\n      jump\t// in\n    tag_187:\n        /* \"token/Contract_flattened.sol\":5489:5511  uint256 accountBalance */\n      0x00\n        /* \"token/Contract_flattened.sol\":5514:5523  _balances */\n      dup1\n        /* \"token/Contract_flattened.sol\":5514:5532  _balances[account] */\n      0x00\n        /* \"token/Contract_flattened.sol\":5524:5531  account */\n      dup5\n        /* \"token/Contract_flattened.sol\":5514:5532  _balances[account] */\n      0xffffffffffffffffffffffffffffffffffffffff\n      and\n      0xffffffffffffffffffffffffffffffffffffffff\n      and\n      dup2\n      mstore\n      0x20\n      add\n      swap1\n      dup2\n      mstore\n      0x20\n      add\n      0x00\n      keccak256\n      sload\n        /* \"token/Contract_flattened.sol\":5489:5532  uint256 accountBalance = _balances[account] */\n      swap1\n      pop\n        /* \"token/Contract_flattened.sol\":5569:5575  amount */\n      dup2\n        /* \"token/Contract_flattened.sol\":5551:5565  accountBalance */\n      dup2\n        /* \"token/Contract_flattened.sol\":5551:5575  accountBalance >= amount */\n      lt\n      iszero\n        /* \"token/Contract_flattened.sol\":5543:5614  require(accountBalance >= amount, \"ERC20: burn amount exceeds balance\") */\n      tag_188\n      jumpi\n      mload(0x40)\n      0x08c379a000000000000000000000000000000000000000000000000000000000\n      dup2\n      mstore\n      0x04\n      add\n      tag_189\n      swap1\n      tag_190\n      jump\t// in\n    tag_189:\n      mload(0x40)\n      dup1\n      swap2\n      sub\n      swap1\n      revert\n    tag_188:\n        /* \"token/Contract_flattened.sol\":5688:5694  amount */\n      dup2\n        /* \"token/Contract_flattened.sol\":5671:5685  accountBalance */\n      dup2\n        /* \"token/Contract_flattened.sol\":5671:5694  accountBalance - amount */\n      sub\n        /* \"token/Contract_flattened.sol\":5650:5659  _balances */\n      0x00\n        /* \"token/Contract_flattened.sol\":5650:5668  _balances[account] */\n      dup1\n        /* \"token/Contract_flattened.sol\":5660:5667  account */\n      dup6\n        /* \"token/Contract_flattened.sol\":5650:5668  _balances[account] */\n      0xffffffffffffffffffffffffffffffffffffffff\n      and\n      0xffffffffffffffffffffffffffffffffffffffff\n      and\n      dup2\n      mstore\n      0x20\n      add\n      swap1\n      dup2\n      mstore\n      0x20\n      add\n      0x00\n      keccak256\n        /* \"token/Contract_flattened.sol\":5650:5694  _balances[account] = accountBalance - amount */\n      dup2\n      swap1\n      sstore\n      pop\n        /* \"token/Contract_flattened.sol\":5805:5811  amount */\n      dup2\n        /* \"token/Contract_flattened.sol\":5789:5801  _totalSupply */\n      0x02\n      0x00\n        /* \"token/Contract_flattened.sol\":5789:5811  _totalSupply -= amount */\n      dup3\n      dup3\n      sload\n      sub\n      swap3\n      pop\n      pop\n      dup2\n      swap1\n      sstore\n      pop\n        /* \"token/Contract_flattened.sol\":5866:5867  0 */\n      0x00\n        /* \"token/Contract_flattened.sol\":5840:5877  Transfer(account, address(0), amount) */\n      0xffffffffffffffffffffffffffffffffffffffff\n      and\n        /* \"token/Contract_flattened.sol\":5849:5856  account */\n      dup4\n        /* \"token/Contract_flattened.sol\":5840:5877  Transfer(account, address(0), amount) */\n      0xffffffffffffffffffffffffffffffffffffffff\n      and\n      0xddf252ad1be2c89b69c2b068fc378daa952ba7f163c4a11628f55a4df523b3ef\n        /* \"token/Contract_flattened.sol\":5870:5876  amount */\n      dup5\n        /* \"token/Contract_flattened.sol\":5840:5877  Transfer(account, address(0), amount) */\n      mload(0x40)\n      tag_191\n      swap2\n      swap1\n      tag_35\n      jump\t// in\n    tag_191:\n      mload(0x40)\n      dup1\n      swap2\n      sub\n      swap1\n      log3\n        /* \"token/Contract_flattened.sol\":5890:5938  _afterTokenTransfer(account, address(0), amount) */\n      tag_192\n        /* \"token/Contract_flattened.sol\":5910:5917  account */\n      dup4\n        /* \"token/Contract_flattened.sol\":5927:5928  0 */\n      0x00\n        /* \"token/Contract_flattened.sol\":5931:5937  amount */\n      dup5\n        /* \"token/Contract_flattened.sol\":5890:5909  _afterTokenTransfer */\n      tag_182\n        /* \"token/Contract_flattened.sol\":5890:5938  _afterTokenTransfer(account, address(0), amount) */\n      jump\t// in\n    tag_192:\n        /* \"token/Contract_flattened.sol\":5336:5946  {... */\n      pop\n        /* \"token/Contract_flattened.sol\":5271:5946  function _burn(address account, uint256 amount) internal virtual {... */\n      pop\n      pop\n      jump\t// out\n        /* \"token/Contract_flattened.sol\":7798:7930  function _checkOwner() internal view virtual {... */\n    tag_119:\n        /* \"token/Contract_flattened.sol\":7873:7885  _msgSender() */\n      tag_194\n        /* \"token/Contract_flattened.sol\":7873:7883  _msgSender */\n      tag_95\n        /* \"token/Contract_flattened.sol\":7873:7885  _msgSender() */\n      jump\t// in\n    tag_194:\n        /* \"token/Contract_flattened.sol\":7862:7885  owner() == _msgSender() */\n      0xffffffffffffffffffffffffffffffffffffffff\n      and\n        /* \"token/Contract_flattened.sol\":7862:7869  owner() */\n      tag_195\n        /* \"token/Contract_flattened.sol\":7862:7867  owner */\n      tag_64\n        /* \"token/Contract_flattened.sol\":7862:7869  owner() */\n      jump\t// in\n    tag_195:\n        /* \"token/Contract_flattened.sol\":7862:7885  owner() == _msgSender() */\n      0xffffffffffffffffffffffffffffffffffffffff\n      and\n      eq\n        /* \"token/Contract_flattened.sol\":7854:7922  require(owner() == _msgSender(), \"Ownable: caller is not the owner\") */\n      tag_196\n      jumpi\n      mload(0x40)\n      0x08c379a000000000000000000000000000000000000000000000000000000000\n      dup2\n      mstore\n      0x04\n      add\n      tag_197\n      swap1\n      tag_198\n      jump\t// in\n    tag_197:\n      mload(0x40)\n      dup1\n      swap2\n      sub\n      swap1\n      revert\n    tag_196:\n        /* \"token/Contract_flattened.sol\":7798:7930  function _checkOwner() internal view virtual {... */\n      jump\t// out\n        /* \"token/Contract_flattened.sol\":8258:8449  function _transferOwnership(address newOwner) internal virtual {... */\n    tag_122:\n        /* \"token/Contract_flattened.sol\":8332:8348  address oldOwner */\n      0x00\n        /* \"token/Contract_flattened.sol\":8351:8357  _owner */\n      0x05\n      0x01\n      swap1\n      sload\n      swap1\n      0x0100\n      exp\n      swap1\n      div\n      0xffffffffffffffffffffffffffffffffffffffff\n      and\n        /* \"token/Contract_flattened.sol\":8332:8357  address oldOwner = _owner */\n      swap1\n      pop\n        /* \"token/Contract_flattened.sol\":8377:8385  newOwner */\n      dup2\n        /* \"token/Contract_flattened.sol\":8368:8374  _owner */\n      0x05\n      0x01\n        /* \"token/Contract_flattened.sol\":8368:8385  _owner = newOwner */\n      0x0100\n      exp\n      dup2\n      sload\n      dup2\n      0xffffffffffffffffffffffffffffffffffffffff\n      mul\n      not\n      and\n      swap1\n      dup4\n      0xffffffffffffffffffffffffffffffffffffffff\n      and\n      mul\n      or\n      swap1\n      sstore\n      pop\n        /* \"token/Contract_flattened.sol\":8432:8440  newOwner */\n      dup2\n        /* \"token/Contract_flattened.sol\":8401:8441  OwnershipTransferred(oldOwner, newOwner) */\n      0xffffffffffffffffffffffffffffffffffffffff\n      and\n        /* \"token/Contract_flattened.sol\":8422:8430  oldOwner */\n      dup2\n        /* \"token/Contract_flattened.sol\":8401:8441  OwnershipTransferred(oldOwner, newOwner) */\n      0xffffffffffffffffffffffffffffffffffffffff\n      and\n      0x8be0079c531659141344cd1fd0a4f28419497f9722a3daafe3b4186f6b6457e0\n      mload(0x40)\n      mload(0x40)\n      dup1\n      swap2\n      sub\n      swap1\n      log3\n        /* \"token/Contract_flattened.sol\":8321:8449  {... */\n      pop\n        /* \"token/Contract_flattened.sol\":8258:8449  function _transferOwnership(address newOwner) internal virtual {... */\n      pop\n      jump\t// out\n        /* \"token/Contract_flattened.sol\":6735:6826  function _beforeTokenTransfer(address from, address to, uint256 amount) internal virtual {} */\n    tag_176:\n      pop\n      pop\n      pop\n      jump\t// out\n        /* \"token/Contract_flattened.sol\":6834:6924  function _afterTokenTransfer(address from, address to, uint256 amount) internal virtual {} */\n    tag_182:\n      pop\n      pop\n      pop\n      jump\t// out\n        /* \"#utility.yul\":7:106   */\n    tag_202:\n        /* \"#utility.yul\":59:65   */\n      0x00\n        /* \"#utility.yul\":93:98   */\n      dup2\n        /* \"#utility.yul\":87:99   */\n      mload\n        /* \"#utility.yul\":77:99   */\n      swap1\n      pop\n        /* \"#utility.yul\":7:106   */\n      swap2\n      swap1\n      pop\n      jump\t// out\n        /* \"#utility.yul\":112:281   */\n    tag_203:\n        /* \"#utility.yul\":196:207   */\n      0x00\n        /* \"#utility.yul\":230:236   */\n      dup3\n        /* \"#utility.yul\":225:228   */\n      dup3\n        /* \"#utility.yul\":218:237   */\n      mstore\n        /* \"#utility.yul\":270:274   */\n      0x20\n        /* \"#utility.yul\":265:268   */\n      dup3\n        /* \"#utility.yul\":261:275   */\n      add\n        /* \"#utility.yul\":246:275   */\n      swap1\n      pop\n        /* \"#utility.yul\":112:281   */\n      swap3\n      swap2\n      pop\n      pop\n      jump\t// out\n        /* \"#utility.yul\":287:533   */\n    tag_204:\n        /* \"#utility.yul\":368:369   */\n      0x00\n        /* \"#utility.yul\":378:491   */\n    tag_251:\n        /* \"#utility.yul\":392:398   */\n      dup4\n        /* \"#utility.yul\":389:390   */\n      dup2\n        /* \"#utility.yul\":386:399   */\n      lt\n        /* \"#utility.yul\":378:491   */\n      iszero\n      tag_253\n      jumpi\n        /* \"#utility.yul\":477:478   */\n      dup1\n        /* \"#utility.yul\":472:475   */\n      dup3\n        /* \"#utility.yul\":468:479   */\n      add\n        /* \"#utility.yul\":462:480   */\n      mload\n        /* \"#utility.yul\":458:459   */\n      dup2\n        /* \"#utility.yul\":453:456   */\n      dup5\n        /* \"#utility.yul\":449:460   */\n      add\n        /* \"#utility.yul\":442:481   */\n      mstore\n        /* \"#utility.yul\":414:416   */\n      0x20\n        /* \"#utility.yul\":411:412   */\n      dup2\n        /* \"#utility.yul\":407:417   */\n      add\n        /* \"#utility.yul\":402:417   */\n      swap1\n      pop\n        /* \"#utility.yul\":378:491   */\n      jump(tag_251)\n    tag_253:\n        /* \"#utility.yul\":525:526   */\n      0x00\n        /* \"#utility.yul\":516:522   */\n      dup5\n        /* \"#utility.yul\":511:514   */\n      dup5\n        /* \"#utility.yul\":507:523   */\n      add\n        /* \"#utility.yul\":500:527   */\n      mstore\n        /* \"#utility.yul\":349:533   */\n      pop\n        /* \"#utility.yul\":287:533   */\n      pop\n      pop\n      pop\n      jump\t// out\n        /* \"#utility.yul\":539:641   */\n    tag_205:\n        /* \"#utility.yul\":580:586   */\n      0x00\n        /* \"#utility.yul\":631:633   */\n      0x1f\n        /* \"#utility.yul\":627:634   */\n      not\n        /* \"#utility.yul\":622:624   */\n      0x1f\n        /* \"#utility.yul\":615:620   */\n      dup4\n        /* \"#utility.yul\":611:625   */\n      add\n        /* \"#utility.yul\":607:635   */\n      and\n        /* \"#utility.yul\":597:635   */\n      swap1\n      pop\n        /* \"#utility.yul\":539:641   */\n      swap2\n      swap1\n      pop\n      jump\t// out\n        /* \"#utility.yul\":647:1024   */\n    tag_206:\n        /* \"#utility.yul\":735:738   */\n      0x00\n        /* \"#utility.yul\":763:802   */\n      tag_256\n        /* \"#utility.yul\":796:801   */\n      dup3\n        /* \"#utility.yul\":763:802   */\n      tag_202\n      jump\t// in\n    tag_256:\n        /* \"#utility.yul\":818:889   */\n      tag_257\n        /* \"#utility.yul\":882:888   */\n      dup2\n        /* \"#utility.yul\":877:880   */\n      dup6\n        /* \"#utility.yul\":818:889   */\n      tag_203\n      jump\t// in\n    tag_257:\n        /* \"#utility.yul\":811:889   */\n      swap4\n      pop\n        /* \"#utility.yul\":898:963   */\n      tag_258\n        /* \"#utility.yul\":956:962   */\n      dup2\n        /* \"#utility.yul\":951:954   */\n      dup6\n        /* \"#utility.yul\":944:948   */\n      0x20\n        /* \"#utility.yul\":937:942   */\n      dup7\n        /* \"#utility.yul\":933:949   */\n      add\n        /* \"#utility.yul\":898:963   */\n      tag_204\n      jump\t// in\n    tag_258:\n        /* \"#utility.yul\":988:1017   */\n      tag_259\n        /* \"#utility.yul\":1010:1016   */\n      dup2\n        /* \"#utility.yul\":988:1017   */\n      tag_205\n      jump\t// in\n    tag_259:\n        /* \"#utility.yul\":983:986   */\n      dup5\n        /* \"#utility.yul\":979:1018   */\n      add\n        /* \"#utility.yul\":972:1018   */\n      swap2\n      pop\n        /* \"#utility.yul\":739:1024   */\n      pop\n        /* \"#utility.yul\":647:1024   */\n      swap3\n      swap2\n      pop\n      pop\n      jump\t// out\n        /* \"#utility.yul\":1030:1343   */\n    tag_25:\n        /* \"#utility.yul\":1143:1147   */\n      0x00\n        /* \"#utility.yul\":1181:1183   */\n      0x20\n        /* \"#utility.yul\":1170:1179   */\n      dup3\n        /* \"#utility.yul\":1166:1184   */\n      add\n        /* \"#utility.yul\":1158:1184   */\n      swap1\n      pop\n        /* \"#utility.yul\":1230:1239   */\n      dup2\n        /* \"#utility.yul\":1224:1228   */\n      dup2\n        /* \"#utility.yul\":1220:1240   */\n      sub\n        /* \"#utility.yul\":1216:1217   */\n      0x00\n        /* \"#utility.yul\":1205:1214   */\n      dup4\n        /* \"#utility.yul\":1201:1218   */\n      add\n        /* \"#utility.yul\":1194:1241   */\n      mstore\n        /* \"#utility.yul\":1258:1336   */\n      tag_261\n        /* \"#utility.yul\":1331:1335   */\n      dup2\n        /* \"#utility.yul\":1322:1328   */\n      dup5\n        /* \"#utility.yul\":1258:1336   */\n      tag_206\n      jump\t// in\n    tag_261:\n        /* \"#utility.yul\":1250:1336   */\n      swap1\n      pop\n        /* \"#utility.yul\":1030:1343   */\n      swap3\n      swap2\n      pop\n      pop\n      jump\t// out\n        /* \"#utility.yul\":1430:1547   */\n    tag_208:\n        /* \"#utility.yul\":1539:1540   */\n      0x00\n        /* \"#utility.yul\":1536:1537   */\n      dup1\n        /* \"#utility.yul\":1529:1541   */\n      revert\n        /* \"#utility.yul\":1676:1802   */\n    tag_210:\n        /* \"#utility.yul\":1713:1720   */\n      0x00\n        /* \"#utility.yul\":1753:1795   */\n      0xffffffffffffffffffffffffffffffffffffffff\n        /* \"#utility.yul\":1746:1751   */\n      dup3\n        /* \"#utility.yul\":1742:1796   */\n      and\n        /* \"#utility.yul\":1731:1796   */\n      swap1\n      pop\n        /* \"#utility.yul\":1676:1802   */\n      swap2\n      swap1\n      pop\n      jump\t// out\n        /* \"#utility.yul\":1808:1904   */\n    tag_211:\n        /* \"#utility.yul\":1845:1852   */\n      0x00\n        /* \"#utility.yul\":1874:1898   */\n      tag_267\n        /* \"#utility.yul\":1892:1897   */\n      dup3\n        /* \"#utility.yul\":1874:1898   */\n      tag_210\n      jump\t// in\n    tag_267:\n        /* \"#utility.yul\":1863:1898   */\n      swap1\n      pop\n        /* \"#utility.yul\":1808:1904   */\n      swap2\n      swap1\n      pop\n      jump\t// out\n        /* \"#utility.yul\":1910:2032   */\n    tag_212:\n        /* \"#utility.yul\":1983:2007   */\n      tag_269\n        /* \"#utility.yul\":2001:2006   */\n      dup2\n        /* \"#utility.yul\":1983:2007   */\n      tag_211\n      jump\t// in\n    tag_269:\n        /* \"#utility.yul\":1976:1981   */\n      dup2\n        /* \"#utility.yul\":1973:2008   */\n      eq\n        /* \"#utility.yul\":1963:2026   */\n      tag_270\n      jumpi\n        /* \"#utility.yul\":2022:2023   */\n      0x00\n        /* \"#utility.yul\":2019:2020   */\n      dup1\n        /* \"#utility.yul\":2012:2024   */\n      revert\n        /* \"#utility.yul\":1963:2026   */\n    tag_270:\n        /* \"#utility.yul\":1910:2032   */\n      pop\n      jump\t// out\n        /* \"#utility.yul\":2038:2177   */\n    tag_213:\n        /* \"#utility.yul\":2084:2089   */\n      0x00\n        /* \"#utility.yul\":2122:2128   */\n      dup2\n        /* \"#utility.yul\":2109:2129   */\n      calldataload\n        /* \"#utility.yul\":2100:2129   */\n      swap1\n      pop\n        /* \"#utility.yul\":2138:2171   */\n      tag_272\n        /* \"#utility.yul\":2165:2170   */\n      dup2\n        /* \"#utility.yul\":2138:2171   */\n      tag_212\n      jump\t// in\n    tag_272:\n        /* \"#utility.yul\":2038:2177   */\n      swap3\n      swap2\n      pop\n      pop\n      jump\t// out\n        /* \"#utility.yul\":2183:2260   */\n    tag_214:\n        /* \"#utility.yul\":2220:2227   */\n      0x00\n        /* \"#utility.yul\":2249:2254   */\n      dup2\n        /* \"#utility.yul\":2238:2254   */\n      swap1\n      pop\n        /* \"#utility.yul\":2183:2260   */\n      swap2\n      swap1\n      pop\n      jump\t// out\n        /* \"#utility.yul\":2266:2388   */\n    tag_215:\n        /* \"#utility.yul\":2339:2363   */\n      tag_275\n        /* \"#utility.yul\":2357:2362   */\n      dup2\n        /* \"#utility.yul\":2339:2363   */\n      tag_214\n      jump\t// in\n    tag_275:\n        /* \"#utility.yul\":2332:2337   */\n      dup2\n        /* \"#utility.yul\":2329:2364   */\n      eq\n        /* \"#utility.yul\":2319:2382   */\n      tag_276\n      jumpi\n        /* \"#utility.yul\":2378:2379   */\n      0x00\n        /* \"#utility.yul\":2375:2376   */\n      dup1\n        /* \"#utility.yul\":2368:2380   */\n      revert\n        /* \"#utility.yul\":2319:2382   */\n    tag_276:\n        /* \"#utility.yul\":2266:2388   */\n      pop\n      jump\t// out\n        /* \"#utility.yul\":2394:2533   */\n    tag_216:\n        /* \"#utility.yul\":2440:2445   */\n      0x00\n        /* \"#utility.yul\":2478:2484   */\n      dup2\n        /* \"#utility.yul\":2465:2485   */\n      calldataload\n        /* \"#utility.yul\":2456:2485   */\n      swap1\n      pop\n        /* \"#utility.yul\":2494:2527   */\n      tag_278\n        /* \"#utility.yul\":2521:2526   */\n      dup2\n        /* \"#utility.yul\":2494:2527   */\n      tag_215\n      jump\t// in\n    tag_278:\n        /* \"#utility.yul\":2394:2533   */\n      swap3\n      swap2\n      pop\n      pop\n      jump\t// out\n        /* \"#utility.yul\":2539:3013   */\n    tag_28:\n        /* \"#utility.yul\":2607:2613   */\n      0x00\n        /* \"#utility.yul\":2615:2621   */\n      dup1\n        /* \"#utility.yul\":2664:2666   */\n      0x40\n        /* \"#utility.yul\":2652:2661   */\n      dup4\n        /* \"#utility.yul\":2643:2650   */\n      dup6\n        /* \"#utility.yul\":2639:2662   */\n      sub\n        /* \"#utility.yul\":2635:2667   */\n      slt\n        /* \"#utility.yul\":2632:2751   */\n      iszero\n      tag_280\n      jumpi\n        /* \"#utility.yul\":2670:2749   */\n      tag_281\n      tag_208\n      jump\t// in\n    tag_281:\n        /* \"#utility.yul\":2632:2751   */\n    tag_280:\n        /* \"#utility.yul\":2790:2791   */\n      0x00\n        /* \"#utility.yul\":2815:2868   */\n      tag_282\n        /* \"#utility.yul\":2860:2867   */\n      dup6\n        /* \"#utility.yul\":2851:2857   */\n      dup3\n        /* \"#utility.yul\":2840:2849   */\n      dup7\n        /* \"#utility.yul\":2836:2858   */\n      add\n        /* \"#utility.yul\":2815:2868   */\n      tag_213\n      jump\t// in\n    tag_282:\n        /* \"#utility.yul\":2805:2868   */\n      swap3\n      pop\n        /* \"#utility.yul\":2761:2878   */\n      pop\n        /* \"#utility.yul\":2917:2919   */\n      0x20\n        /* \"#utility.yul\":2943:2996   */\n      tag_283\n        /* \"#utility.yul\":2988:2995   */\n      dup6\n        /* \"#utility.yul\":2979:2985   */\n      dup3\n        /* \"#utility.yul\":2968:2977   */\n      dup7\n        /* \"#utility.yul\":2964:2986   */\n      add\n        /* \"#utility.yul\":2943:2996   */\n      tag_216\n      jump\t// in\n    tag_283:\n        /* \"#utility.yul\":2933:2996   */\n      swap2\n      pop\n        /* \"#utility.yul\":2888:3006   */\n      pop\n        /* \"#utility.yul\":2539:3013   */\n      swap3\n      pop\n      swap3\n      swap1\n      pop\n      jump\t// out\n        /* \"#utility.yul\":3019:3109   */\n    tag_217:\n        /* \"#utility.yul\":3053:3060   */\n      0x00\n        /* \"#utility.yul\":3096:3101   */\n      dup2\n        /* \"#utility.yul\":3089:3102   */\n      iszero\n        /* \"#utility.yul\":3082:3103   */\n      iszero\n        /* \"#utility.yul\":3071:3103   */\n      swap1\n      pop\n        /* \"#utility.yul\":3019:3109   */\n      swap2\n      swap1\n      pop\n      jump\t// out\n        /* \"#utility.yul\":3115:3224   */\n    tag_218:\n        /* \"#utility.yul\":3196:3217   */\n      tag_286\n        /* \"#utility.yul\":3211:3216   */\n      dup2\n        /* \"#utility.yul\":3196:3217   */\n      tag_217\n      jump\t// in\n    tag_286:\n        /* \"#utility.yul\":3191:3194   */\n      dup3\n        /* \"#utility.yul\":3184:3218   */\n      mstore\n        /* \"#utility.yul\":3115:3224   */\n      pop\n      pop\n      jump\t// out\n        /* \"#utility.yul\":3230:3440   */\n    tag_31:\n        /* \"#utility.yul\":3317:3321   */\n      0x00\n        /* \"#utility.yul\":3355:3357   */\n      0x20\n        /* \"#utility.yul\":3344:3353   */\n      dup3\n        /* \"#utility.yul\":3340:3358   */\n      add\n        /* \"#utility.yul\":3332:3358   */\n      swap1\n      pop\n        /* \"#utility.yul\":3368:3433   */\n      tag_288\n        /* \"#utility.yul\":3430:3431   */\n      0x00\n        /* \"#utility.yul\":3419:3428   */\n      dup4\n        /* \"#utility.yul\":3415:3432   */\n      add\n        /* \"#utility.yul\":3406:3412   */\n      dup5\n        /* \"#utility.yul\":3368:3433   */\n      tag_218\n      jump\t// in\n    tag_288:\n        /* \"#utility.yul\":3230:3440   */\n      swap3\n      swap2\n      pop\n      pop\n      jump\t// out\n        /* \"#utility.yul\":3446:3564   */\n    tag_219:\n        /* \"#utility.yul\":3533:3557   */\n      tag_290\n        /* \"#utility.yul\":3551:3556   */\n      dup2\n        /* \"#utility.yul\":3533:3557   */\n      tag_214\n      jump\t// in\n    tag_290:\n        /* \"#utility.yul\":3528:3531   */\n      dup3\n        /* \"#utility.yul\":3521:3558   */\n      mstore\n        /* \"#utility.yul\":3446:3564   */\n      pop\n      pop\n      jump\t// out\n        /* \"#utility.yul\":3570:3792   */\n    tag_35:\n        /* \"#utility.yul\":3663:3667   */\n      0x00\n        /* \"#utility.yul\":3701:3703   */\n      0x20\n        /* \"#utility.yul\":3690:3699   */\n      dup3\n        /* \"#utility.yul\":3686:3704   */\n      add\n        /* \"#utility.yul\":3678:3704   */\n      swap1\n      pop\n        /* \"#utility.yul\":3714:3785   */\n      tag_292\n        /* \"#utility.yul\":3782:3783   */\n      0x00\n        /* \"#utility.yul\":3771:3780   */\n      dup4\n        /* \"#utility.yul\":3767:3784   */\n      add\n        /* \"#utility.yul\":3758:3764   */\n      dup5\n        /* \"#utility.yul\":3714:3785   */\n      tag_219\n      jump\t// in\n    tag_292:\n        /* \"#utility.yul\":3570:3792   */\n      swap3\n      swap2\n      pop\n      pop\n      jump\t// out\n        /* \"#utility.yul\":3798:4417   */\n    tag_38:\n        /* \"#utility.yul\":3875:3881   */\n      0x00\n        /* \"#utility.yul\":3883:3889   */\n      dup1\n        /* \"#utility.yul\":3891:3897   */\n      0x00\n        /* \"#utility.yul\":3940:3942   */\n      0x60\n        /* \"#utility.yul\":3928:3937   */\n      dup5\n        /* \"#utility.yul\":3919:3926   */\n      dup7\n        /* \"#utility.yul\":3915:3938   */\n      sub\n        /* \"#utility.yul\":3911:3943   */\n      slt\n        /* \"#utility.yul\":3908:4027   */\n      iszero\n      tag_294\n      jumpi\n        /* \"#utility.yul\":3946:4025   */\n      tag_295\n      tag_208\n      jump\t// in\n    tag_295:\n        /* \"#utility.yul\":3908:4027   */\n    tag_294:\n        /* \"#utility.yul\":4066:4067   */\n      0x00\n        /* \"#utility.yul\":4091:4144   */\n      tag_296\n        /* \"#utility.yul\":4136:4143   */\n      dup7\n        /* \"#utility.yul\":4127:4133   */\n      dup3\n        /* \"#utility.yul\":4116:4125   */\n      dup8\n        /* \"#utility.yul\":4112:4134   */\n      add\n        /* \"#utility.yul\":4091:4144   */\n      tag_213\n      jump\t// in\n    tag_296:\n        /* \"#utility.yul\":4081:4144   */\n      swap4\n      pop\n        /* \"#utility.yul\":4037:4154   */\n      pop\n        /* \"#utility.yul\":4193:4195   */\n      0x20\n        /* \"#utility.yul\":4219:4272   */\n      tag_297\n        /* \"#utility.yul\":4264:4271   */\n      dup7\n        /* \"#utility.yul\":4255:4261   */\n      dup3\n        /* \"#utility.yul\":4244:4253   */\n      dup8\n        /* \"#utility.yul\":4240:4262   */\n      add\n        /* \"#utility.yul\":4219:4272   */\n      tag_213\n      jump\t// in\n    tag_297:\n        /* \"#utility.yul\":4209:4272   */\n      swap3\n      pop\n        /* \"#utility.yul\":4164:4282   */\n      pop\n        /* \"#utility.yul\":4321:4323   */\n      0x40\n        /* \"#utility.yul\":4347:4400   */\n      tag_298\n        /* \"#utility.yul\":4392:4399   */\n      dup7\n        /* \"#utility.yul\":4383:4389   */\n      dup3\n        /* \"#utility.yul\":4372:4381   */\n      dup8\n        /* \"#utility.yul\":4368:4390   */\n      add\n        /* \"#utility.yul\":4347:4400   */\n      tag_216\n      jump\t// in\n    tag_298:\n        /* \"#utility.yul\":4337:4400   */\n      swap2\n      pop\n        /* \"#utility.yul\":4292:4410   */\n      pop\n        /* \"#utility.yul\":3798:4417   */\n      swap3\n      pop\n      swap3\n      pop\n      swap3\n      jump\t// out\n        /* \"#utility.yul\":4423:4509   */\n    tag_220:\n        /* \"#utility.yul\":4458:4465   */\n      0x00\n        /* \"#utility.yul\":4498:4502   */\n      0xff\n        /* \"#utility.yul\":4491:4496   */\n      dup3\n        /* \"#utility.yul\":4487:4503   */\n      and\n        /* \"#utility.yul\":4476:4503   */\n      swap1\n      pop\n        /* \"#utility.yul\":4423:4509   */\n      swap2\n      swap1\n      pop\n      jump\t// out\n        /* \"#utility.yul\":4515:4627   */\n    tag_221:\n        /* \"#utility.yul\":4598:4620   */\n      tag_301\n        /* \"#utility.yul\":4614:4619   */\n      dup2\n        /* \"#utility.yul\":4598:4620   */\n      tag_220\n      jump\t// in\n    tag_301:\n        /* \"#utility.yul\":4593:4596   */\n      dup3\n        /* \"#utility.yul\":4586:4621   */\n      mstore\n        /* \"#utility.yul\":4515:4627   */\n      pop\n      pop\n      jump\t// out\n        /* \"#utility.yul\":4633:4847   */\n    tag_44:\n        /* \"#utility.yul\":4722:4726   */\n      0x00\n        /* \"#utility.yul\":4760:4762   */\n      0x20\n        /* \"#utility.yul\":4749:4758   */\n      dup3\n        /* \"#utility.yul\":4745:4763   */\n      add\n        /* \"#utility.yul\":4737:4763   */\n      swap1\n      pop\n        /* \"#utility.yul\":4773:4840   */\n      tag_303\n        /* \"#utility.yul\":4837:4838   */\n      0x00\n        /* \"#utility.yul\":4826:4835   */\n      dup4\n        /* \"#utility.yul\":4822:4839   */\n      add\n        /* \"#utility.yul\":4813:4819   */\n      dup5\n        /* \"#utility.yul\":4773:4840   */\n      tag_221\n      jump\t// in\n    tag_303:\n        /* \"#utility.yul\":4633:4847   */\n      swap3\n      swap2\n      pop\n      pop\n      jump\t// out\n        /* \"#utility.yul\":4853:5182   */\n    tag_51:\n        /* \"#utility.yul\":4912:4918   */\n      0x00\n        /* \"#utility.yul\":4961:4963   */\n      0x20\n        /* \"#utility.yul\":4949:4958   */\n      dup3\n        /* \"#utility.yul\":4940:4947   */\n      dup5\n        /* \"#utility.yul\":4936:4959   */\n      sub\n        /* \"#utility.yul\":4932:4964   */\n      slt\n        /* \"#utility.yul\":4929:5048   */\n      iszero\n      tag_305\n      jumpi\n        /* \"#utility.yul\":4967:5046   */\n      tag_306\n      tag_208\n      jump\t// in\n    tag_306:\n        /* \"#utility.yul\":4929:5048   */\n    tag_305:\n        /* \"#utility.yul\":5087:5088   */\n      0x00\n        /* \"#utility.yul\":5112:5165   */\n      tag_307\n        /* \"#utility.yul\":5157:5164   */\n      dup5\n        /* \"#utility.yul\":5148:5154   */\n      dup3\n        /* \"#utility.yul\":5137:5146   */\n      dup6\n        /* \"#utility.yul\":5133:5155   */\n      add\n        /* \"#utility.yul\":5112:5165   */\n      tag_216\n      jump\t// in\n    tag_307:\n        /* \"#utility.yul\":5102:5165   */\n      swap2\n      pop\n        /* \"#utility.yul\":5058:5175   */\n      pop\n        /* \"#utility.yul\":4853:5182   */\n      swap3\n      swap2\n      pop\n      pop\n      jump\t// out\n        /* \"#utility.yul\":5188:5517   */\n    tag_55:\n        /* \"#utility.yul\":5247:5253   */\n      0x00\n        /* \"#utility.yul\":5296:5298   */\n      0x20\n        /* \"#utility.yul\":5284:5293   */\n      dup3\n        /* \"#utility.yul\":5275:5282   */\n      dup5\n        /* \"#utility.yul\":5271:5294   */\n      sub\n        /* \"#utility.yul\":5267:5299   */\n      slt\n        /* \"#utility.yul\":5264:5383   */\n      iszero\n      tag_309\n      jumpi\n        /* \"#utility.yul\":5302:5381   */\n      tag_310\n      tag_208\n      jump\t// in\n    tag_310:\n        /* \"#utility.yul\":5264:5383   */\n    tag_309:\n        /* \"#utility.yul\":5422:5423   */\n      0x00\n        /* \"#utility.yul\":5447:5500   */\n      tag_311\n        /* \"#utility.yul\":5492:5499   */\n      dup5\n        /* \"#utility.yul\":5483:5489   */\n      dup3\n        /* \"#utility.yul\":5472:5481   */\n      dup6\n        /* \"#utility.yul\":5468:5490   */\n      add\n        /* \"#utility.yul\":5447:5500   */\n      tag_213\n      jump\t// in\n    tag_311:\n        /* \"#utility.yul\":5437:5500   */\n      swap2\n      pop\n        /* \"#utility.yul\":5393:5510   */\n      pop\n        /* \"#utility.yul\":5188:5517   */\n      swap3\n      swap2\n      pop\n      pop\n      jump\t// out\n        /* \"#utility.yul\":5523:5641   */\n    tag_222:\n        /* \"#utility.yul\":5610:5634   */\n      tag_313\n        /* \"#utility.yul\":5628:5633   */\n      dup2\n        /* \"#utility.yul\":5610:5634   */\n      tag_211\n      jump\t// in\n    tag_313:\n        /* \"#utility.yul\":5605:5608   */\n      dup3\n        /* \"#utility.yul\":5598:5635   */\n      mstore\n        /* \"#utility.yul\":5523:5641   */\n      pop\n      pop\n      jump\t// out\n        /* \"#utility.yul\":5647:5869   */\n    tag_66:\n        /* \"#utility.yul\":5740:5744   */\n      0x00\n        /* \"#utility.yul\":5778:5780   */\n      0x20\n        /* \"#utility.yul\":5767:5776   */\n      dup3\n        /* \"#utility.yul\":5763:5781   */\n      add\n        /* \"#utility.yul\":5755:5781   */\n      swap1\n      pop\n        /* \"#utility.yul\":5791:5862   */\n      tag_315\n        /* \"#utility.yul\":5859:5860   */\n      0x00\n        /* \"#utility.yul\":5848:5857   */\n      dup4\n        /* \"#utility.yul\":5844:5861   */\n      add\n        /* \"#utility.yul\":5835:5841   */\n      dup5\n        /* \"#utility.yul\":5791:5862   */\n      tag_222\n      jump\t// in\n    tag_315:\n        /* \"#utility.yul\":5647:5869   */\n      swap3\n      swap2\n      pop\n      pop\n      jump\t// out\n        /* \"#utility.yul\":5875:6349   */\n    tag_80:\n        /* \"#utility.yul\":5943:5949   */\n      0x00\n        /* \"#utility.yul\":5951:5957   */\n      dup1\n        /* \"#utility.yul\":6000:6002   */\n      0x40\n        /* \"#utility.yul\":5988:5997   */\n      dup4\n        /* \"#utility.yul\":5979:5986   */\n      dup6\n        /* \"#utility.yul\":5975:5998   */\n      sub\n        /* \"#utility.yul\":5971:6003   */\n      slt\n        /* \"#utility.yul\":5968:6087   */\n      iszero\n      tag_317\n      jumpi\n        /* \"#utility.yul\":6006:6085   */\n      tag_318\n      tag_208\n      jump\t// in\n    tag_318:\n        /* \"#utility.yul\":5968:6087   */\n    tag_317:\n        /* \"#utility.yul\":6126:6127   */\n      0x00\n        /* \"#utility.yul\":6151:6204   */\n      tag_319\n        /* \"#utility.yul\":6196:6203   */\n      dup6\n        /* \"#utility.yul\":6187:6193   */\n      dup3\n        /* \"#utility.yul\":6176:6185   */\n      dup7\n        /* \"#utility.yul\":6172:6194   */\n      add\n        /* \"#utility.yul\":6151:6204   */\n      tag_213\n      jump\t// in\n    tag_319:\n        /* \"#utility.yul\":6141:6204   */\n      swap3\n      pop\n        /* \"#utility.yul\":6097:6214   */\n      pop\n        /* \"#utility.yul\":6253:6255   */\n      0x20\n        /* \"#utility.yul\":6279:6332   */\n      tag_320\n        /* \"#utility.yul\":6324:6331   */\n      dup6\n        /* \"#utility.yul\":6315:6321   */\n      dup3\n        /* \"#utility.yul\":6304:6313   */\n      dup7\n        /* \"#utility.yul\":6300:6322   */\n      add\n        /* \"#utility.yul\":6279:6332   */\n      tag_213\n      jump\t// in\n    tag_320:\n        /* \"#utility.yul\":6269:6332   */\n      swap2\n      pop\n        /* \"#utility.yul\":6224:6342   */\n      pop\n        /* \"#utility.yul\":5875:6349   */\n      swap3\n      pop\n      swap3\n      swap1\n      pop\n      jump\t// out\n        /* \"#utility.yul\":6355:6535   */\n    tag_223:\n        /* \"#utility.yul\":6403:6480   */\n      0x4e487b7100000000000000000000000000000000000000000000000000000000\n        /* \"#utility.yul\":6400:6401   */\n      0x00\n        /* \"#utility.yul\":6393:6481   */\n      mstore\n        /* \"#utility.yul\":6500:6504   */\n      0x22\n        /* \"#utility.yul\":6497:6498   */\n      0x04\n        /* \"#utility.yul\":6490:6505   */\n      mstore\n        /* \"#utility.yul\":6524:6528   */\n      0x24\n        /* \"#utility.yul\":6521:6522   */\n      0x00\n        /* \"#utility.yul\":6514:6529   */\n      revert\n        /* \"#utility.yul\":6541:6861   */\n    tag_88:\n        /* \"#utility.yul\":6585:6591   */\n      0x00\n        /* \"#utility.yul\":6622:6623   */\n      0x02\n        /* \"#utility.yul\":6616:6620   */\n      dup3\n        /* \"#utility.yul\":6612:6624   */\n      div\n        /* \"#utility.yul\":6602:6624   */\n      swap1\n      pop\n        /* \"#utility.yul\":6669:6670   */\n      0x01\n        /* \"#utility.yul\":6663:6667   */\n      dup3\n        /* \"#utility.yul\":6659:6671   */\n      and\n        /* \"#utility.yul\":6690:6708   */\n      dup1\n        /* \"#utility.yul\":6680:6761   */\n      tag_323\n      jumpi\n        /* \"#utility.yul\":6746:6750   */\n      0x7f\n        /* \"#utility.yul\":6738:6744   */\n      dup3\n        /* \"#utility.yul\":6734:6751   */\n      and\n        /* \"#utility.yul\":6724:6751   */\n      swap2\n      pop\n        /* \"#utility.yul\":6680:6761   */\n    tag_323:\n        /* \"#utility.yul\":6808:6810   */\n      0x20\n        /* \"#utility.yul\":6800:6806   */\n      dup3\n        /* \"#utility.yul\":6797:6811   */\n      lt\n        /* \"#utility.yul\":6777:6795   */\n      dup2\n        /* \"#utility.yul\":6774:6812   */\n      sub\n        /* \"#utility.yul\":6771:6855   */\n      tag_324\n      jumpi\n        /* \"#utility.yul\":6827:6845   */\n      tag_325\n      tag_223\n      jump\t// in\n    tag_325:\n        /* \"#utility.yul\":6771:6855   */\n    tag_324:\n        /* \"#utility.yul\":6592:6861   */\n      pop\n        /* \"#utility.yul\":6541:6861   */\n      swap2\n      swap1\n      pop\n      jump\t// out\n        /* \"#utility.yul\":6867:7047   */\n    tag_224:\n        /* \"#utility.yul\":6915:6992   */\n      0x4e487b7100000000000000000000000000000000000000000000000000000000\n        /* \"#utility.yul\":6912:6913   */\n      0x00\n        /* \"#utility.yul\":6905:6993   */\n      mstore\n        /* \"#utility.yul\":7012:7016   */\n      0x11\n        /* \"#utility.yul\":7009:7010   */\n      0x04\n        /* \"#utility.yul\":7002:7017   */\n      mstore\n        /* \"#utility.yul\":7036:7040   */\n      0x24\n        /* \"#utility.yul\":7033:7034   */\n      0x00\n        /* \"#utility.yul\":7026:7041   */\n      revert\n        /* \"#utility.yul\":7053:7244   */\n    tag_111:\n        /* \"#utility.yul\":7093:7096   */\n      0x00\n        /* \"#utility.yul\":7112:7132   */\n      tag_328\n        /* \"#utility.yul\":7130:7131   */\n      dup3\n        /* \"#utility.yul\":7112:7132   */\n      tag_214\n      jump\t// in\n    tag_328:\n        /* \"#utility.yul\":7107:7132   */\n      swap2\n      pop\n        /* \"#utility.yul\":7146:7166   */\n      tag_329\n        /* \"#utility.yul\":7164:7165   */\n      dup4\n        /* \"#utility.yul\":7146:7166   */\n      tag_214\n      jump\t// in\n    tag_329:\n        /* \"#utility.yul\":7141:7166   */\n      swap3\n      pop\n        /* \"#utility.yul\":7189:7190   */\n      dup3\n        /* \"#utility.yul\":7186:7187   */\n      dup3\n        /* \"#utility.yul\":7182:7191   */\n      add\n        /* \"#utility.yul\":7175:7191   */\n      swap1\n      pop\n        /* \"#utility.yul\":7210:7213   */\n      dup1\n        /* \"#utility.yul\":7207:7208   */\n      dup3\n        /* \"#utility.yul\":7204:7214   */\n      gt\n        /* \"#utility.yul\":7201:7237   */\n      iszero\n      tag_330\n      jumpi\n        /* \"#utility.yul\":7217:7235   */\n      tag_331\n      tag_224\n      jump\t// in\n    tag_331:\n        /* \"#utility.yul\":7201:7237   */\n    tag_330:\n        /* \"#utility.yul\":7053:7244   */\n      swap3\n      swap2\n      pop\n      pop\n      jump\t// out\n        /* \"#utility.yul\":7250:7474   */\n    tag_225:\n        /* \"#utility.yul\":7390:7424   */\n      0x45524332303a2064656372656173656420616c6c6f77616e63652062656c6f77\n        /* \"#utility.yul\":7386:7387   */\n      0x00\n        /* \"#utility.yul\":7378:7384   */\n      dup3\n        /* \"#utility.yul\":7374:7388   */\n      add\n        /* \"#utility.yul\":7367:7425   */\n      mstore\n        /* \"#utility.yul\":7459:7466   */\n      0x207a65726f000000000000000000000000000000000000000000000000000000\n        /* \"#utility.yul\":7454:7456   */\n      0x20\n        /* \"#utility.yul\":7446:7452   */\n      dup3\n        /* \"#utility.yul\":7442:7457   */\n      add\n        /* \"#utility.yul\":7435:7467   */\n      mstore\n        /* \"#utility.yul\":7250:7474   */\n      pop\n      jump\t// out\n        /* \"#utility.yul\":7480:7846   */\n    tag_226:\n        /* \"#utility.yul\":7622:7625   */\n      0x00\n        /* \"#utility.yul\":7643:7710   */\n      tag_334\n        /* \"#utility.yul\":7707:7709   */\n      0x25\n        /* \"#utility.yul\":7702:7705   */\n      dup4\n        /* \"#utility.yul\":7643:7710   */\n      tag_203\n      jump\t// in\n    tag_334:\n        /* \"#utility.yul\":7636:7710   */\n      swap2\n      pop\n        /* \"#utility.yul\":7719:7812   */\n      tag_335\n        /* \"#utility.yul\":7808:7811   */\n      dup3\n        /* \"#utility.yul\":7719:7812   */\n      tag_225\n      jump\t// in\n    tag_335:\n        /* \"#utility.yul\":7837:7839   */\n      0x40\n        /* \"#utility.yul\":7832:7835   */\n      dup3\n        /* \"#utility.yul\":7828:7840   */\n      add\n        /* \"#utility.yul\":7821:7840   */\n      swap1\n      pop\n        /* \"#utility.yul\":7480:7846   */\n      swap2\n      swap1\n      pop\n      jump\t// out\n        /* \"#utility.yul\":7852:8271   */\n    tag_139:\n        /* \"#utility.yul\":8018:8022   */\n      0x00\n        /* \"#utility.yul\":8056:8058   */\n      0x20\n        /* \"#utility.yul\":8045:8054   */\n      dup3\n        /* \"#utility.yul\":8041:8059   */\n      add\n        /* \"#utility.yul\":8033:8059   */\n      swap1\n      pop\n        /* \"#utility.yul\":8105:8114   */\n      dup2\n        /* \"#utility.yul\":8099:8103   */\n      dup2\n        /* \"#utility.yul\":8095:8115   */\n      sub\n        /* \"#utility.yul\":8091:8092   */\n      0x00\n        /* \"#utility.yul\":8080:8089   */\n      dup4\n        /* \"#utility.yul\":8076:8093   */\n      add\n        /* \"#utility.yul\":8069:8116   */\n      mstore\n        /* \"#utility.yul\":8133:8264   */\n      tag_337\n        /* \"#utility.yul\":8259:8263   */\n      dup2\n        /* \"#utility.yul\":8133:8264   */\n      tag_226\n      jump\t// in\n    tag_337:\n        /* \"#utility.yul\":8125:8264   */\n      swap1\n      pop\n        /* \"#utility.yul\":7852:8271   */\n      swap2\n      swap1\n      pop\n      jump\t// out\n        /* \"#utility.yul\":8277:8502   */\n    tag_227:\n        /* \"#utility.yul\":8417:8451   */\n      0x4f776e61626c653a206e6577206f776e657220697320746865207a65726f2061\n        /* \"#utility.yul\":8413:8414   */\n      0x00\n        /* \"#utility.yul\":8405:8411   */\n      dup3\n        /* \"#utility.yul\":8401:8415   */\n      add\n        /* \"#utility.yul\":8394:8452   */\n      mstore\n        /* \"#utility.yul\":8486:8494   */\n      0x6464726573730000000000000000000000000000000000000000000000000000\n        /* \"#utility.yul\":8481:8483   */\n      0x20\n        /* \"#utility.yul\":8473:8479   */\n      dup3\n        /* \"#utility.yul\":8469:8484   */\n      add\n        /* \"#utility.yul\":8462:8495   */\n      mstore\n        /* \"#utility.yul\":8277:8502   */\n      pop\n      jump\t// out\n        /* \"#utility.yul\":8508:8874   */\n    tag_228:\n        /* \"#utility.yul\":8650:8653   */\n      0x00\n        /* \"#utility.yul\":8671:8738   */\n      tag_340\n        /* \"#utility.yul\":8735:8737   */\n      0x26\n        /* \"#utility.yul\":8730:8733   */\n      dup4\n        /* \"#utility.yul\":8671:8738   */\n      tag_203\n      jump\t// in\n    tag_340:\n        /* \"#utility.yul\":8664:8738   */\n      swap2\n      pop\n        /* \"#utility.yul\":8747:8840   */\n      tag_341\n        /* \"#utility.yul\":8836:8839   */\n      dup3\n        /* \"#utility.yul\":8747:8840   */\n      tag_227\n      jump\t// in\n    tag_341:\n        /* \"#utility.yul\":8865:8867   */\n      0x40\n        /* \"#utility.yul\":8860:8863   */\n      dup3\n        /* \"#utility.yul\":8856:8868   */\n      add\n        /* \"#utility.yul\":8849:8868   */\n      swap1\n      pop\n        /* \"#utility.yul\":8508:8874   */\n      swap2\n      swap1\n      pop\n      jump\t// out\n        /* \"#utility.yul\":8880:9299   */\n    tag_150:\n        /* \"#utility.yul\":9046:9050   */\n      0x00\n        /* \"#utility.yul\":9084:9086   */\n      0x20\n        /* \"#utility.yul\":9073:9082   */\n      dup3\n        /* \"#utility.yul\":9069:9087   */\n      add\n        /* \"#utility.yul\":9061:9087   */\n      swap1\n      pop\n        /* \"#utility.yul\":9133:9142   */\n      dup2\n        /* \"#utility.yul\":9127:9131   */\n      dup2\n        /* \"#utility.yul\":9123:9143   */\n      sub\n        /* \"#utility.yul\":9119:9120   */\n      0x00\n        /* \"#utility.yul\":9108:9117   */\n      dup4\n        /* \"#utility.yul\":9104:9121   */\n      add\n        /* \"#utility.yul\":9097:9144   */\n      mstore\n        /* \"#utility.yul\":9161:9292   */\n      tag_343\n        /* \"#utility.yul\":9287:9291   */\n      dup2\n        /* \"#utility.yul\":9161:9292   */\n      tag_228\n      jump\t// in\n    tag_343:\n        /* \"#utility.yul\":9153:9292   */\n      swap1\n      pop\n        /* \"#utility.yul\":8880:9299   */\n      swap2\n      swap1\n      pop\n      jump\t// out\n        /* \"#utility.yul\":9305:9528   */\n    tag_229:\n        /* \"#utility.yul\":9445:9479   */\n      0x45524332303a20617070726f76652066726f6d20746865207a65726f20616464\n        /* \"#utility.yul\":9441:9442   */\n      0x00\n        /* \"#utility.yul\":9433:9439   */\n      dup3\n        /* \"#utility.yul\":9429:9443   */\n      add\n        /* \"#utility.yul\":9422:9480   */\n      mstore\n        /* \"#utility.yul\":9514:9520   */\n      0x7265737300000000000000000000000000000000000000000000000000000000\n        /* \"#utility.yul\":9509:9511   */\n      0x20\n        /* \"#utility.yul\":9501:9507   */\n      dup3\n        /* \"#utility.yul\":9497:9512   */\n      add\n        /* \"#utility.yul\":9490:9521   */\n      mstore\n        /* \"#utility.yul\":9305:9528   */\n      pop\n      jump\t// out\n        /* \"#utility.yul\":9534:9900   */\n    tag_230:\n        /* \"#utility.yul\":9676:9679   */\n      0x00\n        /* \"#utility.yul\":9697:9764   */\n      tag_346\n        /* \"#utility.yul\":9761:9763   */\n      0x24\n        /* \"#utility.yul\":9756:9759   */\n      dup4\n        /* \"#utility.yul\":9697:9764   */\n      tag_203\n      jump\t// in\n    tag_346:\n        /* \"#utility.yul\":9690:9764   */\n      swap2\n      pop\n        /* \"#utility.yul\":9773:9866   */\n      tag_347\n        /* \"#utility.yul\":9862:9865   */\n      dup3\n        /* \"#utility.yul\":9773:9866   */\n      tag_229\n      jump\t// in\n    tag_347:\n        /* \"#utility.yul\":9891:9893   */\n      0x40\n        /* \"#utility.yul\":9886:9889   */\n      dup3\n        /* \"#utility.yul\":9882:9894   */\n      add\n        /* \"#utility.yul\":9875:9894   */\n      swap1\n      pop\n        /* \"#utility.yul\":9534:9900   */\n      swap2\n      swap1\n      pop\n      jump\t// out\n        /* \"#utility.yul\":9906:10325   */\n    tag_156:\n        /* \"#utility.yul\":10072:10076   */\n      0x00\n        /* \"#utility.yul\":10110:10112   */\n      0x20\n        /* \"#utility.yul\":10099:10108   */\n      dup3\n        /* \"#utility.yul\":10095:10113   */\n      add\n        /* \"#utility.yul\":10087:10113   */\n      swap1\n      pop\n        /* \"#utility.yul\":10159:10168   */\n      dup2\n        /* \"#utility.yul\":10153:10157   */\n      dup2\n        /* \"#utility.yul\":10149:10169   */\n      sub\n        /* \"#utility.yul\":10145:10146   */\n      0x00\n        /* \"#utility.yul\":10134:10143   */\n      dup4\n        /* \"#utility.yul\":10130:10147   */\n      add\n        /* \"#utility.yul\":10123:10170   */\n      mstore\n        /* \"#utility.yul\":10187:10318   */\n      tag_349\n        /* \"#utility.yul\":10313:10317   */\n      dup2\n        /* \"#utility.yul\":10187:10318   */\n      tag_230\n      jump\t// in\n    tag_349:\n        /* \"#utility.yul\":10179:10318   */\n      swap1\n      pop\n        /* \"#utility.yul\":9906:10325   */\n      swap2\n      swap1\n      pop\n      jump\t// out\n        /* \"#utility.yul\":10331:10552   */\n    tag_231:\n        /* \"#utility.yul\":10471:10505   */\n      0x45524332303a20617070726f766520746f20746865207a65726f206164647265\n        /* \"#utility.yul\":10467:10468   */\n      0x00\n        /* \"#utility.yul\":10459:10465   */\n      dup3\n        /* \"#utility.yul\":10455:10469   */\n      add\n        /* \"#utility.yul\":10448:10506   */\n      mstore\n        /* \"#utility.yul\":10540:10544   */\n      0x7373000000000000000000000000000000000000000000000000000000000000\n        /* \"#utility.yul\":10535:10537   */\n      0x20\n        /* \"#utility.yul\":10527:10533   */\n      dup3\n        /* \"#utility.yul\":10523:10538   */\n      add\n        /* \"#utility.yul\":10516:10545   */\n      mstore\n        /* \"#utility.yul\":10331:10552   */\n      pop\n      jump\t// out\n        /* \"#utility.yul\":10558:10924   */\n    tag_232:\n        /* \"#utility.yul\":10700:10703   */\n      0x00\n        /* \"#utility.yul\":10721:10788   */\n      tag_352\n        /* \"#utility.yul\":10785:10787   */\n      0x22\n        /* \"#utility.yul\":10780:10783   */\n      dup4\n        /* \"#utility.yul\":10721:10788   */\n      tag_203\n      jump\t// in\n    tag_352:\n        /* \"#utility.yul\":10714:10788   */\n      swap2\n      pop\n        /* \"#utility.yul\":10797:10890   */\n      tag_353\n        /* \"#utility.yul\":10886:10889   */\n      dup3\n        /* \"#utility.yul\":10797:10890   */\n      tag_231\n      jump\t// in\n    tag_353:\n        /* \"#utility.yul\":10915:10917   */\n      0x40\n        /* \"#utility.yul\":10910:10913   */\n      dup3\n        /* \"#utility.yul\":10906:10918   */\n      add\n        /* \"#utility.yul\":10899:10918   */\n      swap1\n      pop\n        /* \"#utility.yul\":10558:10924   */\n      swap2\n      swap1\n      pop\n      jump\t// out\n        /* \"#utility.yul\":10930:11349   */\n    tag_159:\n        /* \"#utility.yul\":11096:11100   */\n      0x00\n        /* \"#utility.yul\":11134:11136   */\n      0x20\n        /* \"#utility.yul\":11123:11132   */\n      dup3\n        /* \"#utility.yul\":11119:11137   */\n      add\n        /* \"#utility.yul\":11111:11137   */\n      swap1\n      pop\n        /* \"#utility.yul\":11183:11192   */\n      dup2\n        /* \"#utility.yul\":11177:11181   */\n      dup2\n        /* \"#utility.yul\":11173:11193   */\n      sub\n        /* \"#utility.yul\":11169:11170   */\n      0x00\n        /* \"#utility.yul\":11158:11167   */\n      dup4\n        /* \"#utility.yul\":11154:11171   */\n      add\n        /* \"#utility.yul\":11147:11194   */\n      mstore\n        /* \"#utility.yul\":11211:11342   */\n      tag_355\n        /* \"#utility.yul\":11337:11341   */\n      dup2\n        /* \"#utility.yul\":11211:11342   */\n      tag_232\n      jump\t// in\n    tag_355:\n        /* \"#utility.yul\":11203:11342   */\n      swap1\n      pop\n        /* \"#utility.yul\":10930:11349   */\n      swap2\n      swap1\n      pop\n      jump\t// out\n        /* \"#utility.yul\":11355:11534   */\n    tag_233:\n        /* \"#utility.yul\":11495:11526   */\n      0x45524332303a20696e73756666696369656e7420616c6c6f77616e6365000000\n        /* \"#utility.yul\":11491:11492   */\n      0x00\n        /* \"#utility.yul\":11483:11489   */\n      dup3\n        /* \"#utility.yul\":11479:11493   */\n      add\n        /* \"#utility.yul\":11472:11527   */\n      mstore\n        /* \"#utility.yul\":11355:11534   */\n      pop\n      jump\t// out\n        /* \"#utility.yul\":11540:11906   */\n    tag_234:\n        /* \"#utility.yul\":11682:11685   */\n      0x00\n        /* \"#utility.yul\":11703:11770   */\n      tag_358\n        /* \"#utility.yul\":11767:11769   */\n      0x1d\n        /* \"#utility.yul\":11762:11765   */\n      dup4\n        /* \"#utility.yul\":11703:11770   */\n      tag_203\n      jump\t// in\n    tag_358:\n        /* \"#utility.yul\":11696:11770   */\n      swap2\n      pop\n        /* \"#utility.yul\":11779:11872   */\n      tag_359\n        /* \"#utility.yul\":11868:11871   */\n      dup3\n        /* \"#utility.yul\":11779:11872   */\n      tag_233\n      jump\t// in\n    tag_359:\n        /* \"#utility.yul\":11897:11899   */\n      0x20\n        /* \"#utility.yul\":11892:11895   */\n      dup3\n        /* \"#utility.yul\":11888:11900   */\n      add\n        /* \"#utility.yul\":11881:11900   */\n      swap1\n      pop\n        /* \"#utility.yul\":11540:11906   */\n      swap2\n      swap1\n      pop\n      jump\t// out\n        /* \"#utility.yul\":11912:12331   */\n    tag_166:\n        /* \"#utility.yul\":12078:12082   */\n      0x00\n        /* \"#utility.yul\":12116:12118   */\n      0x20\n        /* \"#utility.yul\":12105:12114   */\n      dup3\n        /* \"#utility.yul\":12101:12119   */\n      add\n        /* \"#utility.yul\":12093:12119   */\n      swap1\n      pop\n        /* \"#utility.yul\":12165:12174   */\n      dup2\n        /* \"#utility.yul\":12159:12163   */\n      dup2\n        /* \"#utility.yul\":12155:12175   */\n      sub\n        /* \"#utility.yul\":12151:12152   */\n      0x00\n        /* \"#utility.yul\":12140:12149   */\n      dup4\n        /* \"#utility.yul\":12136:12153   */\n      add\n        /* \"#utility.yul\":12129:12176   */\n      mstore\n        /* \"#utility.yul\":12193:12324   */\n      tag_361\n        /* \"#utility.yul\":12319:12323   */\n      dup2\n        /* \"#utility.yul\":12193:12324   */\n      tag_234\n      jump\t// in\n    tag_361:\n        /* \"#utility.yul\":12185:12324   */\n      swap1\n      pop\n        /* \"#utility.yul\":11912:12331   */\n      swap2\n      swap1\n      pop\n      jump\t// out\n        /* \"#utility.yul\":12337:12561   */\n    tag_235:\n        /* \"#utility.yul\":12477:12511   */\n      0x45524332303a207472616e736665722066726f6d20746865207a65726f206164\n        /* \"#utility.yul\":12473:12474   */\n      0x00\n        /* \"#utility.yul\":12465:12471   */\n      dup3\n        /* \"#utility.yul\":12461:12475   */\n      add\n        /* \"#utility.yul\":12454:12512   */\n      mstore\n        /* \"#utility.yul\":12546:12553   */\n      0x6472657373000000000000000000000000000000000000000000000000000000\n        /* \"#utility.yul\":12541:12543   */\n      0x20\n        /* \"#utility.yul\":12533:12539   */\n      dup3\n        /* \"#utility.yul\":12529:12544   */\n      add\n        /* \"#utility.yul\":12522:12554   */\n      mstore\n        /* \"#utility.yul\":12337:12561   */\n      pop\n      jump\t// out\n        /* \"#utility.yul\":12567:12933   */\n    tag_236:\n        /* \"#utility.yul\":12709:12712   */\n      0x00\n        /* \"#utility.yul\":12730:12797   */\n      tag_364\n        /* \"#utility.yul\":12794:12796   */\n      0x25\n        /* \"#utility.yul\":12789:12792   */\n      dup4\n        /* \"#utility.yul\":12730:12797   */\n      tag_203\n      jump\t// in\n    tag_364:\n        /* \"#utility.yul\":12723:12797   */\n      swap2\n      pop\n        /* \"#utility.yul\":12806:12899   */\n      tag_365\n        /* \"#utility.yul\":12895:12898   */\n      dup3\n        /* \"#utility.yul\":12806:12899   */\n      tag_235\n      jump\t// in\n    tag_365:\n        /* \"#utility.yul\":12924:12926   */\n      0x40\n        /* \"#utility.yul\":12919:12922   */\n      dup3\n        /* \"#utility.yul\":12915:12927   */\n      add\n        /* \"#utility.yul\":12908:12927   */\n      swap1\n      pop\n        /* \"#utility.yul\":12567:12933   */\n      swap2\n      swap1\n      pop\n      jump\t// out\n        /* \"#utility.yul\":12939:13358   */\n    tag_171:\n        /* \"#utility.yul\":13105:13109   */\n      0x00\n        /* \"#utility.yul\":13143:13145   */\n      0x20\n        /* \"#utility.yul\":13132:13141   */\n      dup3\n        /* \"#utility.yul\":13128:13146   */\n      add\n        /* \"#utility.yul\":13120:13146   */\n      swap1\n      pop\n        /* \"#utility.yul\":13192:13201   */\n      dup2\n        /* \"#utility.yul\":13186:13190   */\n      dup2\n        /* \"#utility.yul\":13182:13202   */\n      sub\n        /* \"#utility.yul\":13178:13179   */\n      0x00\n        /* \"#utility.yul\":13167:13176   */\n      dup4\n        /* \"#utility.yul\":13163:13180   */\n      add\n        /* \"#utility.yul\":13156:13203   */\n      mstore\n        /* \"#utility.yul\":13220:13351   */\n      tag_367\n        /* \"#utility.yul\":13346:13350   */\n      dup2\n        /* \"#utility.yul\":13220:13351   */\n      tag_236\n      jump\t// in\n    tag_367:\n        /* \"#utility.yul\":13212:13351   */\n      swap1\n      pop\n        /* \"#utility.yul\":12939:13358   */\n      swap2\n      swap1\n      pop\n      jump\t// out\n        /* \"#utility.yul\":13364:13586   */\n    tag_237:\n        /* \"#utility.yul\":13504:13538   */\n      0x45524332303a207472616e7366657220746f20746865207a65726f2061646472\n        /* \"#utility.yul\":13500:13501   */\n      0x00\n        /* \"#utility.yul\":13492:13498   */\n      dup3\n        /* \"#utility.yul\":13488:13502   */\n      add\n        /* \"#utility.yul\":13481:13539   */\n      mstore\n        /* \"#utility.yul\":13573:13578   */\n      0x6573730000000000000000000000000000000000000000000000000000000000\n        /* \"#utility.yul\":13568:13570   */\n      0x20\n        /* \"#utility.yul\":13560:13566   */\n      dup3\n        /* \"#utility.yul\":13556:13571   */\n      add\n        /* \"#utility.yul\":13549:13579   */\n      mstore\n        /* \"#utility.yul\":13364:13586   */\n      pop\n      jump\t// out\n        /* \"#utility.yul\":13592:13958   */\n    tag_238:\n        /* \"#utility.yul\":13734:13737   */\n      0x00\n        /* \"#utility.yul\":13755:13822   */\n      tag_370\n        /* \"#utility.yul\":13819:13821   */\n      0x23\n        /* \"#utility.yul\":13814:13817   */\n      dup4\n        /* \"#utility.yul\":13755:13822   */\n      tag_203\n      jump\t// in\n    tag_370:\n        /* \"#utility.yul\":13748:13822   */\n      swap2\n      pop\n        /* \"#utility.yul\":13831:13924   */\n      tag_371\n        /* \"#utility.yul\":13920:13923   */\n      dup3\n        /* \"#utility.yul\":13831:13924   */\n      tag_237\n      jump\t// in\n    tag_371:\n        /* \"#utility.yul\":13949:13951   */\n      0x40\n        /* \"#utility.yul\":13944:13947   */\n      dup3\n        /* \"#utility.yul\":13940:13952   */\n      add\n        /* \"#utility.yul\":13933:13952   */\n      swap1\n      pop\n        /* \"#utility.yul\":13592:13958   */\n      swap2\n      swap1\n      pop\n      jump\t// out\n        /* \"#utility.yul\":13964:14383   */\n    tag_174:\n        /* \"#utility.yul\":14130:14134   */\n      0x00\n        /* \"#utility.yul\":14168:14170   */\n      0x20\n        /* \"#utility.yul\":14157:14166   */\n      dup3\n        /* \"#utility.yul\":14153:14171   */\n      add\n        /* \"#utility.yul\":14145:14171   */\n      swap1\n      pop\n        /* \"#utility.yul\":14217:14226   */\n      dup2\n        /* \"#utility.yul\":14211:14215   */\n      dup2\n        /* \"#utility.yul\":14207:14227   */\n      sub\n        /* \"#utility.yul\":14203:14204   */\n      0x00\n        /* \"#utility.yul\":14192:14201   */\n      dup4\n        /* \"#utility.yul\":14188:14205   */\n      add\n        /* \"#utility.yul\":14181:14228   */\n      mstore\n        /* \"#utility.yul\":14245:14376   */\n      tag_373\n        /* \"#utility.yul\":14371:14375   */\n      dup2\n        /* \"#utility.yul\":14245:14376   */\n      tag_238\n      jump\t// in\n    tag_373:\n        /* \"#utility.yul\":14237:14376   */\n      swap1\n      pop\n        /* \"#utility.yul\":13964:14383   */\n      swap2\n      swap1\n      pop\n      jump\t// out\n        /* \"#utility.yul\":14389:14614   */\n    tag_239:\n        /* \"#utility.yul\":14529:14563   */\n      0x45524332303a207472616e7366657220616d6f756e7420657863656564732062\n        /* \"#utility.yul\":14525:14526   */\n      0x00\n        /* \"#utility.yul\":14517:14523   */\n      dup3\n        /* \"#utility.yul\":14513:14527   */\n      add\n        /* \"#utility.yul\":14506:14564   */\n      mstore\n        /* \"#utility.yul\":14598:14606   */\n      0x616c616e63650000000000000000000000000000000000000000000000000000\n        /* \"#utility.yul\":14593:14595   */\n      0x20\n        /* \"#utility.yul\":14585:14591   */\n      dup3\n        /* \"#utility.yul\":14581:14596   */\n      add\n        /* \"#utility.yul\":14574:14607   */\n      mstore\n        /* \"#utility.yul\":14389:14614   */\n      pop\n      jump\t// out\n        /* \"#utility.yul\":14620:14986   */\n    tag_240:\n        /* \"#utility.yul\":14762:14765   */\n      0x00\n        /* \"#utility.yul\":14783:14850   */\n      tag_376\n        /* \"#utility.yul\":14847:14849   */\n      0x26\n        /* \"#utility.yul\":14842:14845   */\n      dup4\n        /* \"#utility.yul\":14783:14850   */\n      tag_203\n      jump\t// in\n    tag_376:\n        /* \"#utility.yul\":14776:14850   */\n      swap2\n      pop\n        /* \"#utility.yul\":14859:14952   */\n      tag_377\n        /* \"#utility.yul\":14948:14951   */\n      dup3\n        /* \"#utility.yul\":14859:14952   */\n      tag_239\n      jump\t// in\n    tag_377:\n        /* \"#utility.yul\":14977:14979   */\n      0x40\n        /* \"#utility.yul\":14972:14975   */\n      dup3\n        /* \"#utility.yul\":14968:14980   */\n      add\n        /* \"#utility.yul\":14961:14980   */\n      swap1\n      pop\n        /* \"#utility.yul\":14620:14986   */\n      swap2\n      swap1\n      pop\n      jump\t// out\n        /* \"#utility.yul\":14992:15411   */\n    tag_179:\n        /* \"#utility.yul\":15158:15162   */\n      0x00\n        /* \"#utility.yul\":15196:15198   */\n      0x20\n        /* \"#utility.yul\":15185:15194   */\n      dup3\n        /* \"#utility.yul\":15181:15199   */\n      add\n        /* \"#utility.yul\":15173:15199   */\n      swap1\n      pop\n        /* \"#utility.yul\":15245:15254   */\n      dup2\n        /* \"#utility.yul\":15239:15243   */\n      dup2\n        /* \"#utility.yul\":15235:15255   */\n      sub\n        /* \"#utility.yul\":15231:15232   */\n      0x00\n        /* \"#utility.yul\":15220:15229   */\n      dup4\n        /* \"#utility.yul\":15216:15233   */\n      add\n        /* \"#utility.yul\":15209:15256   */\n      mstore\n        /* \"#utility.yul\":15273:15404   */\n      tag_379\n        /* \"#utility.yul\":15399:15403   */\n      dup2\n        /* \"#utility.yul\":15273:15404   */\n      tag_240\n      jump\t// in\n    tag_379:\n        /* \"#utility.yul\":15265:15404   */\n      swap1\n      pop\n        /* \"#utility.yul\":14992:15411   */\n      swap2\n      swap1\n      pop\n      jump\t// out\n        /* \"#utility.yul\":15417:15637   */\n    tag_241:\n        /* \"#utility.yul\":15557:15591   */\n      0x45524332303a206275726e2066726f6d20746865207a65726f20616464726573\n        /* \"#utility.yul\":15553:15554   */\n      0x00\n        /* \"#utility.yul\":15545:15551   */\n      dup3\n        /* \"#utility.yul\":15541:15555   */\n      add\n        /* \"#utility.yul\":15534:15592   */\n      mstore\n        /* \"#utility.yul\":15626:15629   */\n      0x7300000000000000000000000000000000000000000000000000000000000000\n        /* \"#utility.yul\":15621:15623   */\n      0x20\n        /* \"#utility.yul\":15613:15619   */\n      dup3\n        /* \"#utility.yul\":15609:15624   */\n      add\n        /* \"#utility.yul\":15602:15630   */\n      mstore\n        /* \"#utility.yul\":15417:15637   */\n      pop\n      jump\t// out\n        /* \"#utility.yul\":15643:16009   */\n    tag_242:\n        /* \"#utility.yul\":15785:15788   */\n      0x00\n        /* \"#utility.yul\":15806:15873   */\n      tag_382\n        /* \"#utility.yul\":15870:15872   */\n      0x21\n        /* \"#utility.yul\":15865:15868   */\n      dup4\n        /* \"#utility.yul\":15806:15873   */\n      tag_203\n      jump\t// in\n    tag_382:\n        /* \"#utility.yul\":15799:15873   */\n      swap2\n      pop\n        /* \"#utility.yul\":15882:15975   */\n      tag_383\n        /* \"#utility.yul\":15971:15974   */\n      dup3\n        /* \"#utility.yul\":15882:15975   */\n      tag_241\n      jump\t// in\n    tag_383:\n        /* \"#utility.yul\":16000:16002   */\n      0x40\n        /* \"#utility.yul\":15995:15998   */\n      dup3\n        /* \"#utility.yul\":15991:16003   */\n      add\n        /* \"#utility.yul\":15984:16003   */\n      swap1\n      pop\n        /* \"#utility.yul\":15643:16009   */\n      swap2\n      swap1\n      pop\n      jump\t// out\n        /* \"#utility.yul\":16015:16434   */\n    tag_186:\n        /* \"#utility.yul\":16181:16185   */\n      0x00\n        /* \"#utility.yul\":16219:16221   */\n      0x20\n        /* \"#utility.yul\":16208:16217   */\n      dup3\n        /* \"#utility.yul\":16204:16222   */\n      add\n        /* \"#utility.yul\":16196:16222   */\n      swap1\n      pop\n        /* \"#utility.yul\":16268:16277   */\n      dup2\n        /* \"#utility.yul\":16262:16266   */\n      dup2\n        /* \"#utility.yul\":16258:16278   */\n      sub\n        /* \"#utility.yul\":16254:16255   */\n      0x00\n        /* \"#utility.yul\":16243:16252   */\n      dup4\n        /* \"#utility.yul\":16239:16256   */\n      add\n        /* \"#utility.yul\":16232:16279   */\n      mstore\n        /* \"#utility.yul\":16296:16427   */\n      tag_385\n        /* \"#utility.yul\":16422:16426   */\n      dup2\n        /* \"#utility.yul\":16296:16427   */\n      tag_242\n      jump\t// in\n    tag_385:\n        /* \"#utility.yul\":16288:16427   */\n      swap1\n      pop\n        /* \"#utility.yul\":16015:16434   */\n      swap2\n      swap1\n      pop\n      jump\t// out\n        /* \"#utility.yul\":16440:16661   */\n    tag_243:\n        /* \"#utility.yul\":16580:16614   */\n      0x45524332303a206275726e20616d6f756e7420657863656564732062616c616e\n        /* \"#utility.yul\":16576:16577   */\n      0x00\n        /* \"#utility.yul\":16568:16574   */\n      dup3\n        /* \"#utility.yul\":16564:16578   */\n      add\n        /* \"#utility.yul\":16557:16615   */\n      mstore\n        /* \"#utility.yul\":16649:16653   */\n      0x6365000000000000000000000000000000000000000000000000000000000000\n        /* \"#utility.yul\":16644:16646   */\n      0x20\n        /* \"#utility.yul\":16636:16642   */\n      dup3\n        /* \"#utility.yul\":16632:16647   */\n      add\n        /* \"#utility.yul\":16625:16654   */\n      mstore\n        /* \"#utility.yul\":16440:16661   */\n      pop\n      jump\t// out\n        /* \"#utility.yul\":16667:17033   */\n    tag_244:\n        /* \"#utility.yul\":16809:16812   */\n      0x00\n        /* \"#utility.yul\":16830:16897   */\n      tag_388\n        /* \"#utility.yul\":16894:16896   */\n      0x22\n        /* \"#utility.yul\":16889:16892   */\n      dup4\n        /* \"#utility.yul\":16830:16897   */\n      tag_203\n      jump\t// in\n    tag_388:\n        /* \"#utility.yul\":16823:16897   */\n      swap2\n      pop\n        /* \"#utility.yul\":16906:16999   */\n      tag_389\n        /* \"#utility.yul\":16995:16998   */\n      dup3\n        /* \"#utility.yul\":16906:16999   */\n      tag_243\n      jump\t// in\n    tag_389:\n        /* \"#utility.yul\":17024:17026   */\n      0x40\n        /* \"#utility.yul\":17019:17022   */\n      dup3\n        /* \"#utility.yul\":17015:17027   */\n      add\n        /* \"#utility.yul\":17008:17027   */\n      swap1\n      pop\n        /* \"#utility.yul\":16667:17033   */\n      swap2\n      swap1\n      pop\n      jump\t// out\n        /* \"#utility.yul\":17039:17458   */\n    tag_190:\n        /* \"#utility.yul\":17205:17209   */\n      0x00\n        /* \"#utility.yul\":17243:17245   */\n      0x20\n        /* \"#utility.yul\":17232:17241   */\n      dup3\n        /* \"#utility.yul\":17228:17246   */\n      add\n        /* \"#utility.yul\":17220:17246   */\n      swap1\n      pop\n        /* \"#utility.yul\":17292:17301   */\n      dup2\n        /* \"#utility.yul\":17286:17290   */\n      dup2\n        /* \"#utility.yul\":17282:17302   */\n      sub\n        /* \"#utility.yul\":17278:17279   */\n      0x00\n        /* \"#utility.yul\":17267:17276   */\n      dup4\n        /* \"#utility.yul\":17263:17280   */\n      add\n        /* \"#utility.yul\":17256:17303   */\n      mstore\n        /* \"#utility.yul\":17320:17451   */\n      tag_391\n        /* \"#utility.yul\":17446:17450   */\n      dup2\n        /* \"#utility.yul\":17320:17451   */\n      tag_244\n      jump\t// in\n    tag_391:\n        /* \"#utility.yul\":17312:17451   */\n      swap1\n      pop\n        /* \"#utility.yul\":17039:17458   */\n      swap2\n      swap1\n      pop\n      jump\t// out\n        /* \"#utility.yul\":17464:17646   */\n    tag_245:\n        /* \"#utility.yul\":17604:17638   */\n      0x4f776e61626c653a2063616c6c6572206973206e6f7420746865206f776e6572\n        /* \"#utility.yul\":17600:17601   */\n      0x00\n        /* \"#utility.yul\":17592:17598   */\n      dup3\n        /* \"#utility.yul\":17588:17602   */\n      add\n        /* \"#utility.yul\":17581:17639   */\n      mstore\n        /* \"#utility.yul\":17464:17646   */\n      pop\n      jump\t// out\n        /* \"#utility.yul\":17652:18018   */\n    tag_246:\n        /* \"#utility.yul\":17794:17797   */\n      0x00\n        /* \"#utility.yul\":17815:17882   */\n      tag_394\n        /* \"#utility.yul\":17879:17881   */\n      0x20\n        /* \"#utility.yul\":17874:17877   */\n      dup4\n        /* \"#utility.yul\":17815:17882   */\n      tag_203\n      jump\t// in\n    tag_394:\n        /* \"#utility.yul\":17808:17882   */\n      swap2\n      pop\n        /* \"#utility.yul\":17891:17984   */\n      tag_395\n        /* \"#utility.yul\":17980:17983   */\n      dup3\n        /* \"#utility.yul\":17891:17984   */\n      tag_245\n      jump\t// in\n    tag_395:\n        /* \"#utility.yul\":18009:18011   */\n      0x20\n        /* \"#utility.yul\":18004:18007   */\n      dup3\n        /* \"#utility.yul\":18000:18012   */\n      add\n        /* \"#utility.yul\":17993:18012   */\n      swap1\n      pop\n        /* \"#utility.yul\":17652:18018   */\n      swap2\n      swap1\n      pop\n      jump\t// out\n        /* \"#utility.yul\":18024:18443   */\n    tag_198:\n        /* \"#utility.yul\":18190:18194   */\n      0x00\n        /* \"#utility.yul\":18228:18230   */\n      0x20\n        /* \"#utility.yul\":18217:18226   */\n      dup3\n        /* \"#utility.yul\":18213:18231   */\n      add\n        /* \"#utility.yul\":18205:18231   */\n      swap1\n      pop\n        /* \"#utility.yul\":18277:18286   */\n      dup2\n        /* \"#utility.yul\":18271:18275   */\n      dup2\n        /* \"#utility.yul\":18267:18287   */\n      sub\n        /* \"#utility.yul\":18263:18264   */\n      0x00\n        /* \"#utility.yul\":18252:18261   */\n      dup4\n        /* \"#utility.yul\":18248:18265   */\n      add\n        /* \"#utility.yul\":18241:18288   */\n      mstore\n        /* \"#utility.yul\":18305:18436   */\n      tag_397\n        /* \"#utility.yul\":18431:18435   */\n      dup2\n        /* \"#utility.yul\":18305:18436   */\n      tag_246\n      jump\t// in\n    tag_397:\n        /* \"#utility.yul\":18297:18436   */\n      swap1\n      pop\n        /* \"#utility.yul\":18024:18443   */\n      swap2\n      swap1\n      pop\n      jump\t// out\n\n    auxdata: 0xa26469706673582212205c8bec47d2b4e3e24f10d977c13ab2eaa3cdbc7b1c6449a83cc87a43e14bee7664736f6c63430008130033\n}\n",
				"bytecode": {
					"linkReferences": {},
					"object": "60806040523480156200001157600080fd5b50604051620025d2380380620025d2833981810160405281019062000037919062000550565b83838382600390816200004b919062000841565b5081600490816200005d919062000841565b5080600560006101000a81548160ff021916908360ff1602179055505050506200009c62000090620000e860201b60201c565b620000f060201b60201c565b6000620000ae620001b660201b60201c565b600a620000bc919062000aab565b82620000c9919062000afc565b9050620000dd3382620001cd60201b60201c565b505050505062000c33565b600033905090565b6000600560019054906101000a900473ffffffffffffffffffffffffffffffffffffffff16905081600560016101000a81548173ffffffffffffffffffffffffffffffffffffffff021916908373ffffffffffffffffffffffffffffffffffffffff1602179055508173ffffffffffffffffffffffffffffffffffffffff168173ffffffffffffffffffffffffffffffffffffffff167f8be0079c531659141344cd1fd0a4f28419497f9722a3daafe3b4186f6b6457e060405160405180910390a35050565b6000600560009054906101000a900460ff16905090565b600073ffffffffffffffffffffffffffffffffffffffff168273ffffffffffffffffffffffffffffffffffffffff16036200023f576040517f08c379a0000000000000000000000000000000000000000000000000000000008152600401620002369062000ba8565b60405180910390fd5b62000253600083836200033a60201b60201c565b806002600082825462000267919062000bca565b92505081905550806000808473ffffffffffffffffffffffffffffffffffffffff1673ffffffffffffffffffffffffffffffffffffffff168152602001908152602001600020600082825401925050819055508173ffffffffffffffffffffffffffffffffffffffff16600073ffffffffffffffffffffffffffffffffffffffff167fddf252ad1be2c89b69c2b068fc378daa952ba7f163c4a11628f55a4df523b3ef836040516200031a919062000c16565b60405180910390a362000336600083836200033f60201b60201c565b5050565b505050565b505050565b6000604051905090565b600080fd5b600080fd5b600080fd5b600080fd5b6000601f19601f8301169050919050565b7f4e487b7100000000000000000000000000000000000000000000000000000000600052604160045260246000fd5b620003ad8262000362565b810181811067ffffffffffffffff82111715620003cf57620003ce62000373565b5b80604052505050565b6000620003e462000344565b9050620003f28282620003a2565b919050565b600067ffffffffffffffff82111562000415576200041462000373565b5b620004208262000362565b9050602081019050919050565b60005b838110156200044d57808201518184015260208101905062000430565b60008484015250505050565b6000620004706200046a84620003f7565b620003d8565b9050828152602081018484840111156200048f576200048e6200035d565b5b6200049c8482856200042d565b509392505050565b600082601f830112620004bc57620004bb62000358565b5b8151620004ce84826020860162000459565b91505092915050565b600060ff82169050919050565b620004ef81620004d7565b8114620004fb57600080fd5b50565b6000815190506200050f81620004e4565b92915050565b6000819050919050565b6200052a8162000515565b81146200053657600080fd5b50565b6000815190506200054a816200051f565b92915050565b600080600080608085870312156200056d576200056c6200034e565b5b600085015167ffffffffffffffff8111156200058e576200058d62000353565b5b6200059c87828801620004a4565b945050602085015167ffffffffffffffff811115620005c057620005bf62000353565b5b620005ce87828801620004a4565b9350506040620005e187828801620004fe565b9250506060620005f48782880162000539565b91505092959194509250565b600081519050919050565b7f4e487b7100000000000000000000000000000000000000000000000000000000600052602260045260246000fd5b600060028204905060018216806200065357607f821691505b6020821081036200066957620006686200060b565b5b50919050565b60008190508160005260206000209050919050565b60006020601f8301049050919050565b600082821b905092915050565b600060088302620006d37fffffffffffffffffffffffffffffffffffffffffffffffffffffffffffffffff8262000694565b620006df868362000694565b95508019841693508086168417925050509392505050565b6000819050919050565b6000620007226200071c620007168462000515565b620006f7565b62000515565b9050919050565b6000819050919050565b6200073e8362000701565b620007566200074d8262000729565b848454620006a1565b825550505050565b600090565b6200076d6200075e565b6200077a81848462000733565b505050565b5b81811015620007a2576200079660008262000763565b60018101905062000780565b5050565b601f821115620007f157620007bb816200066f565b620007c68462000684565b81016020851015620007d6578190505b620007ee620007e58562000684565b8301826200077f565b50505b505050565b600082821c905092915050565b60006200081660001984600802620007f6565b1980831691505092915050565b600062000831838362000803565b9150826002028217905092915050565b6200084c8262000600565b67ffffffffffffffff81111562000868576200086762000373565b5b6200087482546200063a565b62000881828285620007a6565b600060209050601f831160018114620008b95760008415620008a4578287015190505b620008b0858262000823565b86555062000920565b601f198416620008c9866200066f565b60005b82811015620008f357848901518255600182019150602085019450602081019050620008cc565b868310156200091357848901516200090f601f89168262000803565b8355505b6001600288020188555050505b505050505050565b7f4e487b7100000000000000000000000000000000000000000000000000000000600052601160045260246000fd5b60008160011c9050919050565b6000808291508390505b6001851115620009b6578086048111156200098e576200098d62000928565b5b60018516156200099e5780820291505b8081029050620009ae8562000957565b94506200096e565b94509492505050565b600082620009d1576001905062000aa4565b81620009e1576000905062000aa4565b8160018114620009fa576002811462000a055762000a3b565b600191505062000aa4565b60ff84111562000a1a5762000a1962000928565b5b8360020a91508482111562000a345762000a3362000928565b5b5062000aa4565b5060208310610133831016604e8410600b841016171562000a755782820a90508381111562000a6f5762000a6e62000928565b5b62000aa4565b62000a84848484600162000964565b9250905081840481111562000a9e5762000a9d62000928565b5b81810290505b9392505050565b600062000ab88262000515565b915062000ac583620004d7565b925062000af47fffffffffffffffffffffffffffffffffffffffffffffffffffffffffffffffff8484620009bf565b905092915050565b600062000b098262000515565b915062000b168362000515565b925082820262000b268162000515565b9150828204841483151762000b405762000b3f62000928565b5b5092915050565b600082825260208201905092915050565b7f45524332303a206d696e7420746f20746865207a65726f206164647265737300600082015250565b600062000b90601f8362000b47565b915062000b9d8262000b58565b602082019050919050565b6000602082019050818103600083015262000bc38162000b81565b9050919050565b600062000bd78262000515565b915062000be48362000515565b925082820190508082111562000bff5762000bfe62000928565b5b92915050565b62000c108162000515565b82525050565b600060208201905062000c2d600083018462000c05565b92915050565b61198f8062000c436000396000f3fe608060405234801561001057600080fd5b50600436106101005760003560e01c8063715018a611610097578063a457c2d711610066578063a457c2d71461029d578063a9059cbb146102cd578063dd62ed3e146102fd578063f2fde38b1461032d57610100565b8063715018a61461023b57806379cc6790146102455780638da5cb5b1461026157806395d89b411461027f57610100565b8063313ce567116100d3578063313ce567146101a157806339509351146101bf57806342966c68146101ef57806370a082311461020b57610100565b806306fdde0314610105578063095ea7b31461012357806318160ddd1461015357806323b872dd14610171575b600080fd5b61010d610349565b60405161011a9190610ff3565b60405180910390f35b61013d600480360381019061013891906110ae565b6103db565b60405161014a9190611109565b60405180910390f35b61015b6103fe565b6040516101689190611133565b60405180910390f35b61018b6004803603810190610186919061114e565b610408565b6040516101989190611109565b60405180910390f35b6101a9610437565b6040516101b691906111bd565b60405180910390f35b6101d960048036038101906101d491906110ae565b61044e565b6040516101e69190611109565b60405180910390f35b610209600480360381019061020491906111d8565b610485565b005b61022560048036038101906102209190611205565b610499565b6040516102329190611133565b60405180910390f35b6102436104e1565b005b61025f600480360381019061025a91906110ae565b6104f5565b005b610269610515565b6040516102769190611241565b60405180910390f35b61028761053f565b6040516102949190610ff3565b60405180910390f35b6102b760048036038101906102b291906110ae565b6105d1565b6040516102c49190611109565b60405180910390f35b6102e760048036038101906102e291906110ae565b610648565b6040516102f49190611109565b60405180910390f35b6103176004803603810190610312919061125c565b61066b565b6040516103249190611133565b60405180910390f35b61034760048036038101906103429190611205565b6106f2565b005b606060038054610358906112cb565b80601f0160208091040260200160405190810160405280929190818152602001828054610384906112cb565b80156103d15780601f106103a6576101008083540402835291602001916103d1565b820191906000526020600020905b8154815290600101906020018083116103b457829003601f168201915b5050505050905090565b6000806103e6610775565b90506103f381858561077d565b600191505092915050565b6000600254905090565b600080610413610775565b9050610420858285610946565b61042b8585856109d2565b60019150509392505050565b6000600560009054906101000a900460ff16905090565b600080610459610775565b905061047a81858561046b858961066b565b610475919061132b565b61077d565b600191505092915050565b610496610490610775565b82610c48565b50565b60008060008373ffffffffffffffffffffffffffffffffffffffff1673ffffffffffffffffffffffffffffffffffffffff168152602001908152602001600020549050919050565b6104e9610e15565b6104f36000610e93565b565b61050782610501610775565b83610946565b6105118282610c48565b5050565b6000600560019054906101000a900473ffffffffffffffffffffffffffffffffffffffff16905090565b60606004805461054e906112cb565b80601f016020809104026020016040519081016040528092919081815260200182805461057a906112cb565b80156105c75780601f1061059c576101008083540402835291602001916105c7565b820191906000526020600020905b8154815290600101906020018083116105aa57829003601f168201915b5050505050905090565b6000806105dc610775565b905060006105ea828661066b565b90508381101561062f576040517f08c379a0000000000000000000000000000000000000000000000000000000008152600401610626906113d1565b60405180910390fd5b61063c828686840361077d565b60019250505092915050565b600080610653610775565b90506106608185856109d2565b600191505092915050565b6000600160008473ffffffffffffffffffffffffffffffffffffffff1673ffffffffffffffffffffffffffffffffffffffff16815260200190815260200160002060008373ffffffffffffffffffffffffffffffffffffffff1673ffffffffffffffffffffffffffffffffffffffff16815260200190815260200160002054905092915050565b6106fa610e15565b600073ffffffffffffffffffffffffffffffffffffffff168173ffffffffffffffffffffffffffffffffffffffff1603610769576040517f08c379a000000000000000000000000000000000000000000000000000000000815260040161076090611463565b60405180910390fd5b61077281610e93565b50565b600033905090565b600073ffffffffffffffffffffffffffffffffffffffff168373ffffffffffffffffffffffffffffffffffffffff16036107ec576040517f08c379a00000000000000000000000000000000000000000000000000000000081526004016107e3906114f5565b60405180910390fd5b600073ffffffffffffffffffffffffffffffffffffffff168273ffffffffffffffffffffffffffffffffffffffff160361085b576040517f08c379a000000000000000000000000000000000000000000000000000000000815260040161085290611587565b60405180910390fd5b80600160008573ffffffffffffffffffffffffffffffffffffffff1673ffffffffffffffffffffffffffffffffffffffff16815260200190815260200160002060008473ffffffffffffffffffffffffffffffffffffffff1673ffffffffffffffffffffffffffffffffffffffff168152602001908152602001600020819055508173ffffffffffffffffffffffffffffffffffffffff168373ffffffffffffffffffffffffffffffffffffffff167f8c5be1e5ebec7d5bd14f71427d1e84f3dd0314c0f7b2291e5b200ac8c7c3b925836040516109399190611133565b60405180910390a3505050565b6000610952848461066b565b90507fffffffffffffffffffffffffffffffffffffffffffffffffffffffffffffffff81146109cc57818110156109be576040517f08c379a00000000000000000000000000000000000000000000000000000000081526004016109b5906115f3565b60405180910390fd5b6109cb848484840361077d565b5b50505050565b600073ffffffffffffffffffffffffffffffffffffffff168373ffffffffffffffffffffffffffffffffffffffff1603610a41576040517f08c379a0000000000000000000000000000000000000000000000000000000008152600401610a3890611685565b60405180910390fd5b600073ffffffffffffffffffffffffffffffffffffffff168273ffffffffffffffffffffffffffffffffffffffff1603610ab0576040517f08c379a0000000000000000000000000000000000000000000000000000000008152600401610aa790611717565b60405180910390fd5b610abb838383610f59565b60008060008573ffffffffffffffffffffffffffffffffffffffff1673ffffffffffffffffffffffffffffffffffffffff16815260200190815260200160002054905081811015610b41576040517f08c379a0000000000000000000000000000000000000000000000000000000008152600401610b38906117a9565b60405180910390fd5b8181036000808673ffffffffffffffffffffffffffffffffffffffff1673ffffffffffffffffffffffffffffffffffffffff16815260200190815260200160002081905550816000808573ffffffffffffffffffffffffffffffffffffffff1673ffffffffffffffffffffffffffffffffffffffff168152602001908152602001600020600082825401925050819055508273ffffffffffffffffffffffffffffffffffffffff168473ffffffffffffffffffffffffffffffffffffffff167fddf252ad1be2c89b69c2b068fc378daa952ba7f163c4a11628f55a4df523b3ef84604051610c2f9190611133565b60405180910390a3610c42848484610f5e565b50505050565b600073ffffffffffffffffffffffffffffffffffffffff168273ffffffffffffffffffffffffffffffffffffffff1603610cb7576040517f08c379a0000000000000000000000000000000000000000000000000000000008152600401610cae9061183b565b60405180910390fd5b610cc382600083610f59565b60008060008473ffffffffffffffffffffffffffffffffffffffff1673ffffffffffffffffffffffffffffffffffffffff16815260200190815260200160002054905081811015610d49576040517f08c379a0000000000000000000000000000000000000000000000000000000008152600401610d40906118cd565b60405180910390fd5b8181036000808573ffffffffffffffffffffffffffffffffffffffff1673ffffffffffffffffffffffffffffffffffffffff1681526020019081526020016000208190555081600260008282540392505081905550600073ffffffffffffffffffffffffffffffffffffffff168373ffffffffffffffffffffffffffffffffffffffff167fddf252ad1be2c89b69c2b068fc378daa952ba7f163c4a11628f55a4df523b3ef84604051610dfc9190611133565b60405180910390a3610e1083600084610f5e565b505050565b610e1d610775565b73ffffffffffffffffffffffffffffffffffffffff16610e3b610515565b73ffffffffffffffffffffffffffffffffffffffff1614610e91576040517f08c379a0000000000000000000000000000000000000000000000000000000008152600401610e8890611939565b60405180910390fd5b565b6000600560019054906101000a900473ffffffffffffffffffffffffffffffffffffffff16905081600560016101000a81548173ffffffffffffffffffffffffffffffffffffffff021916908373ffffffffffffffffffffffffffffffffffffffff1602179055508173ffffffffffffffffffffffffffffffffffffffff168173ffffffffffffffffffffffffffffffffffffffff167f8be0079c531659141344cd1fd0a4f28419497f9722a3daafe3b4186f6b6457e060405160405180910390a35050565b505050565b505050565b600081519050919050565b600082825260208201905092915050565b60005b83811015610f9d578082015181840152602081019050610f82565b60008484015250505050565b6000601f19601f8301169050919050565b6000610fc582610f63565b610fcf8185610f6e565b9350610fdf818560208601610f7f565b610fe881610fa9565b840191505092915050565b6000602082019050818103600083015261100d8184610fba565b905092915050565b600080fd5b600073ffffffffffffffffffffffffffffffffffffffff82169050919050565b60006110458261101a565b9050919050565b6110558161103a565b811461106057600080fd5b50565b6000813590506110728161104c565b92915050565b6000819050919050565b61108b81611078565b811461109657600080fd5b50565b6000813590506110a881611082565b92915050565b600080604083850312156110c5576110c4611015565b5b60006110d385828601611063565b92505060206110e485828601611099565b9150509250929050565b60008115159050919050565b611103816110ee565b82525050565b600060208201905061111e60008301846110fa565b92915050565b61112d81611078565b82525050565b60006020820190506111486000830184611124565b92915050565b60008060006060848603121561116757611166611015565b5b600061117586828701611063565b935050602061118686828701611063565b925050604061119786828701611099565b9150509250925092565b600060ff82169050919050565b6111b7816111a1565b82525050565b60006020820190506111d260008301846111ae565b92915050565b6000602082840312156111ee576111ed611015565b5b60006111fc84828501611099565b91505092915050565b60006020828403121561121b5761121a611015565b5b600061122984828501611063565b91505092915050565b61123b8161103a565b82525050565b60006020820190506112566000830184611232565b92915050565b6000806040838503121561127357611272611015565b5b600061128185828601611063565b925050602061129285828601611063565b9150509250929050565b7f4e487b7100000000000000000000000000000000000000000000000000000000600052602260045260246000fd5b600060028204905060018216806112e357607f821691505b6020821081036112f6576112f561129c565b5b50919050565b7f4e487b7100000000000000000000000000000000000000000000000000000000600052601160045260246000fd5b600061133682611078565b915061134183611078565b9250828201905080821115611359576113586112fc565b5b92915050565b7f45524332303a2064656372656173656420616c6c6f77616e63652062656c6f7760008201527f207a65726f000000000000000000000000000000000000000000000000000000602082015250565b60006113bb602583610f6e565b91506113c68261135f565b604082019050919050565b600060208201905081810360008301526113ea816113ae565b9050919050565b7f4f776e61626c653a206e6577206f776e657220697320746865207a65726f206160008201527f6464726573730000000000000000000000000000000000000000000000000000602082015250565b600061144d602683610f6e565b9150611458826113f1565b604082019050919050565b6000602082019050818103600083015261147c81611440565b9050919050565b7f45524332303a20617070726f76652066726f6d20746865207a65726f2061646460008201527f7265737300000000000000000000000000000000000000000000000000000000602082015250565b60006114df602483610f6e565b91506114ea82611483565b604082019050919050565b6000602082019050818103600083015261150e816114d2565b9050919050565b7f45524332303a20617070726f766520746f20746865207a65726f20616464726560008201527f7373000000000000000000000000000000000000000000000000000000000000602082015250565b6000611571602283610f6e565b915061157c82611515565b604082019050919050565b600060208201905081810360008301526115a081611564565b9050919050565b7f45524332303a20696e73756666696369656e7420616c6c6f77616e6365000000600082015250565b60006115dd601d83610f6e565b91506115e8826115a7565b602082019050919050565b6000602082019050818103600083015261160c816115d0565b9050919050565b7f45524332303a207472616e736665722066726f6d20746865207a65726f20616460008201527f6472657373000000000000000000000000000000000000000000000000000000602082015250565b600061166f602583610f6e565b915061167a82611613565b604082019050919050565b6000602082019050818103600083015261169e81611662565b9050919050565b7f45524332303a207472616e7366657220746f20746865207a65726f206164647260008201527f6573730000000000000000000000000000000000000000000000000000000000602082015250565b6000611701602383610f6e565b915061170c826116a5565b604082019050919050565b60006020820190508181036000830152611730816116f4565b9050919050565b7f45524332303a207472616e7366657220616d6f756e742065786365656473206260008201527f616c616e63650000000000000000000000000000000000000000000000000000602082015250565b6000611793602683610f6e565b915061179e82611737565b604082019050919050565b600060208201905081810360008301526117c281611786565b9050919050565b7f45524332303a206275726e2066726f6d20746865207a65726f2061646472657360008201527f7300000000000000000000000000000000000000000000000000000000000000602082015250565b6000611825602183610f6e565b9150611830826117c9565b604082019050919050565b6000602082019050818103600083015261185481611818565b9050919050565b7f45524332303a206275726e20616d6f756e7420657863656564732062616c616e60008201527f6365000000000000000000000000000000000000000000000000000000000000602082015250565b60006118b7602283610f6e565b91506118c28261185b565b604082019050919050565b600060208201905081810360008301526118e6816118aa565b9050919050565b7f4f776e61626c653a2063616c6c6572206973206e6f7420746865206f776e6572600082015250565b6000611923602083610f6e565b915061192e826118ed565b602082019050919050565b6000602082019050818103600083015261195281611916565b905091905056fea26469706673582212205c8bec47d2b4e3e24f10d977c13ab2eaa3cdbc7b1c6449a83cc87a43e14bee7664736f6c63430008130033",
					"opcodes": "PUSH1 0x80 PUSH1 0x40 MSTORE CALLVALUE DUP1 ISZERO PUSH3 0x11 JUMPI PUSH1 0x0 DUP1 REVERT JUMPDEST POP PUSH1 0x40 MLOAD PUSH3 0x25D2 CODESIZE SUB DUP1 PUSH3 0x25D2 DUP4 CODECOPY DUP2 DUP2 ADD PUSH1 0x40 MSTORE DUP2 ADD SWAP1 PUSH3 0x37 SWAP2 SWAP1 PUSH3 0x550 JUMP JUMPDEST DUP4 DUP4 DUP4 DUP3 PUSH1 0x3 SWAP1 DUP2 PUSH3 0x4B SWAP2 SWAP1 PUSH3 0x841 JUMP JUMPDEST POP DUP2 PUSH1 0x4 SWAP1 DUP2 PUSH3 0x5D SWAP2 SWAP1 PUSH3 0x841 JUMP JUMPDEST POP DUP1 PUSH1 0x5 PUSH1 0x0 PUSH2 0x100 EXP DUP2 SLOAD DUP2 PUSH1 0xFF MUL NOT AND SWAP1 DUP4 PUSH1 0xFF AND MUL OR SWAP1 SSTORE POP POP POP POP PUSH3 0x9C PUSH3 0x90 PUSH3 0xE8 PUSH1 0x20 SHL PUSH1 0x20 SHR JUMP JUMPDEST PUSH3 0xF0 PUSH1 0x20 SHL PUSH1 0x20 SHR JUMP JUMPDEST PUSH1 0x0 PUSH3 0xAE PUSH3 0x1B6 PUSH1 0x20 SHL PUSH1 0x20 SHR JUMP JUMPDEST PUSH1 0xA PUSH3 0xBC SWAP2 SWAP1 PUSH3 0xAAB JUMP JUMPDEST DUP3 PUSH3 0xC9 SWAP2 SWAP1 PUSH3 0xAFC JUMP JUMPDEST SWAP1 POP PUSH3 0xDD CALLER DUP3 PUSH3 0x1CD PUSH1 0x20 SHL PUSH1 0x20 SHR JUMP JUMPDEST POP POP POP POP POP PUSH3 0xC33 JUMP JUMPDEST PUSH1 0x0 CALLER SWAP1 POP SWAP1 JUMP JUMPDEST PUSH1 0x0 PUSH1 0x5 PUSH1 0x1 SWAP1 SLOAD SWAP1 PUSH2 0x100 EXP SWAP1 DIV PUSH20 0xFFFFFFFFFFFFFFFFFFFFFFFFFFFFFFFFFFFFFFFF AND SWAP1 POP DUP2 PUSH1 0x5 PUSH1 0x1 PUSH2 0x100 EXP DUP2 SLOAD DUP2 PUSH20 0xFFFFFFFFFFFFFFFFFFFFFFFFFFFFFFFFFFFFFFFF MUL NOT AND SWAP1 DUP4 PUSH20 0xFFFFFFFFFFFFFFFFFFFFFFFFFFFFFFFFFFFFFFFF AND MUL OR SWAP1 SSTORE POP DUP2 PUSH20 0xFFFFFFFFFFFFFFFFFFFFFFFFFFFFFFFFFFFFFFFF AND DUP2 PUSH20 0xFFFFFFFFFFFFFFFFFFFFFFFFFFFFFFFFFFFFFFFF AND PUSH32 0x8BE0079C531659141344CD1FD0A4F28419497F9722A3DAAFE3B4186F6B6457E0 PUSH1 0x40 MLOAD PUSH1 0x40 MLOAD DUP1 SWAP2 SUB SWAP1 LOG3 POP POP JUMP JUMPDEST PUSH1 0x0 PUSH1 0x5 PUSH1 0x0 SWAP1 SLOAD SWAP1 PUSH2 0x100 EXP SWAP1 DIV PUSH1 0xFF AND SWAP1 POP SWAP1 JUMP JUMPDEST PUSH1 0x0 PUSH20 0xFFFFFFFFFFFFFFFFFFFFFFFFFFFFFFFFFFFFFFFF AND DUP3 PUSH20 0xFFFFFFFFFFFFFFFFFFFFFFFFFFFFFFFFFFFFFFFF AND SUB PUSH3 0x23F JUMPI PUSH1 0x40 MLOAD PUSH32 0x8C379A000000000000000000000000000000000000000000000000000000000 DUP2 MSTORE PUSH1 0x4 ADD PUSH3 0x236 SWAP1 PUSH3 0xBA8 JUMP JUMPDEST PUSH1 0x40 MLOAD DUP1 SWAP2 SUB SWAP1 REVERT JUMPDEST PUSH3 0x253 PUSH1 0x0 DUP4 DUP4 PUSH3 0x33A PUSH1 0x20 SHL PUSH1 0x20 SHR JUMP JUMPDEST DUP1 PUSH1 0x2 PUSH1 0x0 DUP3 DUP3 SLOAD PUSH3 0x267 SWAP2 SWAP1 PUSH3 0xBCA JUMP JUMPDEST SWAP3 POP POP DUP2 SWAP1 SSTORE POP DUP1 PUSH1 0x0 DUP1 DUP5 PUSH20 0xFFFFFFFFFFFFFFFFFFFFFFFFFFFFFFFFFFFFFFFF AND PUSH20 0xFFFFFFFFFFFFFFFFFFFFFFFFFFFFFFFFFFFFFFFF AND DUP2 MSTORE PUSH1 0x20 ADD SWAP1 DUP2 MSTORE PUSH1 0x20 ADD PUSH1 0x0 KECCAK256 PUSH1 0x0 DUP3 DUP3 SLOAD ADD SWAP3 POP POP DUP2 SWAP1 SSTORE POP DUP2 PUSH20 0xFFFFFFFFFFFFFFFFFFFFFFFFFFFFFFFFFFFFFFFF AND PUSH1 0x0 PUSH20 0xFFFFFFFFFFFFFFFFFFFFFFFFFFFFFFFFFFFFFFFF AND PUSH32 0xDDF252AD1BE2C89B69C2B068FC378DAA952BA7F163C4A11628F55A4DF523B3EF DUP4 PUSH1 0x40 MLOAD PUSH3 0x31A SWAP2 SWAP1 PUSH3 0xC16 JUMP JUMPDEST PUSH1 0x40 MLOAD DUP1 SWAP2 SUB SWAP1 LOG3 PUSH3 0x336 PUSH1 0x0 DUP4 DUP4 PUSH3 0x33F PUSH1 0x20 SHL PUSH1 0x20 SHR JUMP JUMPDEST POP POP JUMP JUMPDEST POP POP POP JUMP JUMPDEST POP POP POP JUMP JUMPDEST PUSH1 0x0 PUSH1 0x40 MLOAD SWAP1 POP SWAP1 JUMP JUMPDEST PUSH1 0x0 DUP1 REVERT JUMPDEST PUSH1 0x0 DUP1 REVERT JUMPDEST PUSH1 0x0 DUP1 REVERT JUMPDEST PUSH1 0x0 DUP1 REVERT JUMPDEST PUSH1 0x0 PUSH1 0x1F NOT PUSH1 0x1F DUP4 ADD AND SWAP1 POP SWAP2 SWAP1 POP JUMP JUMPDEST PUSH32 0x4E487B7100000000000000000000000000000000000000000000000000000000 PUSH1 0x0 MSTORE PUSH1 0x41 PUSH1 0x4 MSTORE PUSH1 0x24 PUSH1 0x0 REVERT JUMPDEST PUSH3 0x3AD DUP3 PUSH3 0x362 JUMP JUMPDEST DUP2 ADD DUP2 DUP2 LT PUSH8 0xFFFFFFFFFFFFFFFF DUP3 GT OR ISZERO PUSH3 0x3CF JUMPI PUSH3 0x3CE PUSH3 0x373 JUMP JUMPDEST JUMPDEST DUP1 PUSH1 0x40 MSTORE POP POP POP JUMP JUMPDEST PUSH1 0x0 PUSH3 0x3E4 PUSH3 0x344 JUMP JUMPDEST SWAP1 POP PUSH3 0x3F2 DUP3 DUP3 PUSH3 0x3A2 JUMP JUMPDEST SWAP2 SWAP1 POP JUMP JUMPDEST PUSH1 0x0 PUSH8 0xFFFFFFFFFFFFFFFF DUP3 GT ISZERO PUSH3 0x415 JUMPI PUSH3 0x414 PUSH3 0x373 JUMP JUMPDEST JUMPDEST PUSH3 0x420 DUP3 PUSH3 0x362 JUMP JUMPDEST SWAP1 POP PUSH1 0x20 DUP2 ADD SWAP1 POP SWAP2 SWAP1 POP JUMP JUMPDEST PUSH1 0x0 JUMPDEST DUP4 DUP2 LT ISZERO PUSH3 0x44D JUMPI DUP1 DUP3 ADD MLOAD DUP2 DUP5 ADD MSTORE PUSH1 0x20 DUP2 ADD SWAP1 POP PUSH3 0x430 JUMP JUMPDEST PUSH1 0x0 DUP5 DUP5 ADD MSTORE POP POP POP POP JUMP JUMPDEST PUSH1 0x0 PUSH3 0x470 PUSH3 0x46A DUP5 PUSH3 0x3F7 JUMP JUMPDEST PUSH3 0x3D8 JUMP JUMPDEST SWAP1 POP DUP3 DUP2 MSTORE PUSH1 0x20 DUP2 ADD DUP5 DUP5 DUP5 ADD GT ISZERO PUSH3 0x48F JUMPI PUSH3 0x48E PUSH3 0x35D JUMP JUMPDEST JUMPDEST PUSH3 0x49C DUP5 DUP3 DUP6 PUSH3 0x42D JUMP JUMPDEST POP SWAP4 SWAP3 POP POP POP JUMP JUMPDEST PUSH1 0x0 DUP3 PUSH1 0x1F DUP4 ADD SLT PUSH3 0x4BC JUMPI PUSH3 0x4BB PUSH3 0x358 JUMP JUMPDEST JUMPDEST DUP2 MLOAD PUSH3 0x4CE DUP5 DUP3 PUSH1 0x20 DUP7 ADD PUSH3 0x459 JUMP JUMPDEST SWAP2 POP POP SWAP3 SWAP2 POP POP JUMP JUMPDEST PUSH1 0x0 PUSH1 0xFF DUP3 AND SWAP1 POP SWAP2 SWAP1 POP JUMP JUMPDEST PUSH3 0x4EF DUP2 PUSH3 0x4D7 JUMP JUMPDEST DUP2 EQ PUSH3 0x4FB JUMPI PUSH1 0x0 DUP1 REVERT JUMPDEST POP JUMP JUMPDEST PUSH1 0x0 DUP2 MLOAD SWAP1 POP PUSH3 0x50F DUP2 PUSH3 0x4E4 JUMP JUMPDEST SWAP3 SWAP2 POP POP JUMP JUMPDEST PUSH1 0x0 DUP2 SWAP1 POP SWAP2 SWAP1 POP JUMP JUMPDEST PUSH3 0x52A DUP2 PUSH3 0x515 JUMP JUMPDEST DUP2 EQ PUSH3 0x536 JUMPI PUSH1 0x0 DUP1 REVERT JUMPDEST POP JUMP JUMPDEST PUSH1 0x0 DUP2 MLOAD SWAP1 POP PUSH3 0x54A DUP2 PUSH3 0x51F JUMP JUMPDEST SWAP3 SWAP2 POP POP JUMP JUMPDEST PUSH1 0x0 DUP1 PUSH1 0x0 DUP1 PUSH1 0x80 DUP6 DUP8 SUB SLT ISZERO PUSH3 0x56D JUMPI PUSH3 0x56C PUSH3 0x34E JUMP JUMPDEST JUMPDEST PUSH1 0x0 DUP6 ADD MLOAD PUSH8 0xFFFFFFFFFFFFFFFF DUP2 GT ISZERO PUSH3 0x58E JUMPI PUSH3 0x58D PUSH3 0x353 JUMP JUMPDEST JUMPDEST PUSH3 0x59C DUP8 DUP3 DUP9 ADD PUSH3 0x4A4 JUMP JUMPDEST SWAP5 POP POP PUSH1 0x20 DUP6 ADD MLOAD PUSH8 0xFFFFFFFFFFFFFFFF DUP2 GT ISZERO PUSH3 0x5C0 JUMPI PUSH3 0x5BF PUSH3 0x353 JUMP JUMPDEST JUMPDEST PUSH3 0x5CE DUP8 DUP3 DUP9 ADD PUSH3 0x4A4 JUMP JUMPDEST SWAP4 POP POP PUSH1 0x40 PUSH3 0x5E1 DUP8 DUP3 DUP9 ADD PUSH3 0x4FE JUMP JUMPDEST SWAP3 POP POP PUSH1 0x60 PUSH3 0x5F4 DUP8 DUP3 DUP9 ADD PUSH3 0x539 JUMP JUMPDEST SWAP2 POP POP SWAP3 SWAP6 SWAP2 SWAP5 POP SWAP3 POP JUMP JUMPDEST PUSH1 0x0 DUP2 MLOAD SWAP1 POP SWAP2 SWAP1 POP JUMP JUMPDEST PUSH32 0x4E487B7100000000000000000000000000000000000000000000000000000000 PUSH1 0x0 MSTORE PUSH1 0x22 PUSH1 0x4 MSTORE PUSH1 0x24 PUSH1 0x0 REVERT JUMPDEST PUSH1 0x0 PUSH1 0x2 DUP3 DIV SWAP1 POP PUSH1 0x1 DUP3 AND DUP1 PUSH3 0x653 JUMPI PUSH1 0x7F DUP3 AND SWAP2 POP JUMPDEST PUSH1 0x20 DUP3 LT DUP2 SUB PUSH3 0x669 JUMPI PUSH3 0x668 PUSH3 0x60B JUMP JUMPDEST JUMPDEST POP SWAP2 SWAP1 POP JUMP JUMPDEST PUSH1 0x0 DUP2 SWAP1 POP DUP2 PUSH1 0x0 MSTORE PUSH1 0x20 PUSH1 0x0 KECCAK256 SWAP1 POP SWAP2 SWAP1 POP JUMP JUMPDEST PUSH1 0x0 PUSH1 0x20 PUSH1 0x1F DUP4 ADD DIV SWAP1 POP SWAP2 SWAP1 POP JUMP JUMPDEST PUSH1 0x0 DUP3 DUP3 SHL SWAP1 POP SWAP3 SWAP2 POP POP JUMP JUMPDEST PUSH1 0x0 PUSH1 0x8 DUP4 MUL PUSH3 0x6D3 PUSH32 0xFFFFFFFFFFFFFFFFFFFFFFFFFFFFFFFFFFFFFFFFFFFFFFFFFFFFFFFFFFFFFFFF DUP3 PUSH3 0x694 JUMP JUMPDEST PUSH3 0x6DF DUP7 DUP4 PUSH3 0x694 JUMP JUMPDEST SWAP6 POP DUP1 NOT DUP5 AND SWAP4 POP DUP1 DUP7 AND DUP5 OR SWAP3 POP POP POP SWAP4 SWAP3 POP POP POP JUMP JUMPDEST PUSH1 0x0 DUP2 SWAP1 POP SWAP2 SWAP1 POP JUMP JUMPDEST PUSH1 0x0 PUSH3 0x722 PUSH3 0x71C PUSH3 0x716 DUP5 PUSH3 0x515 JUMP JUMPDEST PUSH3 0x6F7 JUMP JUMPDEST PUSH3 0x515 JUMP JUMPDEST SWAP1 POP SWAP2 SWAP1 POP JUMP JUMPDEST PUSH1 0x0 DUP2 SWAP1 POP SWAP2 SWAP1 POP JUMP JUMPDEST PUSH3 0x73E DUP4 PUSH3 0x701 JUMP JUMPDEST PUSH3 0x756 PUSH3 0x74D DUP3 PUSH3 0x729 JUMP JUMPDEST DUP5 DUP5 SLOAD PUSH3 0x6A1 JUMP JUMPDEST DUP3 SSTORE POP POP POP POP JUMP JUMPDEST PUSH1 0x0 SWAP1 JUMP JUMPDEST PUSH3 0x76D PUSH3 0x75E JUMP JUMPDEST PUSH3 0x77A DUP2 DUP5 DUP5 PUSH3 0x733 JUMP JUMPDEST POP POP POP JUMP JUMPDEST JUMPDEST DUP2 DUP2 LT ISZERO PUSH3 0x7A2 JUMPI PUSH3 0x796 PUSH1 0x0 DUP3 PUSH3 0x763 JUMP JUMPDEST PUSH1 0x1 DUP2 ADD SWAP1 POP PUSH3 0x780 JUMP JUMPDEST POP POP JUMP JUMPDEST PUSH1 0x1F DUP3 GT ISZERO PUSH3 0x7F1 JUMPI PUSH3 0x7BB DUP2 PUSH3 0x66F JUMP JUMPDEST PUSH3 0x7C6 DUP5 PUSH3 0x684 JUMP JUMPDEST DUP2 ADD PUSH1 0x20 DUP6 LT ISZERO PUSH3 0x7D6 JUMPI DUP2 SWAP1 POP JUMPDEST PUSH3 0x7EE PUSH3 0x7E5 DUP6 PUSH3 0x684 JUMP JUMPDEST DUP4 ADD DUP3 PUSH3 0x77F JUMP JUMPDEST POP POP JUMPDEST POP POP POP JUMP JUMPDEST PUSH1 0x0 DUP3 DUP3 SHR SWAP1 POP SWAP3 SWAP2 POP POP JUMP JUMPDEST PUSH1 0x0 PUSH3 0x816 PUSH1 0x0 NOT DUP5 PUSH1 0x8 MUL PUSH3 0x7F6 JUMP JUMPDEST NOT DUP1 DUP4 AND SWAP2 POP POP SWAP3 SWAP2 POP POP JUMP JUMPDEST PUSH1 0x0 PUSH3 0x831 DUP4 DUP4 PUSH3 0x803 JUMP JUMPDEST SWAP2 POP DUP3 PUSH1 0x2 MUL DUP3 OR SWAP1 POP SWAP3 SWAP2 POP POP JUMP JUMPDEST PUSH3 0x84C DUP3 PUSH3 0x600 JUMP JUMPDEST PUSH8 0xFFFFFFFFFFFFFFFF DUP2 GT ISZERO PUSH3 0x868 JUMPI PUSH3 0x867 PUSH3 0x373 JUMP JUMPDEST JUMPDEST PUSH3 0x874 DUP3 SLOAD PUSH3 0x63A JUMP JUMPDEST PUSH3 0x881 DUP3 DUP3 DUP6 PUSH3 0x7A6 JUMP JUMPDEST PUSH1 0x0 PUSH1 0x20 SWAP1 POP PUSH1 0x1F DUP4 GT PUSH1 0x1 DUP2 EQ PUSH3 0x8B9 JUMPI PUSH1 0x0 DUP5 ISZERO PUSH3 0x8A4 JUMPI DUP3 DUP8 ADD MLOAD SWAP1 POP JUMPDEST PUSH3 0x8B0 DUP6 DUP3 PUSH3 0x823 JUMP JUMPDEST DUP7 SSTORE POP PUSH3 0x920 JUMP JUMPDEST PUSH1 0x1F NOT DUP5 AND PUSH3 0x8C9 DUP7 PUSH3 0x66F JUMP JUMPDEST PUSH1 0x0 JUMPDEST DUP3 DUP2 LT ISZERO PUSH3 0x8F3 JUMPI DUP5 DUP10 ADD MLOAD DUP3 SSTORE PUSH1 0x1 DUP3 ADD SWAP2 POP PUSH1 0x20 DUP6 ADD SWAP5 POP PUSH1 0x20 DUP2 ADD SWAP1 POP PUSH3 0x8CC JUMP JUMPDEST DUP7 DUP4 LT ISZERO PUSH3 0x913 JUMPI DUP5 DUP10 ADD MLOAD PUSH3 0x90F PUSH1 0x1F DUP10 AND DUP3 PUSH3 0x803 JUMP JUMPDEST DUP4 SSTORE POP JUMPDEST PUSH1 0x1 PUSH1 0x2 DUP9 MUL ADD DUP9 SSTORE POP POP POP JUMPDEST POP POP POP POP POP POP JUMP JUMPDEST PUSH32 0x4E487B7100000000000000000000000000000000000000000000000000000000 PUSH1 0x0 MSTORE PUSH1 0x11 PUSH1 0x4 MSTORE PUSH1 0x24 PUSH1 0x0 REVERT JUMPDEST PUSH1 0x0 DUP2 PUSH1 0x1 SHR SWAP1 POP SWAP2 SWAP1 POP JUMP JUMPDEST PUSH1 0x0 DUP1 DUP3 SWAP2 POP DUP4 SWAP1 POP JUMPDEST PUSH1 0x1 DUP6 GT ISZERO PUSH3 0x9B6 JUMPI DUP1 DUP7 DIV DUP2 GT ISZERO PUSH3 0x98E JUMPI PUSH3 0x98D PUSH3 0x928 JUMP JUMPDEST JUMPDEST PUSH1 0x1 DUP6 AND ISZERO PUSH3 0x99E JUMPI DUP1 DUP3 MUL SWAP2 POP JUMPDEST DUP1 DUP2 MUL SWAP1 POP PUSH3 0x9AE DUP6 PUSH3 0x957 JUMP JUMPDEST SWAP5 POP PUSH3 0x96E JUMP JUMPDEST SWAP5 POP SWAP5 SWAP3 POP POP POP JUMP JUMPDEST PUSH1 0x0 DUP3 PUSH3 0x9D1 JUMPI PUSH1 0x1 SWAP1 POP PUSH3 0xAA4 JUMP JUMPDEST DUP2 PUSH3 0x9E1 JUMPI PUSH1 0x0 SWAP1 POP PUSH3 0xAA4 JUMP JUMPDEST DUP2 PUSH1 0x1 DUP2 EQ PUSH3 0x9FA JUMPI PUSH1 0x2 DUP2 EQ PUSH3 0xA05 JUMPI PUSH3 0xA3B JUMP JUMPDEST PUSH1 0x1 SWAP2 POP POP PUSH3 0xAA4 JUMP JUMPDEST PUSH1 0xFF DUP5 GT ISZERO PUSH3 0xA1A JUMPI PUSH3 0xA19 PUSH3 0x928 JUMP JUMPDEST JUMPDEST DUP4 PUSH1 0x2 EXP SWAP2 POP DUP5 DUP3 GT ISZERO PUSH3 0xA34 JUMPI PUSH3 0xA33 PUSH3 0x928 JUMP JUMPDEST JUMPDEST POP PUSH3 0xAA4 JUMP JUMPDEST POP PUSH1 0x20 DUP4 LT PUSH2 0x133 DUP4 LT AND PUSH1 0x4E DUP5 LT PUSH1 0xB DUP5 LT AND OR ISZERO PUSH3 0xA75 JUMPI DUP3 DUP3 EXP SWAP1 POP DUP4 DUP2 GT ISZERO PUSH3 0xA6F JUMPI PUSH3 0xA6E PUSH3 0x928 JUMP JUMPDEST JUMPDEST PUSH3 0xAA4 JUMP JUMPDEST PUSH3 0xA84 DUP5 DUP5 DUP5 PUSH1 0x1 PUSH3 0x964 JUMP JUMPDEST SWAP3 POP SWAP1 POP DUP2 DUP5 DIV DUP2 GT ISZERO PUSH3 0xA9E JUMPI PUSH3 0xA9D PUSH3 0x928 JUMP JUMPDEST JUMPDEST DUP2 DUP2 MUL SWAP1 POP JUMPDEST SWAP4 SWAP3 POP POP POP JUMP JUMPDEST PUSH1 0x0 PUSH3 0xAB8 DUP3 PUSH3 0x515 JUMP JUMPDEST SWAP2 POP PUSH3 0xAC5 DUP4 PUSH3 0x4D7 JUMP JUMPDEST SWAP3 POP PUSH3 0xAF4 PUSH32 0xFFFFFFFFFFFFFFFFFFFFFFFFFFFFFFFFFFFFFFFFFFFFFFFFFFFFFFFFFFFFFFFF DUP5 DUP5 PUSH3 0x9BF JUMP JUMPDEST SWAP1 POP SWAP3 SWAP2 POP POP JUMP JUMPDEST PUSH1 0x0 PUSH3 0xB09 DUP3 PUSH3 0x515 JUMP JUMPDEST SWAP2 POP PUSH3 0xB16 DUP4 PUSH3 0x515 JUMP JUMPDEST SWAP3 POP DUP3 DUP3 MUL PUSH3 0xB26 DUP2 PUSH3 0x515 JUMP JUMPDEST SWAP2 POP DUP3 DUP3 DIV DUP5 EQ DUP4 ISZERO OR PUSH3 0xB40 JUMPI PUSH3 0xB3F PUSH3 0x928 JUMP JUMPDEST JUMPDEST POP SWAP3 SWAP2 POP POP JUMP JUMPDEST PUSH1 0x0 DUP3 DUP3 MSTORE PUSH1 0x20 DUP3 ADD SWAP1 POP SWAP3 SWAP2 POP POP JUMP JUMPDEST PUSH32 0x45524332303A206D696E7420746F20746865207A65726F206164647265737300 PUSH1 0x0 DUP3 ADD MSTORE POP JUMP JUMPDEST PUSH1 0x0 PUSH3 0xB90 PUSH1 0x1F DUP4 PUSH3 0xB47 JUMP JUMPDEST SWAP2 POP PUSH3 0xB9D DUP3 PUSH3 0xB58 JUMP JUMPDEST PUSH1 0x20 DUP3 ADD SWAP1 POP SWAP2 SWAP1 POP JUMP JUMPDEST PUSH1 0x0 PUSH1 0x20 DUP3 ADD SWAP1 POP DUP2 DUP2 SUB PUSH1 0x0 DUP4 ADD MSTORE PUSH3 0xBC3 DUP2 PUSH3 0xB81 JUMP JUMPDEST SWAP1 POP SWAP2 SWAP1 POP JUMP JUMPDEST PUSH1 0x0 PUSH3 0xBD7 DUP3 PUSH3 0x515 JUMP JUMPDEST SWAP2 POP PUSH3 0xBE4 DUP4 PUSH3 0x515 JUMP JUMPDEST SWAP3 POP DUP3 DUP3 ADD SWAP1 POP DUP1 DUP3 GT ISZERO PUSH3 0xBFF JUMPI PUSH3 0xBFE PUSH3 0x928 JUMP JUMPDEST JUMPDEST SWAP3 SWAP2 POP POP JUMP JUMPDEST PUSH3 0xC10 DUP2 PUSH3 0x515 JUMP JUMPDEST DUP3 MSTORE POP POP JUMP JUMPDEST PUSH1 0x0 PUSH1 0x20 DUP3 ADD SWAP1 POP PUSH3 0xC2D PUSH1 0x0 DUP4 ADD DUP5 PUSH3 0xC05 JUMP JUMPDEST SWAP3 SWAP2 POP POP JUMP JUMPDEST PUSH2 0x198F DUP1 PUSH3 0xC43 PUSH1 0x0 CODECOPY PUSH1 0x0 RETURN INVALID PUSH1 0x80 PUSH1 0x40 MSTORE CALLVALUE DUP1 ISZERO PUSH2 0x10 JUMPI PUSH1 0x0 DUP1 REVERT JUMPDEST POP PUSH1 0x4 CALLDATASIZE LT PUSH2 0x100 JUMPI PUSH1 0x0 CALLDATALOAD PUSH1 0xE0 SHR DUP1 PUSH4 0x715018A6 GT PUSH2 0x97 JUMPI DUP1 PUSH4 0xA457C2D7 GT PUSH2 0x66 JUMPI DUP1 PUSH4 0xA457C2D7 EQ PUSH2 0x29D JUMPI DUP1 PUSH4 0xA9059CBB EQ PUSH2 0x2CD JUMPI DUP1 PUSH4 0xDD62ED3E EQ PUSH2 0x2FD JUMPI DUP1 PUSH4 0xF2FDE38B EQ PUSH2 0x32D JUMPI PUSH2 0x100 JUMP JUMPDEST DUP1 PUSH4 0x715018A6 EQ PUSH2 0x23B JUMPI DUP1 PUSH4 0x79CC6790 EQ PUSH2 0x245 JUMPI DUP1 PUSH4 0x8DA5CB5B EQ PUSH2 0x261 JUMPI DUP1 PUSH4 0x95D89B41 EQ PUSH2 0x27F JUMPI PUSH2 0x100 JUMP JUMPDEST DUP1 PUSH4 0x313CE567 GT PUSH2 0xD3 JUMPI DUP1 PUSH4 0x313CE567 EQ PUSH2 0x1A1 JUMPI DUP1 PUSH4 0x39509351 EQ PUSH2 0x1BF JUMPI DUP1 PUSH4 0x42966C68 EQ PUSH2 0x1EF JUMPI DUP1 PUSH4 0x70A08231 EQ PUSH2 0x20B JUMPI PUSH2 0x100 JUMP JUMPDEST DUP1 PUSH4 0x6FDDE03 EQ PUSH2 0x105 JUMPI DUP1 PUSH4 0x95EA7B3 EQ PUSH2 0x123 JUMPI DUP1 PUSH4 0x18160DDD EQ PUSH2 0x153 JUMPI DUP1 PUSH4 0x23B872DD EQ PUSH2 0x171 JUMPI JUMPDEST PUSH1 0x0 DUP1 REVERT JUMPDEST PUSH2 0x10D PUSH2 0x349 JUMP JUMPDEST PUSH1 0x40 MLOAD PUSH2 0x11A SWAP2 SWAP1 PUSH2 0xFF3 JUMP JUMPDEST PUSH1 0x40 MLOAD DUP1 SWAP2 SUB SWAP1 RETURN JUMPDEST PUSH2 0x13D PUSH1 0x4 DUP1 CALLDATASIZE SUB DUP2 ADD SWAP1 PUSH2 0x138 SWAP2 SWAP1 PUSH2 0x10AE JUMP JUMPDEST PUSH2 0x3DB JUMP JUMPDEST PUSH1 0x40 MLOAD PUSH2 0x14A SWAP2 SWAP1 PUSH2 0x1109 JUMP JUMPDEST PUSH1 0x40 MLOAD DUP1 SWAP2 SUB SWAP1 RETURN JUMPDEST PUSH2 0x15B PUSH2 0x3FE JUMP JUMPDEST PUSH1 0x40 MLOAD PUSH2 0x168 SWAP2 SWAP1 PUSH2 0x1133 JUMP JUMPDEST PUSH1 0x40 MLOAD DUP1 SWAP2 SUB SWAP1 RETURN JUMPDEST PUSH2 0x18B PUSH1 0x4 DUP1 CALLDATASIZE SUB DUP2 ADD SWAP1 PUSH2 0x186 SWAP2 SWAP1 PUSH2 0x114E JUMP JUMPDEST PUSH2 0x408 JUMP JUMPDEST PUSH1 0x40 MLOAD PUSH2 0x198 SWAP2 SWAP1 PUSH2 0x1109 JUMP JUMPDEST PUSH1 0x40 MLOAD DUP1 SWAP2 SUB SWAP1 RETURN JUMPDEST PUSH2 0x1A9 PUSH2 0x437 JUMP JUMPDEST PUSH1 0x40 MLOAD PUSH2 0x1B6 SWAP2 SWAP1 PUSH2 0x11BD JUMP JUMPDEST PUSH1 0x40 MLOAD DUP1 SWAP2 SUB SWAP1 RETURN JUMPDEST PUSH2 0x1D9 PUSH1 0x4 DUP1 CALLDATASIZE SUB DUP2 ADD SWAP1 PUSH2 0x1D4 SWAP2 SWAP1 PUSH2 0x10AE JUMP JUMPDEST PUSH2 0x44E JUMP JUMPDEST PUSH1 0x40 MLOAD PUSH2 0x1E6 SWAP2 SWAP1 PUSH2 0x1109 JUMP JUMPDEST PUSH1 0x40 MLOAD DUP1 SWAP2 SUB SWAP1 RETURN JUMPDEST PUSH2 0x209 PUSH1 0x4 DUP1 CALLDATASIZE SUB DUP2 ADD SWAP1 PUSH2 0x204 SWAP2 SWAP1 PUSH2 0x11D8 JUMP JUMPDEST PUSH2 0x485 JUMP JUMPDEST STOP JUMPDEST PUSH2 0x225 PUSH1 0x4 DUP1 CALLDATASIZE SUB DUP2 ADD SWAP1 PUSH2 0x220 SWAP2 SWAP1 PUSH2 0x1205 JUMP JUMPDEST PUSH2 0x499 JUMP JUMPDEST PUSH1 0x40 MLOAD PUSH2 0x232 SWAP2 SWAP1 PUSH2 0x1133 JUMP JUMPDEST PUSH1 0x40 MLOAD DUP1 SWAP2 SUB SWAP1 RETURN JUMPDEST PUSH2 0x243 PUSH2 0x4E1 JUMP JUMPDEST STOP JUMPDEST PUSH2 0x25F PUSH1 0x4 DUP1 CALLDATASIZE SUB DUP2 ADD SWAP1 PUSH2 0x25A SWAP2 SWAP1 PUSH2 0x10AE JUMP JUMPDEST PUSH2 0x4F5 JUMP JUMPDEST STOP JUMPDEST PUSH2 0x269 PUSH2 0x515 JUMP JUMPDEST PUSH1 0x40 MLOAD PUSH2 0x276 SWAP2 SWAP1 PUSH2 0x1241 JUMP JUMPDEST PUSH1 0x40 MLOAD DUP1 SWAP2 SUB SWAP1 RETURN JUMPDEST PUSH2 0x287 PUSH2 0x53F JUMP JUMPDEST PUSH1 0x40 MLOAD PUSH2 0x294 SWAP2 SWAP1 PUSH2 0xFF3 JUMP JUMPDEST PUSH1 0x40 MLOAD DUP1 SWAP2 SUB SWAP1 RETURN JUMPDEST PUSH2 0x2B7 PUSH1 0x4 DUP1 CALLDATASIZE SUB DUP2 ADD SWAP1 PUSH2 0x2B2 SWAP2 SWAP1 PUSH2 0x10AE JUMP JUMPDEST PUSH2 0x5D1 JUMP JUMPDEST PUSH1 0x40 MLOAD PUSH2 0x2C4 SWAP2 SWAP1 PUSH2 0x1109 JUMP JUMPDEST PUSH1 0x40 MLOAD DUP1 SWAP2 SUB SWAP1 RETURN JUMPDEST PUSH2 0x2E7 PUSH1 0x4 DUP1 CALLDATASIZE SUB DUP2 ADD SWAP1 PUSH2 0x2E2 SWAP2 SWAP1 PUSH2 0x10AE JUMP JUMPDEST PUSH2 0x648 JUMP JUMPDEST PUSH1 0x40 MLOAD PUSH2 0x2F4 SWAP2 SWAP1 PUSH2 0x1109 JUMP JUMPDEST PUSH1 0x40 MLOAD DUP1 SWAP2 SUB SWAP1 RETURN JUMPDEST PUSH2 0x317 PUSH1 0x4 DUP1 CALLDATASIZE SUB DUP2 ADD SWAP1 PUSH2 0x312 SWAP2 SWAP1 PUSH2 0x125C JUMP JUMPDEST PUSH2 0x66B JUMP JUMPDEST PUSH1 0x40 MLOAD PUSH2 0x324 SWAP2 SWAP1 PUSH2 0x1133 JUMP JUMPDEST PUSH1 0x40 MLOAD DUP1 SWAP2 SUB SWAP1 RETURN JUMPDEST PUSH2 0x347 PUSH1 0x4 DUP1 CALLDATASIZE SUB DUP2 ADD SWAP1 PUSH2 0x342 SWAP2 SWAP1 PUSH2 0x1205 JUMP JUMPDEST PUSH2 0x6F2 JUMP JUMPDEST STOP JUMPDEST PUSH1 0x60 PUSH1 0x3 DUP1 SLOAD PUSH2 0x358 SWAP1 PUSH2 0x12CB JUMP JUMPDEST DUP1 PUSH1 0x1F ADD PUSH1 0x20 DUP1 SWAP2 DIV MUL PUSH1 0x20 ADD PUSH1 0x40 MLOAD SWAP1 DUP2 ADD PUSH1 0x40 MSTORE DUP1 SWAP3 SWAP2 SWAP1 DUP2 DUP2 MSTORE PUSH1 0x20 ADD DUP3 DUP1 SLOAD PUSH2 0x384 SWAP1 PUSH2 0x12CB JUMP JUMPDEST DUP1 ISZERO PUSH2 0x3D1 JUMPI DUP1 PUSH1 0x1F LT PUSH2 0x3A6 JUMPI PUSH2 0x100 DUP1 DUP4 SLOAD DIV MUL DUP4 MSTORE SWAP2 PUSH1 0x20 ADD SWAP2 PUSH2 0x3D1 JUMP JUMPDEST DUP3 ADD SWAP2 SWAP1 PUSH1 0x0 MSTORE PUSH1 0x20 PUSH1 0x0 KECCAK256 SWAP1 JUMPDEST DUP2 SLOAD DUP2 MSTORE SWAP1 PUSH1 0x1 ADD SWAP1 PUSH1 0x20 ADD DUP1 DUP4 GT PUSH2 0x3B4 JUMPI DUP3 SWAP1 SUB PUSH1 0x1F AND DUP3 ADD SWAP2 JUMPDEST POP POP POP POP POP SWAP1 POP SWAP1 JUMP JUMPDEST PUSH1 0x0 DUP1 PUSH2 0x3E6 PUSH2 0x775 JUMP JUMPDEST SWAP1 POP PUSH2 0x3F3 DUP2 DUP6 DUP6 PUSH2 0x77D JUMP JUMPDEST PUSH1 0x1 SWAP2 POP POP SWAP3 SWAP2 POP POP JUMP JUMPDEST PUSH1 0x0 PUSH1 0x2 SLOAD SWAP1 POP SWAP1 JUMP JUMPDEST PUSH1 0x0 DUP1 PUSH2 0x413 PUSH2 0x775 JUMP JUMPDEST SWAP1 POP PUSH2 0x420 DUP6 DUP3 DUP6 PUSH2 0x946 JUMP JUMPDEST PUSH2 0x42B DUP6 DUP6 DUP6 PUSH2 0x9D2 JUMP JUMPDEST PUSH1 0x1 SWAP2 POP POP SWAP4 SWAP3 POP POP POP JUMP JUMPDEST PUSH1 0x0 PUSH1 0x5 PUSH1 0x0 SWAP1 SLOAD SWAP1 PUSH2 0x100 EXP SWAP1 DIV PUSH1 0xFF AND SWAP1 POP SWAP1 JUMP JUMPDEST PUSH1 0x0 DUP1 PUSH2 0x459 PUSH2 0x775 JUMP JUMPDEST SWAP1 POP PUSH2 0x47A DUP2 DUP6 DUP6 PUSH2 0x46B DUP6 DUP10 PUSH2 0x66B JUMP JUMPDEST PUSH2 0x475 SWAP2 SWAP1 PUSH2 0x132B JUMP JUMPDEST PUSH2 0x77D JUMP JUMPDEST PUSH1 0x1 SWAP2 POP POP SWAP3 SWAP2 POP POP JUMP JUMPDEST PUSH2 0x496 PUSH2 0x490 PUSH2 0x775 JUMP JUMPDEST DUP3 PUSH2 0xC48 JUMP JUMPDEST POP JUMP JUMPDEST PUSH1 0x0 DUP1 PUSH1 0x0 DUP4 PUSH20 0xFFFFFFFFFFFFFFFFFFFFFFFFFFFFFFFFFFFFFFFF AND PUSH20 0xFFFFFFFFFFFFFFFFFFFFFFFFFFFFFFFFFFFFFFFF AND DUP2 MSTORE PUSH1 0x20 ADD SWAP1 DUP2 MSTORE PUSH1 0x20 ADD PUSH1 0x0 KECCAK256 SLOAD SWAP1 POP SWAP2 SWAP1 POP JUMP JUMPDEST PUSH2 0x4E9 PUSH2 0xE15 JUMP JUMPDEST PUSH2 0x4F3 PUSH1 0x0 PUSH2 0xE93 JUMP JUMPDEST JUMP JUMPDEST PUSH2 0x507 DUP3 PUSH2 0x501 PUSH2 0x775 JUMP JUMPDEST DUP4 PUSH2 0x946 JUMP JUMPDEST PUSH2 0x511 DUP3 DUP3 PUSH2 0xC48 JUMP JUMPDEST POP POP JUMP JUMPDEST PUSH1 0x0 PUSH1 0x5 PUSH1 0x1 SWAP1 SLOAD SWAP1 PUSH2 0x100 EXP SWAP1 DIV PUSH20 0xFFFFFFFFFFFFFFFFFFFFFFFFFFFFFFFFFFFFFFFF AND SWAP1 POP SWAP1 JUMP JUMPDEST PUSH1 0x60 PUSH1 0x4 DUP1 SLOAD PUSH2 0x54E SWAP1 PUSH2 0x12CB JUMP JUMPDEST DUP1 PUSH1 0x1F ADD PUSH1 0x20 DUP1 SWAP2 DIV MUL PUSH1 0x20 ADD PUSH1 0x40 MLOAD SWAP1 DUP2 ADD PUSH1 0x40 MSTORE DUP1 SWAP3 SWAP2 SWAP1 DUP2 DUP2 MSTORE PUSH1 0x20 ADD DUP3 DUP1 SLOAD PUSH2 0x57A SWAP1 PUSH2 0x12CB JUMP JUMPDEST DUP1 ISZERO PUSH2 0x5C7 JUMPI DUP1 PUSH1 0x1F LT PUSH2 0x59C JUMPI PUSH2 0x100 DUP1 DUP4 SLOAD DIV MUL DUP4 MSTORE SWAP2 PUSH1 0x20 ADD SWAP2 PUSH2 0x5C7 JUMP JUMPDEST DUP3 ADD SWAP2 SWAP1 PUSH1 0x0 MSTORE PUSH1 0x20 PUSH1 0x0 KECCAK256 SWAP1 JUMPDEST DUP2 SLOAD DUP2 MSTORE SWAP1 PUSH1 0x1 ADD SWAP1 PUSH1 0x20 ADD DUP1 DUP4 GT PUSH2 0x5AA JUMPI DUP3 SWAP1 SUB PUSH1 0x1F AND DUP3 ADD SWAP2 JUMPDEST POP POP POP POP POP SWAP1 POP SWAP1 JUMP JUMPDEST PUSH1 0x0 DUP1 PUSH2 0x5DC PUSH2 0x775 JUMP JUMPDEST SWAP1 POP PUSH1 0x0 PUSH2 0x5EA DUP3 DUP7 PUSH2 0x66B JUMP JUMPDEST SWAP1 POP DUP4 DUP2 LT ISZERO PUSH2 0x62F JUMPI PUSH1 0x40 MLOAD PUSH32 0x8C379A000000000000000000000000000000000000000000000000000000000 DUP2 MSTORE PUSH1 0x4 ADD PUSH2 0x626 SWAP1 PUSH2 0x13D1 JUMP JUMPDEST PUSH1 0x40 MLOAD DUP1 SWAP2 SUB SWAP1 REVERT JUMPDEST PUSH2 0x63C DUP3 DUP7 DUP7 DUP5 SUB PUSH2 0x77D JUMP JUMPDEST PUSH1 0x1 SWAP3 POP POP POP SWAP3 SWAP2 POP POP JUMP JUMPDEST PUSH1 0x0 DUP1 PUSH2 0x653 PUSH2 0x775 JUMP JUMPDEST SWAP1 POP PUSH2 0x660 DUP2 DUP6 DUP6 PUSH2 0x9D2 JUMP JUMPDEST PUSH1 0x1 SWAP2 POP POP SWAP3 SWAP2 POP POP JUMP JUMPDEST PUSH1 0x0 PUSH1 0x1 PUSH1 0x0 DUP5 PUSH20 0xFFFFFFFFFFFFFFFFFFFFFFFFFFFFFFFFFFFFFFFF AND PUSH20 0xFFFFFFFFFFFFFFFFFFFFFFFFFFFFFFFFFFFFFFFF AND DUP2 MSTORE PUSH1 0x20 ADD SWAP1 DUP2 MSTORE PUSH1 0x20 ADD PUSH1 0x0 KECCAK256 PUSH1 0x0 DUP4 PUSH20 0xFFFFFFFFFFFFFFFFFFFFFFFFFFFFFFFFFFFFFFFF AND PUSH20 0xFFFFFFFFFFFFFFFFFFFFFFFFFFFFFFFFFFFFFFFF AND DUP2 MSTORE PUSH1 0x20 ADD SWAP1 DUP2 MSTORE PUSH1 0x20 ADD PUSH1 0x0 KECCAK256 SLOAD SWAP1 POP SWAP3 SWAP2 POP POP JUMP JUMPDEST PUSH2 0x6FA PUSH2 0xE15 JUMP JUMPDEST PUSH1 0x0 PUSH20 0xFFFFFFFFFFFFFFFFFFFFFFFFFFFFFFFFFFFFFFFF AND DUP2 PUSH20 0xFFFFFFFFFFFFFFFFFFFFFFFFFFFFFFFFFFFFFFFF AND SUB PUSH2 0x769 JUMPI PUSH1 0x40 MLOAD PUSH32 0x8C379A000000000000000000000000000000000000000000000000000000000 DUP2 MSTORE PUSH1 0x4 ADD PUSH2 0x760 SWAP1 PUSH2 0x1463 JUMP JUMPDEST PUSH1 0x40 MLOAD DUP1 SWAP2 SUB SWAP1 REVERT JUMPDEST PUSH2 0x772 DUP2 PUSH2 0xE93 JUMP JUMPDEST POP JUMP JUMPDEST PUSH1 0x0 CALLER SWAP1 POP SWAP1 JUMP JUMPDEST PUSH1 0x0 PUSH20 0xFFFFFFFFFFFFFFFFFFFFFFFFFFFFFFFFFFFFFFFF AND DUP4 PUSH20 0xFFFFFFFFFFFFFFFFFFFFFFFFFFFFFFFFFFFFFFFF AND SUB PUSH2 0x7EC JUMPI PUSH1 0x40 MLOAD PUSH32 0x8C379A000000000000000000000000000000000000000000000000000000000 DUP2 MSTORE PUSH1 0x4 ADD PUSH2 0x7E3 SWAP1 PUSH2 0x14F5 JUMP JUMPDEST PUSH1 0x40 MLOAD DUP1 SWAP2 SUB SWAP1 REVERT JUMPDEST PUSH1 0x0 PUSH20 0xFFFFFFFFFFFFFFFFFFFFFFFFFFFFFFFFFFFFFFFF AND DUP3 PUSH20 0xFFFFFFFFFFFFFFFFFFFFFFFFFFFFFFFFFFFFFFFF AND SUB PUSH2 0x85B JUMPI PUSH1 0x40 MLOAD PUSH32 0x8C379A000000000000000000000000000000000000000000000000000000000 DUP2 MSTORE PUSH1 0x4 ADD PUSH2 0x852 SWAP1 PUSH2 0x1587 JUMP JUMPDEST PUSH1 0x40 MLOAD DUP1 SWAP2 SUB SWAP1 REVERT JUMPDEST DUP1 PUSH1 0x1 PUSH1 0x0 DUP6 PUSH20 0xFFFFFFFFFFFFFFFFFFFFFFFFFFFFFFFFFFFFFFFF AND PUSH20 0xFFFFFFFFFFFFFFFFFFFFFFFFFFFFFFFFFFFFFFFF AND DUP2 MSTORE PUSH1 0x20 ADD SWAP1 DUP2 MSTORE PUSH1 0x20 ADD PUSH1 0x0 KECCAK256 PUSH1 0x0 DUP5 PUSH20 0xFFFFFFFFFFFFFFFFFFFFFFFFFFFFFFFFFFFFFFFF AND PUSH20 0xFFFFFFFFFFFFFFFFFFFFFFFFFFFFFFFFFFFFFFFF AND DUP2 MSTORE PUSH1 0x20 ADD SWAP1 DUP2 MSTORE PUSH1 0x20 ADD PUSH1 0x0 KECCAK256 DUP2 SWAP1 SSTORE POP DUP2 PUSH20 0xFFFFFFFFFFFFFFFFFFFFFFFFFFFFFFFFFFFFFFFF AND DUP4 PUSH20 0xFFFFFFFFFFFFFFFFFFFFFFFFFFFFFFFFFFFFFFFF AND PUSH32 0x8C5BE1E5EBEC7D5BD14F71427D1E84F3DD0314C0F7B2291E5B200AC8C7C3B925 DUP4 PUSH1 0x40 MLOAD PUSH2 0x939 SWAP2 SWAP1 PUSH2 0x1133 JUMP JUMPDEST PUSH1 0x40 MLOAD DUP1 SWAP2 SUB SWAP1 LOG3 POP POP POP JUMP JUMPDEST PUSH1 0x0 PUSH2 0x952 DUP5 DUP5 PUSH2 0x66B JUMP JUMPDEST SWAP1 POP PUSH32 0xFFFFFFFFFFFFFFFFFFFFFFFFFFFFFFFFFFFFFFFFFFFFFFFFFFFFFFFFFFFFFFFF DUP2 EQ PUSH2 0x9CC JUMPI DUP2 DUP2 LT ISZERO PUSH2 0x9BE JUMPI PUSH1 0x40 MLOAD PUSH32 0x8C379A000000000000000000000000000000000000000000000000000000000 DUP2 MSTORE PUSH1 0x4 ADD PUSH2 0x9B5 SWAP1 PUSH2 0x15F3 JUMP JUMPDEST PUSH1 0x40 MLOAD DUP1 SWAP2 SUB SWAP1 REVERT JUMPDEST PUSH2 0x9CB DUP5 DUP5 DUP5 DUP5 SUB PUSH2 0x77D JUMP JUMPDEST JUMPDEST POP POP POP POP JUMP JUMPDEST PUSH1 0x0 PUSH20 0xFFFFFFFFFFFFFFFFFFFFFFFFFFFFFFFFFFFFFFFF AND DUP4 PUSH20 0xFFFFFFFFFFFFFFFFFFFFFFFFFFFFFFFFFFFFFFFF AND SUB PUSH2 0xA41 JUMPI PUSH1 0x40 MLOAD PUSH32 0x8C379A000000000000000000000000000000000000000000000000000000000 DUP2 MSTORE PUSH1 0x4 ADD PUSH2 0xA38 SWAP1 PUSH2 0x1685 JUMP JUMPDEST PUSH1 0x40 MLOAD DUP1 SWAP2 SUB SWAP1 REVERT JUMPDEST PUSH1 0x0 PUSH20 0xFFFFFFFFFFFFFFFFFFFFFFFFFFFFFFFFFFFFFFFF AND DUP3 PUSH20 0xFFFFFFFFFFFFFFFFFFFFFFFFFFFFFFFFFFFFFFFF AND SUB PUSH2 0xAB0 JUMPI PUSH1 0x40 MLOAD PUSH32 0x8C379A000000000000000000000000000000000000000000000000000000000 DUP2 MSTORE PUSH1 0x4 ADD PUSH2 0xAA7 SWAP1 PUSH2 0x1717 JUMP JUMPDEST PUSH1 0x40 MLOAD DUP1 SWAP2 SUB SWAP1 REVERT JUMPDEST PUSH2 0xABB DUP4 DUP4 DUP4 PUSH2 0xF59 JUMP JUMPDEST PUSH1 0x0 DUP1 PUSH1 0x0 DUP6 PUSH20 0xFFFFFFFFFFFFFFFFFFFFFFFFFFFFFFFFFFFFFFFF AND PUSH20 0xFFFFFFFFFFFFFFFFFFFFFFFFFFFFFFFFFFFFFFFF AND DUP2 MSTORE PUSH1 0x20 ADD SWAP1 DUP2 MSTORE PUSH1 0x20 ADD PUSH1 0x0 KECCAK256 SLOAD SWAP1 POP DUP2 DUP2 LT ISZERO PUSH2 0xB41 JUMPI PUSH1 0x40 MLOAD PUSH32 0x8C379A000000000000000000000000000000000000000000000000000000000 DUP2 MSTORE PUSH1 0x4 ADD PUSH2 0xB38 SWAP1 PUSH2 0x17A9 JUMP JUMPDEST PUSH1 0x40 MLOAD DUP1 SWAP2 SUB SWAP1 REVERT JUMPDEST DUP2 DUP2 SUB PUSH1 0x0 DUP1 DUP7 PUSH20 0xFFFFFFFFFFFFFFFFFFFFFFFFFFFFFFFFFFFFFFFF AND PUSH20 0xFFFFFFFFFFFFFFFFFFFFFFFFFFFFFFFFFFFFFFFF AND DUP2 MSTORE PUSH1 0x20 ADD SWAP1 DUP2 MSTORE PUSH1 0x20 ADD PUSH1 0x0 KECCAK256 DUP2 SWAP1 SSTORE POP DUP2 PUSH1 0x0 DUP1 DUP6 PUSH20 0xFFFFFFFFFFFFFFFFFFFFFFFFFFFFFFFFFFFFFFFF AND PUSH20 0xFFFFFFFFFFFFFFFFFFFFFFFFFFFFFFFFFFFFFFFF AND DUP2 MSTORE PUSH1 0x20 ADD SWAP1 DUP2 MSTORE PUSH1 0x20 ADD PUSH1 0x0 KECCAK256 PUSH1 0x0 DUP3 DUP3 SLOAD ADD SWAP3 POP POP DUP2 SWAP1 SSTORE POP DUP3 PUSH20 0xFFFFFFFFFFFFFFFFFFFFFFFFFFFFFFFFFFFFFFFF AND DUP5 PUSH20 0xFFFFFFFFFFFFFFFFFFFFFFFFFFFFFFFFFFFFFFFF AND PUSH32 0xDDF252AD1BE2C89B69C2B068FC378DAA952BA7F163C4A11628F55A4DF523B3EF DUP5 PUSH1 0x40 MLOAD PUSH2 0xC2F SWAP2 SWAP1 PUSH2 0x1133 JUMP JUMPDEST PUSH1 0x40 MLOAD DUP1 SWAP2 SUB SWAP1 LOG3 PUSH2 0xC42 DUP5 DUP5 DUP5 PUSH2 0xF5E JUMP JUMPDEST POP POP POP POP JUMP JUMPDEST PUSH1 0x0 PUSH20 0xFFFFFFFFFFFFFFFFFFFFFFFFFFFFFFFFFFFFFFFF AND DUP3 PUSH20 0xFFFFFFFFFFFFFFFFFFFFFFFFFFFFFFFFFFFFFFFF AND SUB PUSH2 0xCB7 JUMPI PUSH1 0x40 MLOAD PUSH32 0x8C379A000000000000000000000000000000000000000000000000000000000 DUP2 MSTORE PUSH1 0x4 ADD PUSH2 0xCAE SWAP1 PUSH2 0x183B JUMP JUMPDEST PUSH1 0x40 MLOAD DUP1 SWAP2 SUB SWAP1 REVERT JUMPDEST PUSH2 0xCC3 DUP3 PUSH1 0x0 DUP4 PUSH2 0xF59 JUMP JUMPDEST PUSH1 0x0 DUP1 PUSH1 0x0 DUP5 PUSH20 0xFFFFFFFFFFFFFFFFFFFFFFFFFFFFFFFFFFFFFFFF AND PUSH20 0xFFFFFFFFFFFFFFFFFFFFFFFFFFFFFFFFFFFFFFFF AND DUP2 MSTORE PUSH1 0x20 ADD SWAP1 DUP2 MSTORE PUSH1 0x20 ADD PUSH1 0x0 KECCAK256 SLOAD SWAP1 POP DUP2 DUP2 LT ISZERO PUSH2 0xD49 JUMPI PUSH1 0x40 MLOAD PUSH32 0x8C379A000000000000000000000000000000000000000000000000000000000 DUP2 MSTORE PUSH1 0x4 ADD PUSH2 0xD40 SWAP1 PUSH2 0x18CD JUMP JUMPDEST PUSH1 0x40 MLOAD DUP1 SWAP2 SUB SWAP1 REVERT JUMPDEST DUP2 DUP2 SUB PUSH1 0x0 DUP1 DUP6 PUSH20 0xFFFFFFFFFFFFFFFFFFFFFFFFFFFFFFFFFFFFFFFF AND PUSH20 0xFFFFFFFFFFFFFFFFFFFFFFFFFFFFFFFFFFFFFFFF AND DUP2 MSTORE PUSH1 0x20 ADD SWAP1 DUP2 MSTORE PUSH1 0x20 ADD PUSH1 0x0 KECCAK256 DUP2 SWAP1 SSTORE POP DUP2 PUSH1 0x2 PUSH1 0x0 DUP3 DUP3 SLOAD SUB SWAP3 POP POP DUP2 SWAP1 SSTORE POP PUSH1 0x0 PUSH20 0xFFFFFFFFFFFFFFFFFFFFFFFFFFFFFFFFFFFFFFFF AND DUP4 PUSH20 0xFFFFFFFFFFFFFFFFFFFFFFFFFFFFFFFFFFFFFFFF AND PUSH32 0xDDF252AD1BE2C89B69C2B068FC378DAA952BA7F163C4A11628F55A4DF523B3EF DUP5 PUSH1 0x40 MLOAD PUSH2 0xDFC SWAP2 SWAP1 PUSH2 0x1133 JUMP JUMPDEST PUSH1 0x40 MLOAD DUP1 SWAP2 SUB SWAP1 LOG3 PUSH2 0xE10 DUP4 PUSH1 0x0 DUP5 PUSH2 0xF5E JUMP JUMPDEST POP POP POP JUMP JUMPDEST PUSH2 0xE1D PUSH2 0x775 JUMP JUMPDEST PUSH20 0xFFFFFFFFFFFFFFFFFFFFFFFFFFFFFFFFFFFFFFFF AND PUSH2 0xE3B PUSH2 0x515 JUMP JUMPDEST PUSH20 0xFFFFFFFFFFFFFFFFFFFFFFFFFFFFFFFFFFFFFFFF AND EQ PUSH2 0xE91 JUMPI PUSH1 0x40 MLOAD PUSH32 0x8C379A000000000000000000000000000000000000000000000000000000000 DUP2 MSTORE PUSH1 0x4 ADD PUSH2 0xE88 SWAP1 PUSH2 0x1939 JUMP JUMPDEST PUSH1 0x40 MLOAD DUP1 SWAP2 SUB SWAP1 REVERT JUMPDEST JUMP JUMPDEST PUSH1 0x0 PUSH1 0x5 PUSH1 0x1 SWAP1 SLOAD SWAP1 PUSH2 0x100 EXP SWAP1 DIV PUSH20 0xFFFFFFFFFFFFFFFFFFFFFFFFFFFFFFFFFFFFFFFF AND SWAP1 POP DUP2 PUSH1 0x5 PUSH1 0x1 PUSH2 0x100 EXP DUP2 SLOAD DUP2 PUSH20 0xFFFFFFFFFFFFFFFFFFFFFFFFFFFFFFFFFFFFFFFF MUL NOT AND SWAP1 DUP4 PUSH20 0xFFFFFFFFFFFFFFFFFFFFFFFFFFFFFFFFFFFFFFFF AND MUL OR SWAP1 SSTORE POP DUP2 PUSH20 0xFFFFFFFFFFFFFFFFFFFFFFFFFFFFFFFFFFFFFFFF AND DUP2 PUSH20 0xFFFFFFFFFFFFFFFFFFFFFFFFFFFFFFFFFFFFFFFF AND PUSH32 0x8BE0079C531659141344CD1FD0A4F28419497F9722A3DAAFE3B4186F6B6457E0 PUSH1 0x40 MLOAD PUSH1 0x40 MLOAD DUP1 SWAP2 SUB SWAP1 LOG3 POP POP JUMP JUMPDEST POP POP POP JUMP JUMPDEST POP POP POP JUMP JUMPDEST PUSH1 0x0 DUP2 MLOAD SWAP1 POP SWAP2 SWAP1 POP JUMP JUMPDEST PUSH1 0x0 DUP3 DUP3 MSTORE PUSH1 0x20 DUP3 ADD SWAP1 POP SWAP3 SWAP2 POP POP JUMP JUMPDEST PUSH1 0x0 JUMPDEST DUP4 DUP2 LT ISZERO PUSH2 0xF9D JUMPI DUP1 DUP3 ADD MLOAD DUP2 DUP5 ADD MSTORE PUSH1 0x20 DUP2 ADD SWAP1 POP PUSH2 0xF82 JUMP JUMPDEST PUSH1 0x0 DUP5 DUP5 ADD MSTORE POP POP POP POP JUMP JUMPDEST PUSH1 0x0 PUSH1 0x1F NOT PUSH1 0x1F DUP4 ADD AND SWAP1 POP SWAP2 SWAP1 POP JUMP JUMPDEST PUSH1 0x0 PUSH2 0xFC5 DUP3 PUSH2 0xF63 JUMP JUMPDEST PUSH2 0xFCF DUP2 DUP6 PUSH2 0xF6E JUMP JUMPDEST SWAP4 POP PUSH2 0xFDF DUP2 DUP6 PUSH1 0x20 DUP7 ADD PUSH2 0xF7F JUMP JUMPDEST PUSH2 0xFE8 DUP2 PUSH2 0xFA9 JUMP JUMPDEST DUP5 ADD SWAP2 POP POP SWAP3 SWAP2 POP POP JUMP JUMPDEST PUSH1 0x0 PUSH1 0x20 DUP3 ADD SWAP1 POP DUP2 DUP2 SUB PUSH1 0x0 DUP4 ADD MSTORE PUSH2 0x100D DUP2 DUP5 PUSH2 0xFBA JUMP JUMPDEST SWAP1 POP SWAP3 SWAP2 POP POP JUMP JUMPDEST PUSH1 0x0 DUP1 REVERT JUMPDEST PUSH1 0x0 PUSH20 0xFFFFFFFFFFFFFFFFFFFFFFFFFFFFFFFFFFFFFFFF DUP3 AND SWAP1 POP SWAP2 SWAP1 POP JUMP JUMPDEST PUSH1 0x0 PUSH2 0x1045 DUP3 PUSH2 0x101A JUMP JUMPDEST SWAP1 POP SWAP2 SWAP1 POP JUMP JUMPDEST PUSH2 0x1055 DUP2 PUSH2 0x103A JUMP JUMPDEST DUP2 EQ PUSH2 0x1060 JUMPI PUSH1 0x0 DUP1 REVERT JUMPDEST POP JUMP JUMPDEST PUSH1 0x0 DUP2 CALLDATALOAD SWAP1 POP PUSH2 0x1072 DUP2 PUSH2 0x104C JUMP JUMPDEST SWAP3 SWAP2 POP POP JUMP JUMPDEST PUSH1 0x0 DUP2 SWAP1 POP SWAP2 SWAP1 POP JUMP JUMPDEST PUSH2 0x108B DUP2 PUSH2 0x1078 JUMP JUMPDEST DUP2 EQ PUSH2 0x1096 JUMPI PUSH1 0x0 DUP1 REVERT JUMPDEST POP JUMP JUMPDEST PUSH1 0x0 DUP2 CALLDATALOAD SWAP1 POP PUSH2 0x10A8 DUP2 PUSH2 0x1082 JUMP JUMPDEST SWAP3 SWAP2 POP POP JUMP JUMPDEST PUSH1 0x0 DUP1 PUSH1 0x40 DUP4 DUP6 SUB SLT ISZERO PUSH2 0x10C5 JUMPI PUSH2 0x10C4 PUSH2 0x1015 JUMP JUMPDEST JUMPDEST PUSH1 0x0 PUSH2 0x10D3 DUP6 DUP3 DUP7 ADD PUSH2 0x1063 JUMP JUMPDEST SWAP3 POP POP PUSH1 0x20 PUSH2 0x10E4 DUP6 DUP3 DUP7 ADD PUSH2 0x1099 JUMP JUMPDEST SWAP2 POP POP SWAP3 POP SWAP3 SWAP1 POP JUMP JUMPDEST PUSH1 0x0 DUP2 ISZERO ISZERO SWAP1 POP SWAP2 SWAP1 POP JUMP JUMPDEST PUSH2 0x1103 DUP2 PUSH2 0x10EE JUMP JUMPDEST DUP3 MSTORE POP POP JUMP JUMPDEST PUSH1 0x0 PUSH1 0x20 DUP3 ADD SWAP1 POP PUSH2 0x111E PUSH1 0x0 DUP4 ADD DUP5 PUSH2 0x10FA JUMP JUMPDEST SWAP3 SWAP2 POP POP JUMP JUMPDEST PUSH2 0x112D DUP2 PUSH2 0x1078 JUMP JUMPDEST DUP3 MSTORE POP POP JUMP JUMPDEST PUSH1 0x0 PUSH1 0x20 DUP3 ADD SWAP1 POP PUSH2 0x1148 PUSH1 0x0 DUP4 ADD DUP5 PUSH2 0x1124 JUMP JUMPDEST SWAP3 SWAP2 POP POP JUMP JUMPDEST PUSH1 0x0 DUP1 PUSH1 0x0 PUSH1 0x60 DUP5 DUP7 SUB SLT ISZERO PUSH2 0x1167 JUMPI PUSH2 0x1166 PUSH2 0x1015 JUMP JUMPDEST JUMPDEST PUSH1 0x0 PUSH2 0x1175 DUP7 DUP3 DUP8 ADD PUSH2 0x1063 JUMP JUMPDEST SWAP4 POP POP PUSH1 0x20 PUSH2 0x1186 DUP7 DUP3 DUP8 ADD PUSH2 0x1063 JUMP JUMPDEST SWAP3 POP POP PUSH1 0x40 PUSH2 0x1197 DUP7 DUP3 DUP8 ADD PUSH2 0x1099 JUMP JUMPDEST SWAP2 POP POP SWAP3 POP SWAP3 POP SWAP3 JUMP JUMPDEST PUSH1 0x0 PUSH1 0xFF DUP3 AND SWAP1 POP SWAP2 SWAP1 POP JUMP JUMPDEST PUSH2 0x11B7 DUP2 PUSH2 0x11A1 JUMP JUMPDEST DUP3 MSTORE POP POP JUMP JUMPDEST PUSH1 0x0 PUSH1 0x20 DUP3 ADD SWAP1 POP PUSH2 0x11D2 PUSH1 0x0 DUP4 ADD DUP5 PUSH2 0x11AE JUMP JUMPDEST SWAP3 SWAP2 POP POP JUMP JUMPDEST PUSH1 0x0 PUSH1 0x20 DUP3 DUP5 SUB SLT ISZERO PUSH2 0x11EE JUMPI PUSH2 0x11ED PUSH2 0x1015 JUMP JUMPDEST JUMPDEST PUSH1 0x0 PUSH2 0x11FC DUP5 DUP3 DUP6 ADD PUSH2 0x1099 JUMP JUMPDEST SWAP2 POP POP SWAP3 SWAP2 POP POP JUMP JUMPDEST PUSH1 0x0 PUSH1 0x20 DUP3 DUP5 SUB SLT ISZERO PUSH2 0x121B JUMPI PUSH2 0x121A PUSH2 0x1015 JUMP JUMPDEST JUMPDEST PUSH1 0x0 PUSH2 0x1229 DUP5 DUP3 DUP6 ADD PUSH2 0x1063 JUMP JUMPDEST SWAP2 POP POP SWAP3 SWAP2 POP POP JUMP JUMPDEST PUSH2 0x123B DUP2 PUSH2 0x103A JUMP JUMPDEST DUP3 MSTORE POP POP JUMP JUMPDEST PUSH1 0x0 PUSH1 0x20 DUP3 ADD SWAP1 POP PUSH2 0x1256 PUSH1 0x0 DUP4 ADD DUP5 PUSH2 0x1232 JUMP JUMPDEST SWAP3 SWAP2 POP POP JUMP JUMPDEST PUSH1 0x0 DUP1 PUSH1 0x40 DUP4 DUP6 SUB SLT ISZERO PUSH2 0x1273 JUMPI PUSH2 0x1272 PUSH2 0x1015 JUMP JUMPDEST JUMPDEST PUSH1 0x0 PUSH2 0x1281 DUP6 DUP3 DUP7 ADD PUSH2 0x1063 JUMP JUMPDEST SWAP3 POP POP PUSH1 0x20 PUSH2 0x1292 DUP6 DUP3 DUP7 ADD PUSH2 0x1063 JUMP JUMPDEST SWAP2 POP POP SWAP3 POP SWAP3 SWAP1 POP JUMP JUMPDEST PUSH32 0x4E487B7100000000000000000000000000000000000000000000000000000000 PUSH1 0x0 MSTORE PUSH1 0x22 PUSH1 0x4 MSTORE PUSH1 0x24 PUSH1 0x0 REVERT JUMPDEST PUSH1 0x0 PUSH1 0x2 DUP3 DIV SWAP1 POP PUSH1 0x1 DUP3 AND DUP1 PUSH2 0x12E3 JUMPI PUSH1 0x7F DUP3 AND SWAP2 POP JUMPDEST PUSH1 0x20 DUP3 LT DUP2 SUB PUSH2 0x12F6 JUMPI PUSH2 0x12F5 PUSH2 0x129C JUMP JUMPDEST JUMPDEST POP SWAP2 SWAP1 POP JUMP JUMPDEST PUSH32 0x4E487B7100000000000000000000000000000000000000000000000000000000 PUSH1 0x0 MSTORE PUSH1 0x11 PUSH1 0x4 MSTORE PUSH1 0x24 PUSH1 0x0 REVERT JUMPDEST PUSH1 0x0 PUSH2 0x1336 DUP3 PUSH2 0x1078 JUMP JUMPDEST SWAP2 POP PUSH2 0x1341 DUP4 PUSH2 0x1078 JUMP JUMPDEST SWAP3 POP DUP3 DUP3 ADD SWAP1 POP DUP1 DUP3 GT ISZERO PUSH2 0x1359 JUMPI PUSH2 0x1358 PUSH2 0x12FC JUMP JUMPDEST JUMPDEST SWAP3 SWAP2 POP POP JUMP JUMPDEST PUSH32 0x45524332303A2064656372656173656420616C6C6F77616E63652062656C6F77 PUSH1 0x0 DUP3 ADD MSTORE PUSH32 0x207A65726F000000000000000000000000000000000000000000000000000000 PUSH1 0x20 DUP3 ADD MSTORE POP JUMP JUMPDEST PUSH1 0x0 PUSH2 0x13BB PUSH1 0x25 DUP4 PUSH2 0xF6E JUMP JUMPDEST SWAP2 POP PUSH2 0x13C6 DUP3 PUSH2 0x135F JUMP JUMPDEST PUSH1 0x40 DUP3 ADD SWAP1 POP SWAP2 SWAP1 POP JUMP JUMPDEST PUSH1 0x0 PUSH1 0x20 DUP3 ADD SWAP1 POP DUP2 DUP2 SUB PUSH1 0x0 DUP4 ADD MSTORE PUSH2 0x13EA DUP2 PUSH2 0x13AE JUMP JUMPDEST SWAP1 POP SWAP2 SWAP1 POP JUMP JUMPDEST PUSH32 0x4F776E61626C653A206E6577206F776E657220697320746865207A65726F2061 PUSH1 0x0 DUP3 ADD MSTORE PUSH32 0x6464726573730000000000000000000000000000000000000000000000000000 PUSH1 0x20 DUP3 ADD MSTORE POP JUMP JUMPDEST PUSH1 0x0 PUSH2 0x144D PUSH1 0x26 DUP4 PUSH2 0xF6E JUMP JUMPDEST SWAP2 POP PUSH2 0x1458 DUP3 PUSH2 0x13F1 JUMP JUMPDEST PUSH1 0x40 DUP3 ADD SWAP1 POP SWAP2 SWAP1 POP JUMP JUMPDEST PUSH1 0x0 PUSH1 0x20 DUP3 ADD SWAP1 POP DUP2 DUP2 SUB PUSH1 0x0 DUP4 ADD MSTORE PUSH2 0x147C DUP2 PUSH2 0x1440 JUMP JUMPDEST SWAP1 POP SWAP2 SWAP1 POP JUMP JUMPDEST PUSH32 0x45524332303A20617070726F76652066726F6D20746865207A65726F20616464 PUSH1 0x0 DUP3 ADD MSTORE PUSH32 0x7265737300000000000000000000000000000000000000000000000000000000 PUSH1 0x20 DUP3 ADD MSTORE POP JUMP JUMPDEST PUSH1 0x0 PUSH2 0x14DF PUSH1 0x24 DUP4 PUSH2 0xF6E JUMP JUMPDEST SWAP2 POP PUSH2 0x14EA DUP3 PUSH2 0x1483 JUMP JUMPDEST PUSH1 0x40 DUP3 ADD SWAP1 POP SWAP2 SWAP1 POP JUMP JUMPDEST PUSH1 0x0 PUSH1 0x20 DUP3 ADD SWAP1 POP DUP2 DUP2 SUB PUSH1 0x0 DUP4 ADD MSTORE PUSH2 0x150E DUP2 PUSH2 0x14D2 JUMP JUMPDEST SWAP1 POP SWAP2 SWAP1 POP JUMP JUMPDEST PUSH32 0x45524332303A20617070726F766520746F20746865207A65726F206164647265 PUSH1 0x0 DUP3 ADD MSTORE PUSH32 0x7373000000000000000000000000000000000000000000000000000000000000 PUSH1 0x20 DUP3 ADD MSTORE POP JUMP JUMPDEST PUSH1 0x0 PUSH2 0x1571 PUSH1 0x22 DUP4 PUSH2 0xF6E JUMP JUMPDEST SWAP2 POP PUSH2 0x157C DUP3 PUSH2 0x1515 JUMP JUMPDEST PUSH1 0x40 DUP3 ADD SWAP1 POP SWAP2 SWAP1 POP JUMP JUMPDEST PUSH1 0x0 PUSH1 0x20 DUP3 ADD SWAP1 POP DUP2 DUP2 SUB PUSH1 0x0 DUP4 ADD MSTORE PUSH2 0x15A0 DUP2 PUSH2 0x1564 JUMP JUMPDEST SWAP1 POP SWAP2 SWAP1 POP JUMP JUMPDEST PUSH32 0x45524332303A20696E73756666696369656E7420616C6C6F77616E6365000000 PUSH1 0x0 DUP3 ADD MSTORE POP JUMP JUMPDEST PUSH1 0x0 PUSH2 0x15DD PUSH1 0x1D DUP4 PUSH2 0xF6E JUMP JUMPDEST SWAP2 POP PUSH2 0x15E8 DUP3 PUSH2 0x15A7 JUMP JUMPDEST PUSH1 0x20 DUP3 ADD SWAP1 POP SWAP2 SWAP1 POP JUMP JUMPDEST PUSH1 0x0 PUSH1 0x20 DUP3 ADD SWAP1 POP DUP2 DUP2 SUB PUSH1 0x0 DUP4 ADD MSTORE PUSH2 0x160C DUP2 PUSH2 0x15D0 JUMP JUMPDEST SWAP1 POP SWAP2 SWAP1 POP JUMP JUMPDEST PUSH32 0x45524332303A207472616E736665722066726F6D20746865207A65726F206164 PUSH1 0x0 DUP3 ADD MSTORE PUSH32 0x6472657373000000000000000000000000000000000000000000000000000000 PUSH1 0x20 DUP3 ADD MSTORE POP JUMP JUMPDEST PUSH1 0x0 PUSH2 0x166F PUSH1 0x25 DUP4 PUSH2 0xF6E JUMP JUMPDEST SWAP2 POP PUSH2 0x167A DUP3 PUSH2 0x1613 JUMP JUMPDEST PUSH1 0x40 DUP3 ADD SWAP1 POP SWAP2 SWAP1 POP JUMP JUMPDEST PUSH1 0x0 PUSH1 0x20 DUP3 ADD SWAP1 POP DUP2 DUP2 SUB PUSH1 0x0 DUP4 ADD MSTORE PUSH2 0x169E DUP2 PUSH2 0x1662 JUMP JUMPDEST SWAP1 POP SWAP2 SWAP1 POP JUMP JUMPDEST PUSH32 0x45524332303A207472616E7366657220746F20746865207A65726F2061646472 PUSH1 0x0 DUP3 ADD MSTORE PUSH32 0x6573730000000000000000000000000000000000000000000000000000000000 PUSH1 0x20 DUP3 ADD MSTORE POP JUMP JUMPDEST PUSH1 0x0 PUSH2 0x1701 PUSH1 0x23 DUP4 PUSH2 0xF6E JUMP JUMPDEST SWAP2 POP PUSH2 0x170C DUP3 PUSH2 0x16A5 JUMP JUMPDEST PUSH1 0x40 DUP3 ADD SWAP1 POP SWAP2 SWAP1 POP JUMP JUMPDEST PUSH1 0x0 PUSH1 0x20 DUP3 ADD SWAP1 POP DUP2 DUP2 SUB PUSH1 0x0 DUP4 ADD MSTORE PUSH2 0x1730 DUP2 PUSH2 0x16F4 JUMP JUMPDEST SWAP1 POP SWAP2 SWAP1 POP JUMP JUMPDEST PUSH32 0x45524332303A207472616E7366657220616D6F756E7420657863656564732062 PUSH1 0x0 DUP3 ADD MSTORE PUSH32 0x616C616E63650000000000000000000000000000000000000000000000000000 PUSH1 0x20 DUP3 ADD MSTORE POP JUMP JUMPDEST PUSH1 0x0 PUSH2 0x1793 PUSH1 0x26 DUP4 PUSH2 0xF6E JUMP JUMPDEST SWAP2 POP PUSH2 0x179E DUP3 PUSH2 0x1737 JUMP JUMPDEST PUSH1 0x40 DUP3 ADD SWAP1 POP SWAP2 SWAP1 POP JUMP JUMPDEST PUSH1 0x0 PUSH1 0x20 DUP3 ADD SWAP1 POP DUP2 DUP2 SUB PUSH1 0x0 DUP4 ADD MSTORE PUSH2 0x17C2 DUP2 PUSH2 0x1786 JUMP JUMPDEST SWAP1 POP SWAP2 SWAP1 POP JUMP JUMPDEST PUSH32 0x45524332303A206275726E2066726F6D20746865207A65726F20616464726573 PUSH1 0x0 DUP3 ADD MSTORE PUSH32 0x7300000000000000000000000000000000000000000000000000000000000000 PUSH1 0x20 DUP3 ADD MSTORE POP JUMP JUMPDEST PUSH1 0x0 PUSH2 0x1825 PUSH1 0x21 DUP4 PUSH2 0xF6E JUMP JUMPDEST SWAP2 POP PUSH2 0x1830 DUP3 PUSH2 0x17C9 JUMP JUMPDEST PUSH1 0x40 DUP3 ADD SWAP1 POP SWAP2 SWAP1 POP JUMP JUMPDEST PUSH1 0x0 PUSH1 0x20 DUP3 ADD SWAP1 POP DUP2 DUP2 SUB PUSH1 0x0 DUP4 ADD MSTORE PUSH2 0x1854 DUP2 PUSH2 0x1818 JUMP JUMPDEST SWAP1 POP SWAP2 SWAP1 POP JUMP JUMPDEST PUSH32 0x45524332303A206275726E20616D6F756E7420657863656564732062616C616E PUSH1 0x0 DUP3 ADD MSTORE PUSH32 0x6365000000000000000000000000000000000000000000000000000000000000 PUSH1 0x20 DUP3 ADD MSTORE POP JUMP JUMPDEST PUSH1 0x0 PUSH2 0x18B7 PUSH1 0x22 DUP4 PUSH2 0xF6E JUMP JUMPDEST SWAP2 POP PUSH2 0x18C2 DUP3 PUSH2 0x185B JUMP JUMPDEST PUSH1 0x40 DUP3 ADD SWAP1 POP SWAP2 SWAP1 POP JUMP JUMPDEST PUSH1 0x0 PUSH1 0x20 DUP3 ADD SWAP1 POP DUP2 DUP2 SUB PUSH1 0x0 DUP4 ADD MSTORE PUSH2 0x18E6 DUP2 PUSH2 0x18AA JUMP JUMPDEST SWAP1 POP SWAP2 SWAP1 POP JUMP JUMPDEST PUSH32 0x4F776E61626C653A2063616C6C6572206973206E6F7420746865206F776E6572 PUSH1 0x0 DUP3 ADD MSTORE POP JUMP JUMPDEST PUSH1 0x0 PUSH2 0x1923 PUSH1 0x20 DUP4 PUSH2 0xF6E JUMP JUMPDEST SWAP2 POP PUSH2 0x192E DUP3 PUSH2 0x18ED JUMP JUMPDEST PUSH1 0x20 DUP3 ADD SWAP1 POP SWAP2 SWAP1 POP JUMP JUMPDEST PUSH1 0x0 PUSH1 0x20 DUP3 ADD SWAP1 POP DUP2 DUP2 SUB PUSH1 0x0 DUP4 ADD MSTORE PUSH2 0x1952 DUP2 PUSH2 0x1916 JUMP JUMPDEST SWAP1 POP SWAP2 SWAP1 POP JUMP INVALID LOG2 PUSH5 0x6970667358 0x22 SLT KECCAK256 0x5C DUP12 0xEC SELFBALANCE 0xD2 0xB4 0xE3 0xE2 0x4F LT 0xD9 PUSH24 0xC13AB2EAA3CDBC7B1C6449A83CC87A43E14BEE7664736F6C PUSH4 0x43000813 STOP CALLER "
				},
				"gasEstimates": {
					"creation": {
						"codeDepositCost": "1308600",
						"executionCost": "infinite",
						"totalCost": "infinite"
					},
					"external": {
						"allowance(address,address)": "infinite",
						"approve(address,uint256)": "infinite",
						"balanceOf(address)": "2930",
						"burn(uint256)": "infinite",
						"burnFrom(address,uint256)": "infinite",
						"decimals()": "2502",
						"decreaseAllowance(address,uint256)": "infinite",
						"increaseAllowance(address,uint256)": "infinite",
						"name()": "infinite",
						"owner()": "2639",
						"renounceOwnership()": "30571",
						"symbol()": "infinite",
						"totalSupply()": "2505",
						"transfer(address,uint256)": "infinite",
						"transferFrom(address,address,uint256)": "infinite",
						"transferOwnership(address)": "30982"
					}
				},
				"methodIdentifiers": {
					"allowance(address,address)": "dd62ed3e",
					"approve(address,uint256)": "095ea7b3",
					"balanceOf(address)": "70a08231",
					"burn(uint256)": "42966c68",
					"burnFrom(address,uint256)": "79cc6790",
					"decimals()": "313ce567",
					"decreaseAllowance(address,uint256)": "a457c2d7",
					"increaseAllowance(address,uint256)": "39509351",
					"name()": "06fdde03",
					"owner()": "8da5cb5b",
					"renounceOwnership()": "715018a6",
					"symbol()": "95d89b41",
					"totalSupply()": "18160ddd",
					"transfer(address,uint256)": "a9059cbb",
					"transferFrom(address,address,uint256)": "23b872dd",
					"transferOwnership(address)": "f2fde38b"
				}
			},
			"storageLayout": {
				"storage": [
					{
						"astId": 118,
						"contract": "token/Contract_flattened.sol:UnfetteredEcosystem",
						"label": "_balances",
						"offset": 0,
						"slot": "0",
						"type": "t_mapping(t_address,t_uint256)"
					},
					{
						"astId": 124,
						"contract": "token/Contract_flattened.sol:UnfetteredEcosystem",
						"label": "_allowances",
						"offset": 0,
						"slot": "1",
						"type": "t_mapping(t_address,t_mapping(t_address,t_uint256))"
					},
					{
						"astId": 126,
						"contract": "token/Contract_flattened.sol:UnfetteredEcosystem",
						"label": "_totalSupply",
						"offset": 0,
						"slot": "2",
						"type": "t_uint256"
					},
					{
						"astId": 128,
						"contract": "token/Contract_flattened.sol:UnfetteredEcosystem",
						"label": "_name",
						"offset": 0,
						"slot": "3",
						"type": "t_string_storage"
					},
					{
						"astId": 130,
						"contract": "token/Contract_flattened.sol:UnfetteredEcosystem",
						"label": "_symbol",
						"offset": 0,
						"slot": "4",
						"type": "t_string_storage"
					},
					{
						"astId": 132,
						"contract": "token/Contract_flattened.sol:UnfetteredEcosystem",
						"label": "_decimal",
						"offset": 0,
						"slot": "5",
						"type": "t_uint8"
					},
					{
						"astId": 721,
						"contract": "token/Contract_flattened.sol:UnfetteredEcosystem",
						"label": "_owner",
						"offset": 1,
						"slot": "5",
						"type": "t_address"
					}
				],
				"types": {
					"t_address": {
						"encoding": "inplace",
						"label": "address",
						"numberOfBytes": "20"
					},
					"t_mapping(t_address,t_mapping(t_address,t_uint256))": {
						"encoding": "mapping",
						"key": "t_address",
						"label": "mapping(address => mapping(address => uint256))",
						"numberOfBytes": "32",
						"value": "t_mapping(t_address,t_uint256)"
					},
					"t_mapping(t_address,t_uint256)": {
						"encoding": "mapping",
						"key": "t_address",
						"label": "mapping(address => uint256)",
						"numberOfBytes": "32",
						"value": "t_uint256"
					},
					"t_string_storage": {
						"encoding": "bytes",
						"label": "string",
						"numberOfBytes": "32"
					},
					"t_uint256": {
						"encoding": "inplace",
						"label": "uint256",
						"numberOfBytes": "32"
					},
					"t_uint8": {
						"encoding": "inplace",
						"label": "uint8",
						"numberOfBytes": "1"
					}
				}
			},
			"userdoc": {
				"kind": "user",
				"methods": {},
				"version": 1
			}
		}
	}
}